:020000040800F2
:1000000000500020CD010008D1010008D3010008F4
:10001000D5010008D7010008D90100080000000040
:10002000000000000000000000000000DB010008EC
:10003000DD01000800000000DF010008E101000808
:10004000E9010008E9010008E9010008E9010008E8
:10005000E9010008E9010008E9010008E9010008D8
:10006000E9010008E9010008E9010008E9010008C8
:10007000E9010008E9010008E9010008E9010008B8
:10008000E9010008E9010008E9010008E9010008A8
:10009000E9010008E9010008E9010008E901000898
:1000A000E9010008E9010008E9010008E901000888
:1000B000E9010008E9010008E9010008E901000878
:1000C000E9010008E9010008E9010008E901000868
:1000D000E9010008E9010008E9010008E901000858
:1000E000E9010008E9010008E9010008000000003A
:1000F0000000000000000000000000000000000000
:1001000000000000000000005FF808F107B500F0F3
:10011000DDF8234A234B24498B4204D252F8041FB2
:1001200043F8041BF7E7214B214A934203D20022F4
:1001300043F8042BF8E700F0CBF8684601A900F07B
:10014000BDF81C4B1C4C1E46E41AA4100025A54209
:1001500004DA56F8253098470135F8E7174B184C64
:100160001E46E41AA4100025A54204DA56F82530EC
:1001700098470135F8E79DE8030000F07DF9114B41
:1001800006461D46104CE41AA410002C04DD013C68
:1001900055F824309847F8E7304600F08BF800BF58
:1001A000D4040008000000201C0000201C000020D7
:1001B00020000020EC010008EC010008EC01000820
:1001C000EC010008EC010008EC01000805480047BC
:1001D000FEE7FEE7FEE7FEE7FEE7FEE7FEE7FEE7F7
:0C01E000704700000D010008FEE7000061
:1001EC00CA78F0B5D40648BF8C780D8802F00F039E
:1001FC0048BF234315F0FF0F1DD0016800240126D2
:10020C00A64006EA0507B74211D14FEA840E0F2625
:10021C0006FA0EF621EA0601282A03FA0EF641EA3E
:10022C00060101D1476102E0482A08BF0761013489
:10023C00082CE4D10160FF2D1FD94168002404F182
:10024C0008070126BE4006EA0507B74211D14FEA5E
:10025C00840E0F2606FA0EF621EA0601282A03FA66
:10026C000EF641EA060101D1476102E0482A08BFB7
:10027C0007610134082CE2D14160F0BD0161704787
:10028C00416170470AB101617047416170470000DC
:10029C00044B9A6909B1104301E022EA000098610D
:1002AC00704700BF0010024008B500F00DF80000C8
:1002BC0001230360014B0B60704700BF000000205E
:1002CC0000F012B800F08AB8BFF34F8F0449054B09
:1002DC00CA6802F4E0621343CB60BFF34F8FFEE7B2
:1002EC0000ED00E00400FA05384B82B01A6842F0C9
:1002FC0001021A605968364A0A405A601A6822F09C
:10030C00847222F480321A601A6822F480221A60F5
:10031C005A6822F4FE025A604FF41F029A600022BF
:10032C00009201921A6842F480321A601A6802F440
:10033C0000320192009A01320092019A1AB9009A85
:10034C00B2F5A06FF2D11A6812F4003218BF012274
:10035C000192019A012A05D01E4B4FF000629A605F
:10036C0002B070471C4A116841F01001116011680D
:10037C0021F003011160116841F0020111605A680B
:10038C005A605A685A605A6842F480625A605A68D5
:10039C0022F47C125A605A6842F4E8125A601A68C5
:1003AC0042F080721A601968084A8901FBD55168BD
:1003BC0021F003015160516841F0020151605A680B
:1003CC0002F00C02082AFAD1C6E700BF0010024066
:1003DC000000FFF800ED00E000200240134A144B2F
:1003EC00516801F00C01042903D0082903D01149EC
:1003FC0011E011490FE051685068C1F38341C0030B
:10040C0001F1020101D40D4804E0506880034CBF97
:10041C000B4809484143196052680A49C2F3031258
:10042C00895C1A68CA401A60704700BF001002400D
:10043C001800002000127A0000DD6D0000093D005C
:10044C0080EE36000800002082B000280BDD41F25F
:10045C0053730193019B5A1E002B019201DD00BFC7
:10046C00F8E70138F1E702B07047000007B510203B
:10047C000121FFF70DFFFFF737FF4FF44073ADF885
:10048C00043003238DF806300F48102301A98DF892
:10049C000730FFF7A5FE0C484FF48071FFF7EEFE16
:1004AC0001224FF400710848FFF7ECFE4FF4FA708C
:1004BC00FFF7CAFF04484FF40071FFF7E1FE4FF459
:0C04CC00FA70FFF7C1FFEBE700100140E1
:1004D8001C000020000000000000000000000000D8
:0C04E800010203040607080900A24A04F0
:040000050800010DE1
:00000001FF
