:020000040800F2
:100000000000022001030008450300084503000822
:1000100045030008450300084503000800000000F0
:100020000000000000000000000000004503000880
:1000300045030008000000004503000845030008D0
:100040004503000845030008450300084503000870
:100050004503000845030008450300084503000860
:100060004503000845030008450300084503000850
:100070004503000845030008450300084503000840
:100080004503000845030008450300084503000830
:100090004503000845030008450300084503000820
:1000A0004503000845030008450300084503000810
:1000B0004503000845030008450300084503000800
:1000C00045030008450300084503000845030008F0
:1000D00045030008450300084503000845030008E0
:1000E00045030008450300084503000845030008D0
:1000F00045030008450300084503000845030008C0
:1001000045030008450300084503000845030008AF
:10011000450300084503000845030008450300089F
:10012000450300084503000845030008450300088F
:10013000450300084503000845030008450300087F
:10014000450300084503000845030008450300086F
:10015000450300084503000845030008450300085F
:10016000450300084503000845030008450300084F
:10017000450300084503000845030008450300083F
:080180004503000845030008D7
:1001880010B5054C237833B9044B13B10448AFF3C9
:1001980000800123237010BD280400200000000007
:1001A8002C050008084B10B51BB108480849AFF3E7
:1001B80000800848036803B910BD074B002BFBD02B
:1001C800BDE81040184700BF000000002C050008DB
:1001D8002C0400202804002000000000F0B50E6860
:1001E80000220123934003EA060E9E452AD15500BA
:1001F80003230468AB40DB431C4004600C790768A8
:1002080004FA05FC013C4CEA0707012C076011D8E9
:1002180084684F791C4084608468AF4027438760B6
:10022800446824EA0E0444608C7947689440A4B278
:100238003C434460C4682340C360CB79C468AB4086
:100248002343C3600132102ACBD1F0BD044B1A6B93
:1002580009B1104301E022EA00001863704700BFAB
:100268000038024082B00190019B5A1E0192002B77
:10027800FAD102B07047000008B508200121FFF745
:10028800E5FF1A491A484FF470430B6001230B71BC
:10029800032200238B714A71CB71FFF79FFF144C27
:1002A80014484FF4805323834FF460436383FFF76C
:1002B800D9FF4FF4005323834FF4504363830D4811
:1002C800FFF7D0FF4FF4804323834FF43043638319
:1002D8000848FFF7C7FF4FF4004323834FF4E04378
:1002E80063830448FFF7BEFFD9E700BF440400203A
:1002F800000C024080969800002103E00A4B5B58EE
:100308004350043109480A4B42189A42F6D3094A25
:1003180002E0002342F8043B074B9A42F9D300F06D
:100328000FF8FFF7A9FF70475005000800000020EC
:1003380028040020280400204C040020FEE70000C8
:10034800344B1A68002142F001021A6099601A6859
:1003580022F0847222F480321A602F4A5A601A6896
:1003680082B022F480221A60D960009101911A6843
:1003780042F480321A60274B1A6802F40032019264
:10038800009A01320092019A1AB9009AB2F5A04F68
:10039800F1D11B6813F4003318BF01230193019BAB
:1003A800012B05D01D4B4FF000629A6002B07047D8
:1003B800184B1B491A6C42F080521A640A6842F4BE
:1003C80040420A609A689A609A6842F400429A60C9
:1003D8009A6842F4A0529A60124A5A601A6842F027
:1003E80080721A6019680B4A8901FBD50E4B40F2DE
:1003F80005711960936823F003039360936843F0D1
:1004080002039360034B9B6803F00C03082BF9D19C
:10041800C8E700BF003802401030002400ED00E0BB
:100428000070004019544007003C0240024B13B1D1
:10043800024800F005B870470000000055040008A5
:10044800014600200246034600F016B838B5084BAE
:10045800084DED1AAC1018BFED1805D0013C55F841
:10046800043D9847002CF9D1BDE8384000F060B849
:100478004C050008500500082DE9F047254C256873
:10048800D5F848410646884692469946CCB36068F6
:100498001F2818DC431C7EB104EB80050121C5F838
:1004A80088A0D4F8887101FA00F21743022EC4F824
:1004B8008871C5F808911ED00230636044F8208026
:1004C8000020BDE8F087144B03B34FF4C870AFF3B6
:1004D80000800446D0B1D5F84831002780E888006C
:1004E800C5F8484138460123C4F88871C4F88C71AE
:1004F800002EE1D0D0E7D4F88C110A43C4F88C213F
:10050800DAE705F5A674C5F84841C0E74FF0FF30B3
:10051800BDE8F0872805000800000000430000003F
:1005280000000020F8B500BFF8BC08BC9E46704724
:0C053800F8B500BFF8BC08BC9E46704738
:0805440035040008AD010008B8
:04054C008901000819
:1005500000000000EC02002054030020BC03002037
:10056000000000000000000000000000000000008B
:10057000000000000000000000000000000000007B
:10058000000000002405000800000000000000003A
:10059000000000000000000000000000000000005B
:1005A000000000000000000000000000000000004B
:1005B000000000000000000000000000000000003B
:1005C000000000000000000000000000000000002B
:1005D000000000000000000000000000000000001B
:1005E000000000000000000000000000000000000B
:1005F00000000000000000000100000000000000FA
:100600000E33CDAB34126DE6ECDE05000B000000BE
:1006100000000000000000000000000000000000DA
:1006200000000000000000000000000000000000CA
:1006300000000000000000000000000000000000BA
:1006400000000000000000000000000000000000AA
:0400000508000301EB
:00000001FF
