:020000040800F2
:100000000004002081020008C1030008C1030008A9
:10001000C1030008C1030008C1030008C1030008B0
:10002000C1030008C1030008C1030008E103000880
:10003000C1030008C1030008C1030008C10400088F
:10004000C1030008C1030008C1030008C103000880
:10005000C1030008C1030008C1030008C103000870
:10006000C1030008C1030008C1030008C103000860
:10007000C1030008C1030008C1030008C103000850
:10008000C1030008C1030008C1030008C113000830
:10009000E11300080114000821140008C10300083E
:1000A000C1030008C1030008C1030008C103000820
:1000B000C1030008C1030008C1030008C103000810
:1000C000C1030008C1030008C1030008C103000800
:1000D000C1030008C1030008C1030008C1030008F0
:1000E000C1030008C1030008C1030008C1030008E0
:1000F000C1030008C1030008C1030008C1030008D0
:10010000C1030008C1030008C1030008C1030008BF
:10011000C1030008C1030008C1030008C1030008AF
:10012000C1030008C1030008C1030008C10300089F
:10013000C1030008C1030008C103000841140008FE
:100140006114000881140008A1140008C10300080C
:10015000C1030008C1030008C1030008C10300086F
:10016000C1030008C1030008C1030008C10300085F
:10017000C1030008C1030008C1030008C10300084F
:10018000C1030008C1030008C1030008C10300083F
:10019000C1030008C1030008C1030008C10300082F
:0C01A000C1030008C1030008C1030008EF
:1001B00000B583B000F0ACFD00F0F2F940F6841019
:1001C00041F6A031C2F20000C0F6000100F0E0FDEF
:1001D00040F6BC1041F6A031C2F20000C0F60001AA
:1001E00000F0D6FD41F6B032C0F6000240F698505D
:1001F00041F6F1130092C0F600034FF4E871472274
:10020000C2F2000000F0E4FB41F6E032C0F600026A
:1002100040F6F81041F6F1130092C0F600034FF4D7
:10022000E8714722C2F2000000F0D2FB002240F643
:10023000C83041F661130092C2F20000C0F600031C
:100240004FF4E871472200F0C3FB4FF4FA7000F05E
:1002500007FCFAE7AFF30080AFF30080AFF3008054
:10026000704700BFAFF30080AFF30080AFF30080B2
:10027000FEE700BFAFF30080AFF30080AFF3008074
:1002800072B640F60000C2F2000080F30988022333
:1002900083F31488BFF36F8F40F2000340F20042F3
:1002A000C2F20003C2F2000293420BD2D9431144BE
:1002B00021F0030119444FF05532043B43F8042F59
:1002C0008B42FBD140F20043C2F2000383420CD2C6
:1002D00037491A1D891A21F0030119444FF055328C
:1002E000043B43F8042F8B42FBD101F029FB40F67D
:1002F000000140F60003C2F20001C2F2000399427D
:100300000ED2CC431C4424F0030441F6E8300434FC
:10031000C0F600000023C258CA500433A342FAD1E9
:1003200040F6000340F66872C2F20003C2F2000217
:1003300093420AD2D943114421F003011944002207
:10034000043B43F8042F8B42FBD1FFF789FF40F2B7
:10035000AC1540F2AC13C0F60005C0F600039D4298
:100360000BD2EE431E44B6080136043D002401348E
:1003700055F8043F9847B442F9D1FFF719FF40F20E
:10038000AC1540F2AC13C0F60005C0F600039D4268
:100390000BD2EE431E44B6080136043D002401345E
:1003A00055F8043F9847B442F9D1FFF761FF00BF09
:1003B00003080020AFF30080AFF30080AFF30080AC
:1003C000FEE700BFAFF30080AFF30080AFF3008023
:1003D00000F0BEFA00DF00BFAFF30080AFF3008093
:1003E000EFF30983203383F30988002383F3118813
:1003F000704700BFAFF30080AFF30080AFF3008021
:1004000008B54FF46D43CEF200034FF44072C0F2D2
:10041000FA52002199600720DA60102100F098F864
:100420000A20202100F094F80B208021BDE808402C
:1004300000F08EB8AFF30080AFF30080AFF3008020
:10044000202383F311884FF46D43CEF200035B68E1
:1004500013F400631FD0EFF309824FF0807342F86A
:10046000043CA2F1200383F3098840F63813C2F25A
:1004700000039969C87F88B118688B6881689942C0
:1004800094BF0023012393B140F2D133C0F600039F
:1004900042F8083C704783F31188704718688B68EE
:1004A0008168994234BF00230123002BECD140F234
:1004B000D433C0F6000342F8083C7047AFF3008025
:1004C00008B5202383F3118800F0A2F8002383F3FA
:1004D0001188BDE80840FFF7B3BF00BFAFF300804D
:1004E0002DE9F04FC1F80CD0D0F80CD0BDE8F08F5A
:1004F000002383F311882846A04700F0E1FA7047F3
:1005000020F0030303F1604303F56143F0B400F00E
:1005100003024409D3F80053D200FF26A4009640FA
:1005200004F1604404F5614425EA06050127914081
:1005300000F01F0007FA00F045EA0102C3F80023AB
:10054000C4F880012060F0BC704700BFAFF30080AA
:1005500020F0030303F1604303F56D4300F0030053
:1005600010B4C0009A69FF24844022EA040281404A
:100570000A439A615DF8044B704700BFAFF30080F7
:1005800040F63812C2F2000241F670239269C0F6BA
:1005900000039361FEE700BFAFF30080AFF300807C
:1005A00010B582B0FFF72CFF00F0EAF800F068F811
:1005B00000F066FB00F09CFB40F600004021C2F218
:1005C000000000F0D5F940F63813C2F20003012212
:1005D00098610277002383F3118862B640F63813DE
:1005E000C2F2000341F680229C69C0F6000200219D
:1005F00040F6480040F28153A261C0F6000300912A
:100600000122E021C2F2000000F0E2F902B010BDC8
:1006100070B540F63813C2F200039B69DA7F0AB165
:10062000013ADA771A6A40F62811C2F20001013263
:100630001A62CB680A6801338A42CB6019D0966887
:10064000013E9660AEB90D461068D4680860D66069
:100650000023416083F311881069A047202383F3AE
:1006600011882A68936840F62811C2F20001002B15
:10067000EAD070BDAFF30080AFF30080AFF300802D
:1006800040F62813C2F200034FF0FF3100225B60F6
:100690001B609960DA607047AFF30080AFF30080B1
:1006A00030B440F62815C2F2000503612C68A36837
:1006B000C260994204D92468C91AA3688B42FAD34C
:1006C000636804604360AC426060186081601EBF74
:1006D000A368C1EB0301A16030BC7047AFF3008099
:1006E000036840F62812C2F2000293421FBF9968C5
:1006F000826852189A6042681360036800215A6049
:10070000C1607047AFF30080AFF30080AFF30080AB
:1007100010B4202383F31188037F0D2B11D8DFE859
:1007200003F029101007100B101010101010100BF0
:10073000436A9A6801329A6090E80C001A60026875
:1007400053604FF0FF34002340F638128168446252
:100750000377C2F20002126893688B42FBD25168A1
:100760000260416000235060086083F311885DF8E7
:10077000044B7047002383F311885DF8044B7047E6
:1007800040F63813C2F2000300225B601B605B611D
:100790001B619A60704700BFAFF30080AFF3008029
:1007A000002310B48168037740F638130446C2F280
:1007B00000031B689A688A42FBD25A682360626011
:1007C00020465C6014605DF8044B7047AFF3008016
:1007D00040F63813C2F2000370B41A6899691468BD
:1007E000087714260125CE77636015771C601046C4
:1007F00070BC9A61FFF774BEAFF30080AFF3008066
:1008000030B54B1C87B0054617D040F63814C2F2FD
:10081000000440F21172A36901A8C0F60002FFF7BC
:100820003FFF2846FFF7D4FF049B13B101A8FFF751
:1008300057FFA369586A07B030BD40F63814C2F2BA
:100840000004FFF7C5FFA369586A07B030BD00BFB9
:10085000F0B440F63817C2F200078568D7F818C020
:10086000DCF808404162A54206460DD800223B460E
:1008700002771B689A689542FBD95A6833607260A8
:100880005E601660F0BC704700238CF81C303B465D
:100890001B689A689442FBD95A68CCF8003001244E
:1008A000CCF80420C3F804C0C2F800C03477304646
:1008B000BE616146F0BCFFF713BE00BFAFF300801E
:1008C00040F63812C2F20002F0B41068956903686D
:1008D000AC6813600127142600215A60077703468D
:1008E0009061EE77297700E01B689A68A242FBD2FC
:1008F0005A682B606A6029465D601560F0BCFFF79E
:10090000EFBD00BFAFF30080AFF30080AFF3008016
:1009100040F63812C2F2000270B41068956903689C
:10092000AC681360012600215A6006770346906187
:10093000297700E01B689A68A242FBD85A682B60AE
:100940006A6029465D60156070BCFFF7C9BD00BFD5
:1009500040F63813C2F200039B69DB7F0BB1FFF74F
:10096000D7BFFFF7ADBF00BFAFF30080AFF300808C
:100970002DE9F00340F63812C2F200020024556956
:10098000447700F12C064FF002094FF0140800F1F3
:1009900028074FF0010C45610261816080F81C90CE
:1009A00080F81F80C46384630462846101645061C1
:1009B00080F81EC0286187620663C662BDE8F00346
:1009C000704700BFAFF30080AFF30080AFF300804B
:1009D0002DE9F0479E460446202383F3118840F614
:1009E0003816C2F20006A1F1240318447769E060CA
:1009F00040F2F14144F803E0089B002504F12C0E7D
:100A000004F1280CC0F600014FF0020A4FF014095F
:100A10004FF0010843600162A260266167612264B1
:100A200084F81CA084F81F9084F81E806577746198
:100A3000E563A5632562A56120463C612946C4F8AB
:100A400028C0C4F830E0C4F82CE0FFF701FF2B46C3
:100A500083F311882046BDE8F08700BFAFF3008024
:100A600008B50146202383F311880620FFF7C8FE4E
:100A7000002383F3118808BDAFF30080AFF300803B
:100A800038B540F63813C2F200039C69254660620F
:100A900055F8280FA84206D00368A362FFF780FE2E
:100AA000A06AA842F8D1637F9B0704D122696369D9
:100AB0001A61226953610E20BDE83840FFF788BEF5
:100AC000202383F31188FFF7DBBF00BFAFF3008063
:100AD0004060006081607047AFF30080AFF300803A
:100AE00003468068421E002A10B4A8BF00209A6006
:100AF00002DB5DF8044B704779B140F63812C2F260
:100B000000020320926953625C6882E818005A6010
:100B100022605DF8044BFFF773BE98604FF0FF3022
:100B2000E7E700BFAFF30080AFF30080AFF30080D2
:100B300082680132002A10B40346826002DD5DF84B
:100B4000044B704702681168002401604B605462D6
:100B500010465DF8044BFFF723BE00BFAFF30080E3
:100B60000023406000608360704700BFAFF30080E7
:100B700030B4202383F3118840F63813C2F2000307
:100B800004689D690C600024016023464D608A6002
:100B9000CC6083F3118830BC704700BFAFF3008096
:100BA000202383F31188024602E0994207D01A46B7
:100BB00013688342F9D1002383F3118870470B68CF
:100BC0001360002383F31188704700BFAFF30080E8
:100BD00008B5826B037F1143082B81630BD0092B6F
:100BE00000D008BD436A19408B42FAD1FFF7D8FD07
:100BF0000023436208BD436A1942F7D108BD00BF14
:100C000070B50468A04205460E4608D0201D0BC8EA
:100C10003343E360FFF7DCFF2468A542F6D170BDE3
:100C200040F63812C2F2000270B5202304469569DE
:100C300083F31188AA6B10EA02060ED121B90B4684
:100C400083F31188002070BD68620820FFF7D8FD8B
:100C500000280ADBAA6B04EA020622EA0602AA635B
:100C6000002383F31188304670BD334683F3118827
:100C7000002070BDAFF30080AFF30080AFF30080C1
:100C80004CF2000140F6541240F658130648C2F2E6
:100C90000101C2F20002C2F2000321F0070120F0BC
:100CA00007001160186070476F0F0020AFF30080DD
:100CB000202383F3118840F6581340F65412C2F2F1
:100CC0000003C2F2000219681268073020F0070022
:100CD000521A90429BBF401818600020084600231B
:100CE00083F31188704700BFAFF30080AFF300803B
:100CF00040F66013C2F2000340F6B1420021C0F694
:100D0000000203F110001A609960D960FFF728BF54
:100D100008B500F00DF900F0E3F841F6A020C0F6A8
:100D2000000000F035FD00F00BF8BDE8084000F0D1
:100D30000FBE00BFAFF30080AFF30080AFF30080C1
:100D400000F0BEBBAFF30080AFF30080AFF30080D4
:100D500038B5012300250446037045602946083054
:100D6000FFF7B6FE294604F11400FFF7B1FE04F1C7
:100D7000200504F1240004F1280104F12C0204F1FF
:100D8000300325626062A162E262236338BD00BF66
:100D900038B504460D46202383F311880378022BCF
:100DA00006D106200121FFF72BFD2378022BF8D076
:100DB000012B03D0002383F3118838BD65602046E2
:100DC00000F09EFB03232370002383F3118838BDBA
:100DD0002DE9F843984604460E469146202383F3B6
:100DE000118800F108072578042D3146204602D0ED
:100DF00000F0E6FB50B938464146FFF771FE002887
:100E0000F1D0002383F31188BDE8F88320463146F2
:100E10004A4600F0F5FB002383F311880020BDE86B
:100E2000F88300BFAFF30080AFF30080AFF3008022
:100E30002DE9F843984604460E469146202383F355
:100E4000118800F114072578042D3146204602D080
:100E500000F016FC50B938464146FFF741FE002825
:100E6000F1D0002383F31188BDE8F8832046314692
:100E70004A4600F025FC002383F311880020BDE8DA
:100E8000F88300BFAFF30080AFF30080AFF30080C2
:100E90004FF48053CEF200035B688360704700BF5D
:100EA0004FF48053CEF2000340F68012C2F20002EB
:100EB0005B68816810B41468C2685B1A1B1B93429C
:100EC000836088BFC36003D80269934238BF03615F
:100ED0005DF8044B704700BFAFF30080AFF30080B4
:100EE00010B540F6801486B0C2F200044FF480536F
:100EF0000022CEF200034FF0FF31226004920591F0
:100F0000596840F6916240F6A163C0F60002C0F64F
:100F1000000301A8029303910192FFF7C1FF039B15
:100F2000236006B010BD00BFAFF30080AFF30080B8
:100F30004FF46053C4F20203F0B400224FF0FF34C8
:100F400019691C611A6159695C615A611E6A4EF225
:100F50001001CEF2000166F0805649F23F054EF6D0
:100F6000F0501E62CEF200001A62C0F2020507269F
:100F70005F6A5C625A624D608A600E60C4684FF4BA
:100F80008051CEF2000144F08074C460086840F0E3
:100F900001000860186C4FF4E041C4F2000140F019
:100FA00080501864086840F480700860196F01F47C
:100FB0004071B1F5007F1EBF4FF4803119671A6789
:100FC0004FF4E043C4F20003F0BC5A6822F400720C
:100FD0005A607047AFF30080AFF30080AFF300803A
:100FE0004FF460514FF4E043C4F20201C4F2000335
:100FF0004FF080504FF4404208641A600B6843F091
:1010000001030B600A684FF460539007C4F20203B7
:10101000F8D59A6822F003029A609A6819469A6095
:101020008B684FF4605213F00C03C4F20202F7D144
:10103000116801F0F90111609360136843F4803383
:10104000136011684FF460538903C4F20203F8D5AA
:101050005A6F42F001025A6719464A6F4FF46053C3
:101060009007C4F20203F8D545F20842C0F240727C
:101070005A6019684FF4E04241F080711960C4F27F
:10108000000253685904FCD54FF46051C4F20201C8
:101090000A684FF460539201C4F20203F8D54FF48A
:1010A0007052C4F202024FF41441C3F6080140F238
:1010B0000570996010609A6842F002029A601946C1
:1010C0008A6802F00C024FF46053082AC4F202034B
:1010D000F6D15A6C42F480425A645A6E42F480420D
:1010E0005A667047AFF30080AFF30080AFF3008023
:1010F0004FF46053C4F20203F0B41C6C4FF4C845C3
:10110000C4F2000544F000741C64D5F800321B0CD6
:101110001B0443F0010343EA0023C5F80032002911
:1011200065D00020C5F81C020346C5F80402044639
:10113000C5F80C02C5F81402D80000F1804000F593
:10114000C84001331C2BC0F84042C0F84442F3D1E0
:101150004FF4C843C4F20003002501271079146836
:1011600010F0010F18BFD3F804024FEAC40607FAC3
:1011700004F41EBF2043C3F80402107910F0020FDC
:101180001FBFD3F80C022043C3F80C0210794007AC
:1011900042BFD3F814022043C3F8140206F180467C
:1011A000906806F5C8460135C6F84002D068C6F812
:1011B0004402D3F81C028D4244EA000402F11002FA
:1011C000C3F81C42CAD14FF4C842C4F200024FF423
:1011D0006053D2F80012C4F2020321F00101C2F8F8
:1011E00000121A6C22F000721A64F0BC7047C3003F
:1011F000012203F1804303F5C84302FA00F01043D3
:10120000C5F84012C5F84412C3F84012C3F844129E
:10121000C5F80412C5F81412C5F80C02C5F81C0272
:10122000D1E700BFAFF30080AFF30080AFF30080E1
:1012300038B5426B40F20113C0F2010393600446DB
:10124000202383F311880369002BB8BF00F1080540
:1012500005DA2846FFF76CFC2369002BF9DB04F163
:1012600024000121FFF7CCFC002383F3118838BD53
:10127000436B70B5DE68B20704461AD05A6922F093
:1012800002025A61202383F31188C369002BB8BF7F
:1012900000F1140505DA2846FFF74AFCE369002B44
:1012A000F9DB04F120000121FFF7AAFC002383F3FE
:1012B0001188F3060DD5636B1022DA60202383F3C7
:1012C0001188102104F12800FFF79AFC002383F312
:1012D000118870BDAFF30080AFF30080AFF30080E2
:1012E000436B70B51E690446B0071AD05A6922F0E4
:1012F00010025A61202383F31188E369002BB8BFE1
:1013000004F1140505DA2846FFF712FCE369002B07
:10131000F9DB04F120000221FFF772FC002383F3C4
:101320001188F1060DD5636B10221A61202383F317
:101330001188102104F12800FFF762FC002383F3D9
:10134000118870BDAFF30080AFF30080AFF3008071
:10135000426B38B555681C2353602B0704461BD4D9
:101360006D0718D5636B9A69996921F070019961CD
:1013700012F0700F02F0070118BF41F0080120239E
:1013800083F3118804F1280041EA0241FFF738FC99
:10139000002383F3118838BD1168032321F0020173
:1013A00000F8303B2023116083F311880021FFF700
:1013B00027FC002383F31188D2E700BFAFF300803E
:1013C00008B540F68410C2F20000FFF731FFBDE817
:1013D0000840FFF735B800BFAFF30080AFF30080DF
:1013E00008B540F68410C2F20000FFF741FFBDE8E7
:1013F0000840FFF725B800BFAFF30080AFF30080CF
:1014000008B540F68410C2F20000FFF769FFBDE89E
:101410000840FFF715B800BFAFF30080AFF30080BE
:1014200008B540F68410C2F20000FFF791FFBDE856
:101430000840FFF705B800BFAFF30080AFF30080AE
:1014400008B540F6BC10C2F20000FFF7F1FEBDE89F
:101450000840FEF7F5BF00BFAFF30080AFF3008098
:1014600008B540F6BC10C2F20000FFF701FFBDE86E
:101470000840FEF7E5BF00BFAFF30080AFF3008088
:1014800008B540F6BC10C2F20000FFF729FFBDE826
:101490000840FEF7D5BF00BFAFF30080AFF3008078
:1014A00008B540F6BC10C2F20000FFF751FFBDE8DE
:1014B0000840FEF7C5BF00BFAFF30080AFF3008068
:1014C00038B540F68415C2F20005284640F6BC1433
:1014D000FFF73EFCC2F200044FF4C843C4F200031D
:1014E00020466B63FFF734FC4FF4D043C4F2000393
:1014F000002163630A460E20BDE83840FFF7F8BDBF
:1015000040F68413C2F20003984210B5044620D07E
:1015100040F6BC13C2F20003984233D0636B022141
:10152000012221701A605A68D10707D406200121D0
:10153000FFF766F9636B5A68D207F7D5616848F61A
:101540005B7248680968D861C0F2010219605A618B
:1015500010BD1320B021FEF7D3FF1420B021FEF7F9
:10156000CFFF1520B021FEF7CBFF1620B021FEF7EC
:10157000C7FF4FF46053C4F202031A6C42F00072CA
:101580001A64CBE73F20B021FEF7BAFF4020B0211C
:10159000FEF7B6FF4120B021FEF7B2FF4220B02196
:1015A000FEF7AEFF4FF46053C4F202031A6C42F030
:1015B00080621A64B2E700BFAFF30080AFF300802F
:1015C00003291AD8DFE801F0110C0702436B986871
:1015D000C0F300707047436B9868C0F3C0607047F9
:1015E000436B9868C0F380607047436B9B6813F04F
:1015F000E05F0CBF0020012070470020704700BF53
:1016000010B4032925D8DFE801F02F2B2702436B04
:1016100003F5D073117888064CBFC1F30010C1F3F5
:10162000001001F00F0154BF94885468596091680C
:1016300048BF400099604CBF40EAC4006405D168CF
:101640004CBF40F0040044EA400040F00102D96081
:101650001A605DF8044B7047436B03F5C873D9E714
:10166000436B03F5C073D5E7416B8B68C3F301632C
:10167000183301EB0313CDE7AFF30080AFF3008025
:10168000012911D00AD3022906D1436B186910F041
:10169000030018BF0120704700207047436BDA68D1
:1016A0009207F3D001207047436BD86810F0030015
:1016B00018BF0120704700BFAFF30080AFF3008078
:1016C00010B4002930D1436BD968890735D0D3F8DD
:1016D000B041D3F8B411D3F8B831D360436BD3F829
:1016E000BC311361436B2020D860D868800743D099
:1016F0001079C4F3400363F30410C4F3800363F36D
:1017000045101071002B31D09368E40864F31C037A
:10171000936013795DF8044B080A61F30303090C25
:10172000137110705180704701292AD0022908BF17
:10173000436B05D05DF8044B704719698C07F9D0ED
:10174000D3F8C041D3F8C411D3F8C831D360436B88
:10175000D3F8CC311361436B2020186118698007DE
:1017600002BF586940F010005861C1E71389640D49
:1017700064F30A031381CCE7586940F00200586112
:10178000B6E7436BA3E700BFAFF30080AFF3008081
:101790004FF46053C4F202031A6B6FEA52226FEAED
:1017A00042221A631A6D6FEA52226FEA42221A65C8
:1017B00000234168C4F202034FF4806259608168DB
:1017C0009960C168D960016959614169196281698B
:1017D000596201681960016AC4F202024FF40063A1
:1017E0005160416A9160816AD160C16A5161016B47
:1017F0001162416B5162C1691160C4F20203C16B95
:101800005960016C9960416CD960816C5961C16CFF
:101810001962016D5962816B4FF440621960816DEC
:10182000C4F202024FF480535160C16D9160016EA9
:10183000D160416E5161816E1162C16E5162416D24
:101840001160C4F20203416F5960816F9960C16FEA
:10185000D960D0F880105961D0F884101962D0F89E
:1018600088105962016F4FF4A0521960D0F890109F
:10187000C4F202024FF4C0535160D0F8941091604A
:10188000D0F89810D160D0F89C105161D0F8A01019
:101890001162D0F8A4105162D0F88C101160D0F809
:1018A000AC10C4F202034FF4E0525960D0F8B0100B
:1018B0009960D0F8B410D960D0F8B8105961D0F858
:1018C000BC101962D0F8C0105962D0F8A810C4F248
:1018D00002021960D0F8C8305360D0F8CC30936061
:1018E000D0F8D030D360D0F8D4305361D0F8D830AD
:1018F0001362D0F8DC305362D0F8C4104FF40053B8
:101900001160D0F8E420C4F202035A60D0F8E82055
:101910009A60D0F8EC20DA60D0F8F0205A61D0F864
:10192000F4201A62D0F8F8205A62D0F8E0201A6049
:10193000704700BFAFF30080AFF30080AFF30080CB
:10194000FFF74EBBAFF30080AFF30080AFF3008032
:10195000704700BFAFF30080AFF30080AFF30080AB
:10196000F0B540F6381485B0C2F200049DF800507E
:10197000A0690199477F45F0200544F2675641F67A
:10198000C032C0F22316C0F6000205F0EF054FF09A
:10199000080C45F2AA5366F31C016CF3030563F3CC
:1019A0001F434FF0FF1682617A078DF800500191B6
:1019B0000293039619D440F6841000216A466423EA
:1019C000C2F20000FFF704FA40F6BC1064230021C5
:1019D0006A46C2F20000FFF7FBF94FF4FA70FFF716
:1019E0003FF8A3695B7F5B07E5D5002005B0F0BD3C
:1019F000F0B540F63817C2F200070446BA6900682D
:101A000041F6CC338BB0C0F600039361203001A9BE
:101A10000122FFF7ADF84FF44065C4F2020501263C
:101A2000BB695B7F590709D44FF0FF306421FFF792
:101A3000F7F880B9BB695B7F5907F5D501A90A485A
:101A4000FFF7AEF800200BB0F0BD63686A6906FAD4
:101A500003F353406B6100210B46206805AAFFF792
:101A6000E7F90028F1D0DBE7A4090020AFF30080FC
:101A700069646C65000000000000000000000000C8
:101A80006D61696E00168711040448080C10141863
:101A9000001C1D1E1F2000000000000000000000B0
:101AA00000AAA02A00000000FFABFFFF5400014085
:101AB000FFFF00000000565500AA0A0080200A0A15
:101AC00040000000FFFFFFFF15455555FFFF0000D8
:101AD000000000049900990001802002000000002D
:101AE000FFFFFFFF54154554FFFF0000000000609A
:101AF000000606000001005500000000FFFFFFFF88
:101B000055505500FF0F00000000000000000000CD
:101B10004000000000000000FFFFFFFF0000000089
:101B2000FFFF0000000000000000000000000000B7
:101B300000000000FFFFFFFF00000000FFFF0000AB
:101B40000000000000000000000000000000000095
:101B5000FFFFFFFF00000000FFFF0000000000008B
:101B6000000000000000000000000000FFFFFFFF79
:101B700000000000FFFF0000000000000000000067
:101B80000000000000000000FFFFFFFF0000000059
:101B9000FFFF000000000000000000000000000047
:101BA0006400000006001840000000000000000073
:101BB000840900200E00000000000000000000006A
:101BC0007472616E736D69747465720072656365B9
:101BD000697665720000000000000000000000004F
:081BE000BC0900200D0000000B
:04000005080002816C
:00000001FF
