:020000040800F2
:1000000000040020610B0008810C0008810C00082E
:10001000810C0008810C0008810C0008810C00088C
:10002000810C0008810C0008810C0008A10C00085C
:10003000810C0008810C0008810C0008810D00086B
:10004000810C0008810C0008810C0008810C00085C
:10005000810C0008810C0008810C0008810C00084C
:10006000810C0008810C0008810C0008511A00085E
:10007000811A0008B11A0008E11A0008111B0008D3
:10008000411B0008711B0008811F00082121000886
:1000900071210008E121000851220008810C0008AC
:1000A000810C000861270008810C000891270008D6
:1000B000F1270008810C0008810C0008810C000861
:1000C000810C0008810C0008810C0008810C0008DC
:1000D000810C0008810C0008712B0008810C0008BD
:1000E000810C0008810C0008810C0008810C0008BC
:1000F00061280008810C000891280008A11B000855
:10010000810C0008810C0008810C0008810C00089B
:10011000810C0008810C0008810C0008810C00088B
:10012000D11B0008011C0008311C0008611C0008DC
:10013000911C0008810C0008810C0008810C00084B
:10014000810C0008810C0008810C0008810C00085B
:10015000C11C0008F11C0008211D0008810C0008CA
:10016000810C0008810C0008810C0008810C00083B
:10017000810C0008810C0008810C0008810C00082B
:10018000810C0008810C0008810C0008810C00081B
:10019000810C0008810C0008810C0008810C00080B
:0C01A000810C0008810C0008810C000894
:1001B00000B583B001F0DCFA00F05AFE17484FF4A6
:1001C000807140F2824202F04BFA40F282421348C0
:1001D0004FF4007102F044FA1149124801F020FB7B
:1001E0004FF47A7001F07CF80F48104901F078FB69
:1001F0000F480E4901F074FB0E480C4901F070FBEA
:10020000002300930C480D4B4FF41671412201F06E
:100210001FF842F2107001F063F8FAE700040240A0
:10022000804D0008300F00209C0F002000080020A7
:10023000B00F0020C40F002050100020C12C000877
:1002400081F0004102E000BF83F0004330B54FEA87
:1002500041044FEA430594EA050F08BF90EA020FF4
:100260001FBF54EA000C55EA020C7FEA645C7FEA87
:10027000655C00F0E2804FEA5454D4EB5555B8BFAA
:100280006D420CDD2C4480EA020281EA030382EA1B
:10029000000083EA010180EA020281EA0303362DAD
:1002A00088BF30BD11F0004F4FEA01314FF4801C80
:1002B0004CEA113102D0404261EB410113F0004F92
:1002C0004FEA03334CEA133302D0524263EB430349
:1002D00094EA050F00F0A780A4F10104D5F1200EE7
:1002E0000DDB02FA0EFC22FA05F2801841F1000142
:1002F00003FA0EF2801843FA05F359410EE0A5F116
:1003000020050EF1200E012A03FA0EFC28BF4CF046
:10031000020C43FA05F3C01851EBE37101F00045FC
:1003200007D54FF0000EDCF1000C7EEB00006EEB09
:100330000101B1F5801F1BD3B1F5001F0CD3490893
:100340005FEA30004FEA3C0C04F101044FEA4452EA
:1003500012F5800F80F09A80BCF1004F08BF5FEA71
:10036000500C50F1000041EB045141EA050130BD51
:100370005FEA4C0C404141EB010111F4801FA4F1F4
:100380000104E9D191F0000F04BF01460020B1FA49
:1003900081F308BF2033A3F10B03B3F120020CDA81
:1003A0000C3208DD02F1140CC2F10C0201FA0CF05F
:1003B00021FA02F10CE002F11402D8BFC2F1200CC4
:1003C00001FA02F120FA0CFCDCBF41EA0C0190407A
:1003D000E41AA2BF01EB0451294330BD6FEA0404C3
:1003E0001F3C1CDA0C340EDC04F11404C4F12002AE
:1003F00020FA04F001FA02F340EA030021FA04F3C0
:1004000045EA030130BDC4F10C04C4F1200220FA16
:1004100002F001FA04F340EA0300294630BD21FA54
:1004200004F0294630BD94F0000F83F4801306BF1A
:1004300081F480110134013D4EE77FEA645C18BF0E
:100440007FEA655C29D094EA050F08BF90EA020FA5
:1004500005D054EA000C04BF1946104630BD91EA9D
:10046000030F1EBF0021002030BD5FEA545C05D1A0
:100470004000494128BF41F0004130BD14F58004DF
:100480003CBF01F5801130BD01F0004545F0FE4153
:1004900041F470014FF0000030BD7FEA645C1ABF88
:1004A000194610467FEA655C1CBF0B46024650EABF
:1004B000013406BF52EA033591EA030F41F40021EB
:1004C00030BD00BF90F0000F04BF0021704730B571
:1004D0004FF4806404F132044FF000054FF0000146
:1004E00050E700BF90F0000F04BF0021704730B507
:1004F0004FF4806404F1320410F0004548BF4042DC
:100500004FF000013EE700BF42004FEAE2014FEA30
:1005100031014FEA02701FBF12F07F4393F07F4F0B
:1005200081F06051704792F0000F14BF93F07F4F3D
:10053000704730B54FF4607401F0004521F0004180
:1005400020E700BF50EA010208BF704730B54FF006
:1005500000050AE050EA010208BF704730B511F00B
:10056000004502D5404261EB41014FF4806404F143
:1005700032045FEA915C3FF4DCAE4FF003025FEAC5
:10058000DC0C18BF03325FEADC0C18BF033202EB4D
:10059000DC02C2F1200300FA03FC20FA02F001FAA7
:1005A00003FE40EA0E0021FA02F11444C1E600BF46
:1005B00070B54FF0FF0C4CF4E06C1CEA11541DBFF9
:1005C0001CEA135594EA0C0F95EA0C0F00F0DEF8C4
:1005D0002C4481EA030621EA4C5123EA4C5350EAA9
:1005E000013518BF52EA033541F4801143F48013FA
:1005F00038D0A0FB02CE4FF00005E1FB02E506F08B
:100600000042E0FB03E54FF00006E1FB03569CF0DF
:10061000000F18BF4EF0010EA4F1FF04B6F5007FE5
:1006200064F5407404D25FEA4E0E6D4146EB060657
:1006300042EAC62141EA55514FEAC52040EA5E50E0
:100640004FEACE2EB4F1FD0C88BFBCF5E06F1ED88A
:10065000BEF1004F08BF5FEA500E50F1000041EBC1
:10066000045170BD06F0004646EA010140EA02006E
:1006700081EA0301B4EB5C04C2BFD4EB0C0541EA90
:10068000045170BD41F480114FF0000E013C00F3A5
:10069000AB8014F1360FDEBF002001F0004170BDC9
:1006A000C4F10004203C35DA0C341BDC04F11404E2
:1006B000C4F1200500FA05F320FA04F001FA05F26E
:1006C00040EA020001F0004221F0004110EBD3703B
:1006D00021FA04F642EB06015EEA430E08BF20EA67
:1006E000D37070BDC4F10C04C4F1200500FA04F30A
:1006F00020FA05F001FA04F240EA020001F000419C
:1007000010EBD37041F100015EEA430E08BF20EA0E
:10071000D37070BDC4F1200500FA05F24EEA020E56
:1007200020FA04F301FA05F243EA020321FA04F085
:1007300001F0004121FA04F220EA020000EBD3703C
:100740005EEA430E08BF20EAD37070BD94F0000F3C
:100750000FD101F00046400041EB010111F4801F70
:1007600008BF013CF7D041EA060195F0000F18BF21
:10077000704703F00046520043EB030313F4801F5D
:1007800008BF013DF7D043EA0603704794EA0C0F17
:100790000CEA135518BF95EA0C0F0CD050EA41062D
:1007A00018BF52EA4306D1D181EA030101F00041AA
:1007B0004FF0000070BD50EA410606BF10461946D2
:1007C00052EA430619D094EA0C0F02D150EA0136DE
:1007D00013D195EA0C0F05D152EA03361CBF10461F
:1007E00019460AD181EA030101F0004141F0FE41BE
:1007F00041F470014FF0000070BD41F0FE4141F442
:10080000780170BD70B54FF0FF0C4CF4E06C1CEA41
:1008100011541DBF1CEA135594EA0C0F95EA0C0FF6
:1008200000F0A7F8A4EB050481EA030E52EA0335B1
:100830004FEA013100F088804FEA03334FF08055D2
:1008400045EA131343EA12634FEA022245EA1115FF
:1008500045EA10654FEA00260EF000419D4208BFB0
:10086000964244F1FD0404F5407402D25B084FEA5D
:100870003202B61A65EB03055B084FEA32024FF409
:1008800080104FF4002CB6EB020E75EB030E22BF66
:10089000B61A754640EA0C005B084FEA3202B6EB26
:1008A000020E75EB030E22BFB61A754640EA5C00D5
:1008B0005B084FEA3202B6EB020E75EB030E22BF65
:1008C000B61A754640EA9C005B084FEA3202B6EB66
:1008D000020E75EB030E22BFB61A754640EADC0025
:1008E00055EA060E18D04FEA051545EA16754FEA87
:1008F00006164FEAC30343EA52734FEAC2025FEAA5
:100900001C1CC0D111F4801F0BD141EA00014FF033
:1009100000004FF0004CB6E711F4801F04BF014304
:100920000020B4F1FD0C88BFBCF5E06F3FF6AFAE20
:10093000B5EB030C04BFB6EB020C5FEA500C50F1B0
:10094000000041EB045170BD0EF0004E4EEA113133
:1009500014EB5C04C2BFD4EB0C0541EA045170BD3A
:1009600041F480114FF0000E013C90E645EA060E7E
:100970008DE60CEA135594EA0C0F08BF95EA0C0FAC
:100980003FF43BAF94EA0C0F0AD150EA01347FF4F4
:1009900034AF95EA0C0F7FF425AF104619462CE7CB
:1009A00095EA0C0F06D152EA03353FF4FDAE10462E
:1009B000194622E750EA410618BF52EA43067FF47F
:1009C000C5AE50EA41047FF40DAF52EA43057FF40F
:1009D000EBAE12E700000000000000000000000085
:1009E0004FF0FF3C06E000BF4FF0010C02E000BFFB
:1009F0004FF0010C4DF804CD4FEA410C7FEA6C5CDE
:100A00004FEA430C18BF7FEA6C5C1BD001B050EA80
:100A1000410C0CBF52EA430C91EA030F02BF90EA6B
:100A2000020F0020704710F1000F91EA030F58BF2A
:100A3000994208BF90422CBFD8176FEAE37040F08C
:100A4000010070474FEA410C7FEA6C5C02D150EA2A
:100A5000013C07D14FEA430C7FEA6C5CD6D152EAE5
:100A6000033CD3D05DF8040B704700BF84461046AA
:100A700062468C461946634600E000BF01B5FFF7A9
:100A8000B7FF002848BF10F1000F01BD4DF808ED79
:100A9000FFF7F4FF0CBF012000205DF808FB00BF4A
:100AA0004DF808EDFFF7EAFF34BF012000205DF8A4
:100AB00008FB00BF4DF808EDFFF7E0FF94BF0120F1
:100AC00000205DF808FB00BF4DF808EDFFF7CEFFF2
:100AD00094BF012000205DF808FB00BF4DF808ED31
:100AE000FFF7C4FF34BF012000205DF808FB00BF02
:100AF0004FEA410212F5001215D211D56FF4787346
:100B0000B3EB625212D94FEAC12343F0004343EAE8
:100B1000505311F0004F23FA02F018BF40427047C3
:100B20004FF00000704750EA013005D111F000404D
:100B300008BF6FF0004070474FF00000704700BFE3
:100B4000704700BFAFF30080AFF30080AFF30080C9
:100B5000FEE700BFAFF30080AFF30080AFF300808B
:100B600072B6374880F30988364A374913684FF020
:100B7000404443F4700313600C600023E1EE103A2C
:100B800006228B6082F31488BFF36F8F2F4B304A9D
:100B900093420BD2D9430A4422F0030204321A448E
:100BA0004FF0553143F8041B9342FBD1294B83424C
:100BB0000CD2294A191D521A22F0030204321A4497
:100BC0004FF0553143F8041B9342FBD102F068F813
:100BD000224A234B9A420CD2D043184420F00300FF
:100BE000204B0430184453F8041B42F8041B834282
:100BF000F9D11D4B1D4A93420AD2D9430A4422F02F
:100C0000030204321A44002143F8041B9342FBD12F
:100C1000174D184CFFF794FFAC4204D254F8043B34
:100C20009847AC42FAD3144D144CFFF7C1FAAC42CA
:100C300004D254F8043B9847AC42FAD3FFF788FF3C
:100C40000008002088ED00E034EF00E00000002004
:100C500000040020000400200308002000080020F9
:100C60006C0C0020C84F00086C0C0020A81200205B
:100C7000AC010008AC010008AC010008AC010008A0
:100C8000FEE700BFAFF30080AFF30080AFF300805A
:100C900000F0A6FA00DF00BFAFF30080AFF30080E2
:100CA000064A536823F001035360EFF30983683366
:100CB00083F30988002383F31188704730EF00E045
:100CC00008B5094B094A002199600720DA60102114
:100CD00000F0A6F80A20202100F0A2F80B208021C5
:100CE000BDE8084000F09CB800ED00E00003FA0504
:100CF000202383F311881A4B5B6813F400631FD021
:100D0000F1EE10FAEFF30983164A4FF08071D268C2
:100D100043F8082C43F84C1CA3F1680282F30988BD
:100D200011498A69D07F70B10868916882688A42E7
:100D300094BF002201227AB10C4A43F8502C70472C
:100D400083F3118870470868916882688A4234BFCB
:100D500000220122002AEFD1054A43F8502C7047A7
:100D600000ED00E030EF00E0300E0020910C0008B4
:100D7000940C0008AFF30080AFF30080AFF3008065
:100D800008B5202383F3118800F0A2F8002383F331
:100D90001188BDE80840FFF7ABBF00BFAFF300808C
:100DA0002DE9F04F2DED108AC1F80CD0D0F80CD001
:100DB000BDEC108ABDE8F08FAFF30080AFF3008088
:100DC000002383F311882846A04700F0B9FA704742
:100DD00020F0030202F1604202F5614270B443095F
:100DE00000F00304D2F80053E400FF269B00A64065
:100DF00003F16043A14025EA060503F561430124A0
:100E000000F01F0004FA00F02943C2F8001370BC80
:100E1000C3F8800118607047AFF30080AFF3008023
:100E200020F0030303F1604303F56D4300F003007A
:100E300010B4C0009A69FF24844022EA0402814071
:100E4000114399615DF8044B704700BFAFF3008018
:100E5000024B034A9B699A61FEE700BF300E0020F7
:100E6000704B0008AFF30080AFF30080AFF3008059
:100E700000B583B0FFF724FF00F0DAF800F058F86F
:100E800000F02EFC00F064FC40210C4800F0B8F9A2
:100E90000B49012288610277002383F3118862B62F
:100EA00089690848886100934FF4B471064B07487C
:100EB00000F0CEF903B05DF804FB00BF6C0C00201D
:100EC000300E0020804B0008510E0008B80C0020A6
:100ED00070B5134B9B69DA7F0AB1013ADA771A6A67
:100EE000104C01321A62E36822680133A242E360C7
:100EF00014D09668013E966086B91168D568216065
:100F0000D66000234C6083F311881069A847202322
:100F100083F3118822689368002BEED070BD00BF68
:100F2000300E0020200E0020AFF30080AFF30080D1
:100F3000044B4FF0FF3100225B601B609960DA6068
:100F4000704700BF200E0020AFF30080AFF3008099
:100F500070B40C4E3468A5680361A942C26004D91C
:100F60002468491BA5688D42FAD363684360B44284
:100F7000046060601860816002D0A368591AA160A3
:100F800070BC7047200E0020AFF30080AFF30080EC
:100F9000074A0368934203D0996882680A449A60BA
:100FA00042681360016800234A60C360704700BF55
:100FB000200E0020AFF30080AFF30080AFF300807D
:100FC00010B4202383F31188037F0D2B11D8DFE8A1
:100FD00003F026101007100B101010101010100B3B
:100FE000426A93680133936090E80C001A600268CB
:100FF00053604FF0FF34002381680C4A446203774A
:10100000126893688B42FBD25168416002600023F2
:101010005060086083F311885DF8044B704700232B
:1010200083F311885DF8044B704700BF300E002039
:10103000034B00225B601B605B611B619A60704721
:10104000300E0020AFF30080AFF30080AFF30080DC
:1010500000228168084B10B4044602771B689A6826
:101060008A42FBD25A686260236020465C6014604A
:101070005DF8044B704700BF300E0020AFF30080D6
:10108000084B30B41A689969146808770125142050
:10109000C877636015771C60104630BC9A61FFF713
:1010A0007FBE00BF300E0020AFF30080AFF30080A2
:1010B00030B54B1C87B012D00C4C0D4AA3690546C5
:1010C00001A8FFF745FF2846FFF7DAFF049B13B19D
:1010D00001A8FFF75DFFA369586A07B030BD034C54
:1010E000FFF7CEFFA369586A07B030BD300E00206D
:1010F000C10F0008AFF30080AFF30080AFF30080B2
:10110000144BF0B49E6984680546B06869628442F5
:101110004FF000020BD82A771B689A689442FBD9DB
:101120005A686A602B605D601560F0BC704732776A
:101130001A46126891688842FBD954687460012786
:101140003260566026602F77314628469D61F0BC9C
:10115000FFF726BE300E0020AFF30080AFF3008013
:101160000E4A1068F0B403689469136001271426CE
:101170000025A1685A60077703469061E6772577D6
:1011800000E01B689A688A42FBD25A68626023605A
:1011900021465C601460F0BCFFF702BE300E0020F8
:1011A0000D4A106870B40368946913600126002525
:1011B000A1685A60067703469061257700E01B68B6
:1011C0009A688A42FBD85A686260236021465C6054
:1011D000146070BCFFF7E4BD300E0020AFF3008058
:1011E000034B9B69DB7F0BB1FFF7DABFFFF7B8BF9B
:1011F000300E0020AFF30080AFF30080AFF300802B
:101200002DE9F041114C016466694661002200F14C
:101210002C054FF002084FF0140C4FF0010E00F1B6
:1012200028078160046180F81C80606180F81FC01D
:1012300080F81EE04277C26382630262826130619D
:1012400087620563C562BDE8F08100BF300E0020F3
:101250002DE9F84F1E460446202383F31188DFF85A
:1012600070B00A9BDBF81470DFF868A064390144A1
:101270000025C1604FF0010C0E6400F1280E00F152
:101280002C064FF002094FF014084B64C1F860A01F
:101290008260C0F810B04761026480F81C9080F84A
:1012A0001F8080F81EC04577CBF81400C5638563A6
:1012B0000562856129463861C0F828E00663C66288
:1012C000FFF71EFF2B4683F311882046BDE8F88FF9
:1012D000300E0020C10D0008AFF30080AFF3008096
:1012E00008B50146202383F311880620FFF7E0FEAE
:1012F000002383F3118808BDAFF30080AFF30080B3
:1013000038B50E4B9C692546606255F8280FA842F7
:1013100006D00368A362FFF79BFEA06AA842F8D13B
:10132000637F9B0704D1636922691A612269536153
:101330000E20BDE83840FFF7A3BE00BF300E0020EE
:10134000202383F31188FFF7DBBF00BFAFF30080DA
:101350004060006081607047AFF30080AFF30080B1
:1013600003468068421E002A9A6001DB0020704715
:1013700010B461B1094A926953625C68032082E843
:1013800018005A6022605DF8044BFFF791BE986028
:101390005DF8044B4FF0FF30704700BF300E002067
:1013A00083680133002B836000DD704703681A688F
:1013B00002600021506018465962FFF749BE00BF25
:1013C0000023406000608360704700BFAFF300807F
:1013D00008B5836B027F1943082A81630BD0092A61
:1013E00000D008BD436A19408B42FAD1FFF730FEA6
:1013F0000023436208BD436A1942F7D108BD00BF0C
:1014000070B50468A04205460E4608D0201D0BC8E2
:101410003343E360FFF7DCFF2468A542F6D170BDDB
:1014200071B1094B9B6910B458624468024683E865
:1014300014000D20536023605DF8044BFFF738BEA5
:101440004FF0FF30704700BF300E0020AFF3008038
:1014500030B4029C046200250A4485600261406049
:10146000006041618161C160C36130BC704700BFF1
:10147000034640699A69904210B59A681BD00132C0
:10148000441C9A605C61017059691A6991420BD2DF
:10149000186898420DD002681A605360FFF7D8FDB3
:1014A00000234362184610BD1868DA685A619842F2
:1014B000F1D1002010BD002AE1D06FF0030010BD73
:1014C00070B520230E46044683F31188C3692BB1FF
:1014D000984703E0FFF7A4FF002815DBA568204626
:1014E0003146002DF6D0A2692169531C8B4205F1CB
:1014F000FF35A361A56028BFE368107828BFA3610A
:10150000002383F3118870BD2B4683F3118870BDCF
:101510002DE9F0471E46044689469246D0F81C80C5
:10152000202383F311880027B8F1000F05D020464F
:10153000C04702E0FFF774FFE0B9A56820463146D6
:10154000002DF7D0A369013D5A1CA261A5601B784C
:1015500009F8013B2369A2699A4224BFE368A361A9
:10156000002383F311880137BA4506D0202383F383
:101570001188D9E72B4683F311883846BDE8F087F8
:1015800030B4029C04628D18056140600060826086
:1015900041618161C160C36130BC7047AFF30080BD
:1015A000F8B504460F461646202383F3118803E05E
:1015B000FFF736FF002819DBA56820463146002DCD
:1015C000F6D06369013D5A1C6261A5601F702369F2
:1015D00062699A4224BFE3686361E3690BB1204604
:1015E0009847002383F311881846F8BD2B4683F3F0
:1015F0001188F8BDAFF30080AFF30080AFF3008037
:1016000038B5826943699342836818D00569511CD3
:10161000013383608161A94214780DD2026882424D
:1016200008D01168016003464B601046FFF710FDBB
:1016300000234362204638BDC3688361EEE7002B78
:10164000E4D06FF0020038BDAFF30080AFF300804C
:101650002DE9F84F9A4604460E461746D0F81C90DE
:10166000202383F311884FF00008A56806F1010BD1
:101670006A1E20460DB36369A2605A1C626132780B
:101680001A70236962699A4224BFE3686361B9F101
:10169000000F00D0C847002383F31188013F08F1F1
:1016A000010813D0202383F31188A5685E466A1EC3
:1016B00006F1010B2046002DDDD120465146FFF7F3
:1016C000AFFE0028D1D02B4683F311884046BDE8F9
:1016D000F88F00BFAFF30080AFF30080AFF300805E
:1016E000054A064B0648074922F0070223F0070384
:1016F00002600B60704700BFAF12002000C00120E5
:10170000500E00204C0E0020AFF30080AFF300809D
:1017100010B4202383F31188094C0A4B22681968FE
:10172000C31D23F00703891A8B429DBF9B182360BA
:1017300010460020002383F311885DF8044B7047A6
:10174000500E00204C0E0020AFF30080AFF300805D
:10175000044B054A1A6003F1100000229A60DA6017
:10176000FFF72EBE580E002011170008AFF30080BF
:1017700008B500F015FB084800F08AFE00F010F8EC
:1017800000F026F800F09CF800F00AF900F050F99B
:10179000BDE8084001F08CBA804C0008AFF300802F
:1017A00000F0B6BBAFF30080AFF30080AFF3008072
:1017B00000230122027043608360C36003614361C0
:1017C0001830FFF7FDBD00BFAFF30080AFF300801E
:1017D00000F07EBDAFF30080AFF30080AFF3008078
:1017E00038B50123002504460370456029460830BA
:1017F000FFF7AEFD294604F11400FFF7A9FD04F13F
:10180000200504F1240004F1280104F12C0204F164
:10181000300325626062A162E262236338BD00BFCB
:1018200038B504460D46202383F311880378022B34
:1018300006D106200121FFF73BFC2378022BF8D0CC
:10184000012B03D0002383F3118838BD6560204647
:1018500000F056FD03232370002383F3118838BD65
:101860002DE9F0411F4604460D469046202383F3A0
:10187000118800F114062378042B2946204602D053
:1018800000F07EFD50B930463946FFF769FD00286B
:10189000F1D0002383F31188BDE8F081204629466A
:1018A000424600F08DFD002383F311881846BDE801
:1018B000F08100BFAFF30080AFF30080AFF3008092
:1018C00001F016B8AFF30080AFF30080AFF30080F3
:1018D0000122002302704360704700BFAFF3008015
:1018E00010B52023044683F311888B88038141605F
:1018F00001F01EF802232370002383F3118810BD2A
:1019000008B5202383F3118801F00AF9002383F33B
:10191000118808BDAFF30080AFF30080AFF3008003
:101920000C30FFF7F5BD00BFAFF30080AFF30080D0
:101930000C304FF0FF33FFF7EBBD00BFAFF300807B
:101940003030FFF785BE00BFAFF30080AFF30080FB
:1019500030304FF0FF33FFF77BBE00BFAFF30080A6
:101960000C30FFF7ADBD00BFAFF30080AFF30080D8
:101970000C304FF0FF31FFF7A3BD00BFAFF3008085
:101980003030FFF70DBE00BFAFF30080AFF3008033
:1019900030304FF0FF32FFF703BE00BFAFF30080DF
:1019A00001F06EB9AFF30080AFF30080AFF30080B9
:1019B00070B50E4B044682B040F8043B01260094FB
:1019C0000B461546606004F1540104F10C002672C8
:1019D0001022FFF73DFD00942B4604F1300004F186
:1019E00064011022FFF7CCFD02B070BDA04B0008CF
:1019F00038B5436904460D463BB1294604F10C0055
:101A0000FFF736FD00280BDB38BD04300421FFF75B
:101A1000F7FC294604F10C00FFF72AFD0028F3DA51
:101A2000201D8021BDE83840FFF7EABCAFF30080FD
:101A300000F06EBEAFF30080AFF30080AFF3008024
:101A4000002301220270436083600C30FFF7B8BCB2
:101A500008B5074B074A196801F03D019960136802
:101A60000BB150689847BDE80840FFF741B900BF87
:101A700000600240780E0020AFF30080AFF30080DA
:101A8000084B094819688268890901F03D0110B5C1
:101A90008C019C600AB1C0689047BDE81040FFF718
:101AA00027B900BF00600240780E0020AFF300802D
:101AB000084B094819680269090C01F03D0110B58D
:101AC0000C049C600AB140699047BDE81040FFF7E4
:101AD0000FB900BF00600240780E0020AFF3008015
:101AE000084B094819688269890D01F03D0110B55C
:101AF0008C059C600AB1C0699047BDE81040FFF7B3
:101B0000F7B800BF00600240780E0020AFF30080FD
:101B100008B5074B07485968026A01F03D01D960D2
:101B20000AB1406A9047BDE80840FFF7E1B800BF3E
:101B300000600240780E0020AFF30080AFF3008019
:101B4000084B09485968826A890901F03D0110B5BE
:101B50008C01DC600AB1C06A9047BDE81040FFF715
:101B6000C7B800BF00600240780E0020AFF30080CD
:101B7000084B09485968026B090C01F03D0110B58A
:101B80000C04DC600AB1406B9047BDE81040FFF7E1
:101B9000AFB800BF00600240780E0020AFF30080B5
:101BA000084B09485968826B890D01F03D0110B559
:101BB0008C05DC600AB1C06B9047BDE81040FFF7B0
:101BC00097B800BF00600240780E0020AFF300809D
:101BD00008B5074B07481968026C01F03D01996090
:101BE0000AB1406C9047BDE80840FFF781B800BFDC
:101BF00000640240780E0020AFF30080AFF3008055
:101C0000084B09481968826C890901F03D0110B53B
:101C10008C019C600AB1C06C9047BDE81040FFF792
:101C200067B800BF00640240780E0020AFF3008068
:101C3000084B09481968026D090C01F03D0110B507
:101C40000C049C600AB1406D9047BDE81040FFF75E
:101C50004FB800BF00640240780E0020AFF3008050
:101C6000084B09481968826D890D01F03D0110B5D6
:101C70008C059C600AB1C06D9047BDE81040FFF72D
:101C800037B800BF00640240780E0020AFF3008038
:101C900008B5074B07485968026E01F03D01D9604D
:101CA0000AB1406E9047BDE80840FFF721B800BF79
:101CB00000640240780E0020AFF30080AFF3008094
:101CC000084B09485968826E890901F03D0110B539
:101CD0008C01DC600AB1C06E9047BDE81040FFF790
:101CE00007B800BF00640240780E0020AFF3008008
:101CF000084B09485968026F090C01F03D0110B505
:101D00000C04DC600AB1406F9047BDE81040FEF75C
:101D1000EFBF00BF00640240780E0020AFF30080E8
:101D2000084B09485968826F890D01F03D0110B5D3
:101D30008C05DC600AB1C06F9047BDE81040FEF72B
:101D4000D7BF00BF00640240780E0020AFF30080D0
:101D50000D4B30B400220D4D0D4C1A601146134648
:101D6000A858016044F833100133102B02F10C0223
:101D7000F6D10849084A4FF0FF338B6030BCCB6086
:101D80009360D360704700BFF80E0020C04B00087E
:101D9000780E00200060024000640240AFF3008033
:101DA000204B21491A694FF0FF300022F0B518612D
:101DB0001A615C6958615A611C6A1C4FDFF878E04F
:101DC0001B4E1C4D64F080541C621A620724D3F829
:101DD00024C058625A62C1F804E08A600C60F96855
:101DE00041F08071F960316841F001013160196C96
:101DF00041F080511964296841F480712960196F9C
:101E000001F44071B1F5007F03D04FF480311967C0
:101E10001A67084A536823F400735360BDE8F04022
:101E2000FFF796BF0038024010E000E0F0ED00E060
:101E3000001000E0007000403F900200AFF300800F
:101E40002C492D4B4FF080504FF4404208641A60EB
:101E50000B6843F001030B600A68264B9007FBD523
:101E60009A6822F003029A609A689A6019468B6811
:101E7000204A13F00C03FAD1116801F0F901116046
:101E80009360136843F4803313601168194B89031E
:101E9000FBD55A6F42F001025A675A6F15499007F5
:101EA000FBD5164B4B600B68134A43F080730B60F5
:101EB00053685904FCD50F490A680E4B9201FBD5B3
:101EC0000F4A1049996040F2057111609A6842F01A
:101ED00002029A601A469368064903F00C03082B25
:101EE000F9D14B6C43F480434B644B6E43F4804315
:101EF0004B667047003802400070004008544007AD
:101F0000003C024000940838AFF30080AFF300803B
:101F100010B5084C2046FFF74BFC0749074A084B11
:101F2000A162E262236312206021BDE81040FEF747
:101F30004FBF00BFFC0E002000200140504C0008A5
:101F4000162C0200AFF30080AFF30080AFF30080E7
:101F5000C16A0A68136823F01F031360136813F043
:101F60000103FBD130B40D7A4C68826A3D21A9404F
:101F700001202160536030BC93609060704700BFC7
:101F80001A4B1A680021196093062CD510B5184C0D
:101F9000E36A1B685B6813B3236903B32046FFF74A
:101FA000D7FF23699B684BB105222270204601218F
:101FB00098472378052B04BF022323700022226157
:101FC0000B49202383F31188606928B14FF0FF3358
:101FD00043624A61FFF73CF8002383F31188BDE8B0
:101FE0001040FEF785BEFEF783BE00BF0020014013
:101FF000FC0E0020AFF30080AFF30080AFF3008051
:10200000F0B5434C434D236C43F000732364D5F883
:1020100000321B0C1B0443F0010343EA0023C5F804
:10202000003200294ED00023C5F81C321846C5F8EE
:1020300004321C46C5F80C32C5F81432C30003F153
:10204000804303F5C84301301C28C3F84042C3F85D
:102050004442F3D12F480026012715681479EB007C
:1020600003F1804314F0010F03F5C84306F10106A4
:1020700007FA05F505D0D0F804E245EA0E0EC0F8DF
:1020800004E214F0020F05D0D0F80CE245EA0E0E7F
:10209000C0F80CE2640704D5D0F814422C43C0F811
:1020A00014429468C3F84042D468C3F84442D0F85C
:1020B0001C328E4243EA050302F11002C0F81C32C2
:1020C000CBD118E0C20002F18042012302F5C842E0
:1020D000834043F00103C5F84012C5F84412C2F82A
:1020E0004012C2F84412C5F80412C5F81412C5F81B
:1020F0000C32C5F81C320749054AD1F8003223F0EA
:102100000103C1F80032136C23F000731364F0BDB7
:102110000038024000640040AFF30080AFF300805D
:1021200010B50D4C0D49626B2023916083F311882B
:102130002369002B05DA0A48FFF732F92369002BDF
:10214000F9DB08480121FFF75BF9002383F31188CD
:10215000BDE81040FEF7CCBD300F002001010100AA
:10216000380F0020540F0020AFF30080AFF3008041
:1021700038B5174C636BDD68AA0716D05A6922F090
:1021800002025A61202383F31188E369002B05DAE8
:102190001048FFF705F9E369002BF9DB0E48012130
:1021A000FFF72EF9002383F31188EB060BD5636B41
:1021B0001021D960202383F311880848FFF720F904
:1021C000002383F31188BDE83840FEF791BD00BFBE
:1021D000300F0020440F0020500F0020580F002027
:1021E00038B5174C636B1D69AA0716D05A6922F0DF
:1021F00010025A61202383F31188E369002B05DA6A
:102200001048FFF7CDF8E369002BF9DB0E480221F7
:10221000FFF7F6F8002383F31188EB060BD5636B09
:1022200010211961202383F311880848FFF7E8F88B
:10223000002383F31188BDE83840FEF759BD00BF85
:10224000300F0020440F0020500F0020580F0020B6
:1022500038B51B4D6A6B54681C23210753601DD48D
:10226000630717D56B6B9A69996921F070019961C1
:1022700012F0700F02F0070118BF41F0080120238F
:1022800083F311880F4841EA0241FFF7B9F80023B0
:1022900083F31188BDE83840FEF72ABD116828464F
:1022A00021F00201032300F8303B2023116083F367
:1022B00011880021FFF7A4F8002383F31188CFE7EA
:1022C000300F0020580F0020AFF30080AFF30080E4
:1022D00010B5064C2046FFF783FA0021044B6363D8
:1022E0000A460E20BDE81040FFF78ABE300F0020DE
:1022F00000640040AFF30080AFF30080AFF30080D4
:10230000194B984210B5044617D0636B0221012285
:1023100021701A605A68D10707D406200121FEF700
:10232000C7FE636B5A68D207F7D562680F495068D9
:102330001268D8611A60596110BD1320B021FEF7F0
:1023400047FD1420B021FEF743FD1520B021FEF714
:102350003FFD1620B021FEF73BFD054A136C43F00C
:1023600000731364D1E700BF300F00205B8F0100C2
:1023700000380240AFF30080AFF30080AFF300807D
:10238000012911D00AD3022906D1436B186910F034
:10239000030018BF0120704700207047436BDA68C4
:1023A0009207F3D001207047436BD86810F0030008
:1023B00018BF0120704700BFAFF30080AFF300806B
:1023C00010B4002930D1436BD968890733D0D3F8D2
:1023D000B041D3F8B411D3F8B831D360436BD3F81C
:1023E000BC311361436B2020D860D868800741D08E
:1023F0001379C4F3400060F30413C4F3800060F366
:10240000451313719B062FD59368E40864F31C03EE
:10241000936013795DF8044B080A61F30303090C18
:102420001371107051807047012928D0022928D0DB
:102430005DF8044B704719698C07F9D0D3F8C04197
:10244000D3F8C411D3F8C831D360436BD3F8CC317F
:102450001361436B2020186118698007C8D158693F
:1024600040F010005861C3E71389640D64F30A0358
:102470001381CEE7586940F002005861B8E7436B1A
:10248000A5E7436BDAE700BFAFF30080AFF300804E
:102490002DE9F04FDFF8B481DFF8B4C1D8F830A0EF
:1024A000DFF8B0E1634F644E644D654C6549664AA0
:1024B000DFF8A4B140F2FF194AEA090AC8F830A0CF
:1024C000D8F850A04AEA0909C8F850904368CCF8F7
:1024D00004308368CCF80830C368CCF80C3003694A
:1024E000CCF814304369CCF820308369CCF8243020
:1024F0000368CCF80030036ACEF80430436ACEF8A3
:102500000830836ACEF80C30C36ACEF81430036BFF
:10251000CEF82030436BCEF82430C369CEF80030BB
:10252000C36B7B60036CBB60436CFB60836C7B6143
:10253000C36C3B62036D7B62836B3B60876D77602E
:10254000C76DB760076EF760476E7761876E376259
:10255000C76E7762476D3760466F6E60866FAE609C
:10256000C66FEE60D0F880606E61D0F884602E6235
:10257000D0F888606E62066F2E60D0F8905065606B
:10258000D0F89450A560D0F89850E560D0F89C50F1
:102590006561D0F8A0502562D0F8A4506562D0F8EB
:1025A0008C502560D0F8AC404C60D0F8B0408C60C6
:1025B000D0F8B440CC60D0F8B8404C61D0F8BC4002
:1025C0000C62D0F8C0404C62D0F8A8400C60D0F843
:1025D000C8105160D0F8CC109160D0F8D010D16004
:1025E000D0F8D4105161D0F8D8101162D0F8DC10B6
:1025F0005162D0F8C4101160D0F8E420CBF8042068
:10260000D0F8E820CBF80820D0F8EC20CBF80C204C
:10261000D0F8F020CBF81420D0F8F420CBF820200C
:10262000D0F8F820CBF82420D0F8E020CBF8002018
:10263000BDE8F08F00080240000C0240001002408C
:102640000014024000180240001C02400038024002
:10265000000002400004024000200240AFF300806E
:102660002DE9F04F4FF00F0C02F0030EC2F380077C
:10267000C2F3C106C2F341150024C2F3C3124FF0E6
:1026800001094FF003082BE0D0F820B02BEA030338
:1026900043EA0A030362436809FA04FA23EA0A03D5
:1026A0003B4343604FEA440A836808FA0AFA6FEA38
:1026B0000A0A0AEA030333438360C3680AEA03038E
:1026C0002B43C36003680AEA030343EA0E03036073
:1026D000490819D07F00B600AD004FEA8E0E0134D4
:1026E00004F007039B0011F0010F02FA03FA0CFA41
:1026F00003F3EDD0072CC7D9D0F824B02BEA03039D
:1027000043EA0A034362C6E7BDE8F08FAFF30080F7
:1027100010B50A4C0A4B4FF6FF7220461A80FFF79D
:102720008FF9084B08480949094AE06103F10C0098
:1027300023626062A162E26210BD00BF6C0F0020E4
:10274000680F0020E44B000800380040160001002C
:1027500046000100AFF30080AFF30080AFF30080CC
:1027600008B50648064A43686FF001019B6811618D
:102770009847BDE80840FEF7BBBA00BF9C0F002099
:1027800000000140AFF30080AFF30080AFF30080A2
:10279000134B10B51A69DC681440A4B2E2B2D243FC
:1027A000A0071A6117D4610710D4220709D4E306E1
:1027B00003D50C4843689B6A9847BDE81040FEF774
:1027C00097BA084843681B6A9847F0E7054843688A
:1027D0009B699847E9E7034843681B699847E2E724
:1027E000000001409C0F0020AFF30080AFF3008099
:1027F00038B5174D2A691469D368DBB21C40E3432E
:102800001361A3071ED4600717D4210710D4E20672
:1028100009D4E30703D56B680D489B689847BDE86A
:102820003840FEF765BA6B6809489B6A9847F0E73D
:102830006B6807481B6A9847E9E76B6804489B691F
:102840009847E2E76B6828461B699847DBE700BFBB
:10285000B00F0020AFF30080AFF30080AFF3008033
:1028600008B50648064A43686FF001019B6811618C
:102870009847BDE80840FEF73BBA00BFC40F0020F0
:1028800000040140AFF30080AFF30080AFF300809D
:10289000134B10B51A69DC681440A4B2E2B2D243FB
:1028A000A0071A6117D4610710D4220709D4E306E0
:1028B00003D50C4843689B6A9847BDE81040FEF773
:1028C00017BA084843681B6A9847F0E70548436809
:1028D0009B699847E9E7034843681B699847E2E723
:1028E00000040140C40F0020AFF30080AFF300806C
:1028F00070B50A4E0A4D0B4C3046FEF7E9FF0A4B05
:1029000033612846FEF7E4FF4FF0804320462B61F9
:10291000FEF7DEFF054B236170BD00BF9C0F00205A
:10292000B00F0020C40F002000000140000401404F
:10293000F8B50378012B044600F0828003696F4EDE
:1029400000221A605A639A63DA631A645A626168F1
:102950002589CF68E2680868B2FBF0F0013D0138D4
:1029600007F00F02D1F82CE080B2ADB2012A9862D4
:10297000DD62C3F804E003D0022A0CBF0322002268
:10298000D1F814E00EF00F00012851D002284DD0EC
:10299000CD6905F00F00012824D0022820D0486A14
:1029A00000F00F00012824D0022844D0B44224D0E3
:1029B0005348844221D0486B8C68096B1A6220F01E
:1029C000FF02002C18BF42F0010241F40041012532
:1029D000002485205D611C61DA6059641860F8BDCF
:1029E00042F40072486A00F00F00012842F480723D
:1029F000DAD142F48052B442DAD107F0F007102F56
:102A00002FD0202F2BD00EF0F00EBEF1100F2FD0B4
:102A1000BEF1200F2FD005F0F005102D03D0202D92
:102A2000C9D142F4006242F48062C4E742F020025D
:102A300042F01002ACE742F4005242F48052DAE76E
:102A40002E4EB04232D02F4B984245D02C4B98425C
:102A500016D0236946F668029A61DA6177E742F098
:102A600008020EF0F00EBEF1100F42F00402CFD1BA
:102A700042F04002CFE742F0800242F04002CAE753
:102A8000214B5A6C42F002025A645A6A002142F009
:102A900002025A622C2059627021FEF799F92E2009
:102AA0007021FEF795F9194BE360D2E7164B5A6C8B
:102AB00042F001025A645A6A002142F001025A624D
:102AC000192059627021FEF783F91B207021FEF74F
:102AD0007FF90E4BE360BCE70B4B1A6C42F001022E
:102AE0001A641A6A002142F001021A621C2019625B
:102AF0007021FEF76DF9064BE360AAE79C0F0020FA
:102B0000C40F0020B00F002000380240007A030AF2
:102B100000BD0105AFF30080AFF30080AFF300808C
:102B2000436810B4046903EBC10001F10C030069B0
:102B300004EB83035A6040B10223E2688B401342E6
:102B400003D11A43DB43E26023615DF8044B704715
:102B5000034A93899BB243F080039381704700BF7F
:102B600000440040AFF30080AFF30080AFF300807B
:102B7000F8B53E4E756FAB892C88A4B29FB2E305C1
:102B800045D4202383F31188A00621D508E0A98825
:102B90003648C9B2FEF72CFF2C88A4B2A00617D580
:102BA0002207F4D014F0080F14BF8021002114F084
:102BB000010F18BF41F02001A30748BF41F04001B9
:102BC00064072B4848BF41F48071FEF719FCDEE72B
:102BD000002383F31188390601D5220626D4630623
:102BE00011D5202383F31188726CB36C1F489A426D
:102BF0002AD027F040039BB24FF6BF72AB8100236F
:102C00002A8083F31188BDE8F840FEF771B82023CD
:102C100083F311884FF40071301DFEF7F1FB0023A0
:102C200083F311884FF6FF632B80AAE7202383F3F9
:102C300011881048FEF7E4FC00280DDB80B2A88064
:102C4000002383F31188CAE7836B002BD1D00430B3
:102C50001021FEF7D5FBCCE705480821FEF7D0FB95
:102C600027F0C00343F04003AB81E9E7D80F002011
:102C7000DC0F002008100020AFF30080AFF30080CD
:102C800010B5044C044A20460021FEF791FE034B88
:102C9000636710BDD80F0020512B0008004400408E
:102CA000FFF7CEB8AFF30080AFF30080AFF3008042
:102CB000704700BFAFF30080AFF30080AFF3008038
:102CC0002DE9F04F2DED028BDFF884B29A4D9B4C2D
:102CD0008DB007AA00214FF0FF339948FEF7C0FDE1
:102CE000984A536983F480535361BDF92AA0BDF912
:102CF0002870BDF82EC0CDF814C08AEAEA70A0EBA7
:102D0000EA7087EAE773A3EBE77310FB00F013FBAD
:102D10000300FDF7E7FB41EC100B00F081F9504692
:102D200059EC108BFDF7DEFB41EC180B3846FDF734
:102D3000D9FBB0EE480AF0EE680A41EC110B00F046
:102D400067F979A1D1E9000153EC102BFDF77CFA6A
:102D500041EC180BFDF7CCFE00B2FDF7C3FB41ECD4
:102D6000100B00F0FDF842464B4651EC100BFDF7FE
:102D70001FFCB0EE480AF0EE680A06460F4600F067
:102D8000EFF8424651EC100B4B46FDF711FC0022C8
:102D9000804689466C4B30463946FDF709FC64A3F2
:102DA000D3E90023FDF72EFD684B0022FDF74EFA14
:102DB000FDF79EFEBBF8082080B200FB02F084FB0A
:102DC0000032C017C0EB223292B261480021FEF7F8
:102DD00097FD4046494600225B4BFDF7E9FB54A3B3
:102DE000D3E90023FDF70EFD584B0022FDF72EFA24
:102DF000FDF77EFEBBF80820CDF8008080B200FB16
:102E000002F084FB0032C017C0EB223209F100430C
:102E100092B24F4801930121FEF772FDDDE90001F6
:102E20000022494BFDF7C4FB41A3D3E90023FDF782
:102E3000E9FC464B0022FDF709FAFDF759FEBBF805
:102E40000820029680B200FB02F084FB0032C0171B
:102E5000C0EB223207F1004392B23D4803930221B6
:102E6000FEF74EFDDDE902010022374BFDF7A0FB26
:102E70002FA3D3E90023FDF7C5FC0022334BFDF758
:102E8000E5F9FDF735FE334B1A8980B200FB02F0FD
:102E900084FB0032C017C0EB2232002192B22D48D1
:102EA000FEF72EFDDDF814C02B8923480FFA8CF6AF
:102EB000002EB8BF0336B61006F2EE26B6B206FBF9
:102EC00003F384FB0312DB17C3EB2232002192B21F
:102ED000FEF716FD2B89184803FB06F384FB03124B
:102EE000DB17C3EB2232012192B2FEF709FD2B89D9
:102EF000114803FB06F384FB0312DB17C3EB2232FA
:102F000092B20221FEF7FCFC2A890B4802FB06F66E
:102F100084FB0632F617C6EB223292B20321FEF78B
:102F2000EFFCD6E6AFF3008000000060FB21E93F34
:102F30000000000000189640C40F0020AD8BDB6835
:102F4000300F0020000C024000406F4000708740AE
:102F50009C0F0020B00F0020AFF30080AFF3008083
:102F600000B551EC100B264A21F00043934285B086
:102F700020DD244A934209DD10EE102A0B46FDF7AE
:102F800063F941EC100B05B05DF804FB684600F0F6
:102F9000BFF900F0030001289DED000B9DED021B21
:102FA00020D0022811D000B3012001F0F1F951EC3A
:102FB000100BE6E79FED101B00F0AAFC51EC100B84
:102FC00041EC100B05B05DF804FB00F0A1FC53ECE4
:102FD000102B10EE100A03F1004141EC100B05B06C
:102FE0005DF804FB01F0D4F9F1E700F091FC51EC3D
:102FF000100BC6E7AFF300800000000000000000E7
:10300000FB21E93FFFFFEF7F000000000000000010
:1030100000F066B8000000000000000000000000A2
:10302000D0B52DED048BB0EE409AF0EE609A294CAD
:103030008AB000F095FB94F90030B0EE408AF0EED3
:10304000608A01330FD0B0EE490AF0EE690A01F050
:10305000B7FC40B10026002751EC190B32463B4625
:10306000FDF71EFD38B9B0EE480AF0EE680A0AB066
:10307000BDEC048BD0BD184B2478019301220023B2
:103080008DED049B8DED029B009208936CB9CDE908
:103090000667684601F0C4FC88B1089BA3B99DEDA2
:1030A000060B0AB0BDEC048BD0BD30463946324623
:1030B0003B46FDF7A7FB022CCDE90601E9D101F063
:1030C0004FFD21230360E8E701F04AFD089B036000
:1030D000E5E700BF38080020904D00080000000020
:1030E0002DE9F04757EC116B7342334327F0004C46
:1030F00083484CEAD373834211EE102A394655ECCB
:10310000104B51D86342234325F0004A4AEAD37357
:10311000834210EE10EAA94646D807F1404303F572
:10312000801333435CD04FEAA77808F002085AEACC
:10313000040348EAD57841D05CEA020349D0704BD9
:103140009C455BD06E4B9A4543D0CCEB0A0C4FEAC2
:103150002C5CBCF13C0F4DDC0029C0F2858032466E
:103160003B4620462946FDF74DFB41EC100B01F094
:103170008FFB01F0D5F951EC100BB8F1010F6DD0B8
:10318000B8F1020F5AD0B8F1000F53D046A3D3E9DB
:103190000023FDF759F846A3D3E90023FDF754F8BF
:1031A00041EC100BBDE8F0873046394622462B46ED
:1031B000FDF74CF841EC100BBDE8F087B8F1030FB8
:1031C000BAD8DFE808F0151502119FED390BBDE8FC
:1031D000F087B9F1000F29DB9FED370BBDE8F087D1
:1031E000BDE8F04701F09CB99FED350BBDE8F087D5
:1031F000BDE8F08730A1D1E90001BEE7E2453AD051
:10320000B8F1030F9ED801A353F828F01D3200082F
:1032100025320008CB310008E93100089FED2A0B68
:10322000BDE8F0879FED2A0BBDE8F0879FED2A0BE4
:10323000BDE8F08741EC100BBDE8F0871AA3D3E995
:103240000023FDF701F802460B4619A1D1E9000160
:10325000FCF7FAFF41EC100BBDE8F08701F10041EB
:1032600041EC100BBDE8F0871CF13C0FBFF677AFC7
:103270000020002181E7B8F1030FAAD8DFE808F0A9
:10328000020E0A069FED160BBDE8F0879FED160BA8
:10329000BDE8F0879FED160BBDE8F0879FED160B9C
:1032A000BDE8F087AFF30080075C143326A6A13C8D
:1032B000182D4454FB210940182D4454FB21F93F9B
:1032C000182D4454FB2109C000000000000000003C
:1032D0000000000000000080182D4454FB21F9BFBD
:1032E000182D4454FB21E93FD221337F7CD902C001
:1032F000D221337F7CD90240182D4454FB21E9BFF1
:103300000000F07FAFF3008000000000000000002C
:103310002DE9F04F53EC102B9B4923F000448C42D5
:103320008FB09A46054640F3888098498C422BDC42
:10333000BAF1000F194610EE100A89A3D3E9002351
:1033400040F3A881FCF780FF914B9C4206460F4654
:1033500000F08B8084A3D3E90023FCF775FF0246BD
:103360000B46C5E9002330463946FCF76DFF7EA3C6
:10337000D3E90023FCF768FF4FF0010BC5E9020118
:1033800058460FB0BDE8F08F82498C4240F38B80E5
:1033900081498C425DDC4FEA245BABF2164B10EEA8
:1033A000100AA4EB0B5190468946FDF7A1FBFDF7EF
:1033B00099F806460F4632463B4640464946CDE917
:1033C0000867FCF741FF0022744BFDF7F1F88946CE
:1033D0008046FDF78DFBFDF785F806460F46324621
:1033E0003B4640464946CDE90A67FCF72DFF0022DF
:1033F0006A4BFDF7DDF800220023CDE90C01FDF753
:1034000045FB002800F06F8100233046394600223A
:10341000FDF73CFB002814BF012302230222604970
:10342000009201915A4608A8294600F0B1FBBAF172
:10343000000FC0F24D81834607E00020002185ED9A
:10344000000BC5E902014FF0000B58460FB0BDE874
:10345000F08F10EE100A1946FCF7F6FE4FF0000B45
:10346000C5E90201C5E90001EFE741A3D3E9002363
:10347000FCF7EAFE40A3D3E9002306460F46FCF71B
:10348000E3FE02460B46C5E9002330463946FCF709
:10349000DBFE39A3D3E90023FCF7D6FE4FF0010B86
:1034A000C5E90201D1E701F0F3F957EC106B10EE1A
:1034B000100A33A3D3E900233946FDF779F8002237
:1034C000384BFCF7C3FEFDF713FB8346FDF70AF804
:1034D00023A3D3E90023CDE90401FDF769F80246EF
:1034E0000B4630463946FCF7AFFE1FA3D3E9002355
:1034F00006460F46DDE90401FDF75AF8BBF11F0F40
:10350000CDE902013046394650DC274B0BF1FF3242
:1035100053F82230A34249D0DDE90223FCF794FEA0
:1035200080468946C5E9008942464B4630463946C1
:10353000FCF78AFEDDE90223FCF786FEBAF1000FF4
:10354000C5E9020181DA09F1004401F10043CBF140
:10355000000BC5F800806C60A860EB6075E700BFE9
:1035600000004054FB21F93F3163621A61B4D03D41
:103570000000601A61B4D03D7370032E8A19A33B1A
:1035800083C8C96D305FE43FFB21E93F7BD902402E
:10359000FB21F93FFB213941FFFFEF7F0000704124
:1035A000204E00080000E03FA04D0008DDE90223A6
:1035B000FCF74AFE2415C1F30A53E31A80468946F4
:1035C000102BC5E90089AFDD5BA3D3E90023DDE95A
:1035D0000401FCF7EDFF8046894642464B463046E3
:1035E0003946FCF731FECDE90601DDE90623304618
:1035F0003946FCF729FE42464B46FCF725FE50A310
:10360000D3E9002306460F46DDE90401FCF7D0FFAD
:1036100032463B46FCF718FECDE90201DDE9022304
:10362000DDE90601FCF710FEC1F30A53E41A8046F7
:103630008946312CC5E9008975DD44A3D3E900230F
:10364000DDE90401FCF7B4FF8046894642464B465B
:10365000DDE90601FCF7F8FD06460F4632463B461B
:10366000DDE90601FCF7F0FD42464B46FCF7ECFDB8
:1036700038A3D3E9002380468946DDE90401FCF73D
:1036800097FF42464B46FCF7DFFDCDE9020130468D
:10369000394641E7FCF7DAFD2B4B9C4206460F46C4
:1036A00023D023A3D3E90023FCF7D0FD02460B4629
:1036B000C5E9002330463946FCF7C6FD1CA3D3E913
:1036C0000023FCF7C3FD4FF0FF3BC5E90201BCE658
:1036D0006A68EB6802F1004203F10043C0F1000B9D
:1036E0006A60EB60B1E6032398E613A3D3E90023F5
:1036F000FCF7ACFD12A3D3E9002306460F46FCF706
:10370000A5FD02460B46C5E9002330463946FCF7C5
:103710009BFD0BA3D3E90023FCF798FD4FF0FF3B83
:10372000C5E9020191E6DDE90667FDE6AFF3008039
:103730003163621A61B4D03D0000601A61B4D03DBB
:103740007370032E8A19A33BFB21F93F0000002E62
:103750008A19A33BC14920259A837B39AFF30080A6
:103760002DE9F041674955EC104B0E462940B14216
:103770002B4610EE100A00F09880002D224677DDCF
:103780002F1500F08280A7F2FF37C3F31303F90768
:1037900043F4801367D4D10F002601EB43037F105D
:1037A0005200B64616204FF400110EEB01049C4265
:1037B0004FEAD2754FEA420203DC1B1B04EB010EF9
:1037C0000E44013805EB43034FEA5101EDD1844625
:1037D00020254FF000410AE0734521D0D40F013D70
:1037E0004FEA510104EB43034FEA420221D09E45C8
:1037F0000CEB0104F0DA002C04EB010C0ADBF046C0
:10380000CEEB0303944288BF03F1FF33121B08443D
:10381000C646E3E7BCF1000FF1DB0EF10108EFE76C
:1038200094421ED8002C04EB010C4EDB984600237A
:10383000ECE7134304D0421C4DD000F001031844C0
:1038400040087110F30701F17F5101F5001148BFE5
:1038500040F0004001EB0753024643EC102BBDE85B
:10386000F0819E46BAE7D10F01EB4303520092E785
:1038700025F00041214326D0A5BB2F46D30A153F92
:103880005205002BFAD0DC0228D400215B00D802BC
:1038900001F10101FAD5C1F10100C1F1200422FAC0
:1038A00004F4234307448A406DE710EE102A2B46A8
:1038B0002946FCF77DFE22462B46FCF7C7FC41EC6F
:1038C000100BBDE8F081BDE8F081BCF1000FA4DA77
:1038D000F04600239AE701362846B2E7202401206B
:1038E0000021DCE710EE100A22462B462946FCF7A1
:1038F000ABFC02460B46FCF785FF41EC100BBDE824
:10390000F08100BF0000F07F000000000000000018
:103910002DE9F04F57EC106B2DED028BB0EE418A84
:10392000F0EE618A27F00049B9F1795F83B010EEBB
:10393000100A39466FDAFDF7DBF8002800F0F38053
:1039400032463B4630463946FCF732FE7AA3D3E98D
:10395000002304460D46FCF72BFE79A3D3E9002390
:10396000FCF774FC22462B46FCF722FE76A3D3E933
:103970000023FCF769FC22462B46FCF719FE74A3D2
:10398000D3E90023FCF762FC22462B46FCF710FE2D
:1039900071A3D3E90023FCF757FC22462B46FCF722
:1039A00007FE6FA3D3E90023FCF750FC22462B4609
:1039B000FCF7FEFD82468B462046294600226E4BD0
:1039C000FCF7F6FD5246804689465B46204629466E
:1039D000FCF7EEFD53EC182B04460D4630463946F5
:1039E000FCF7E6FD02460B4620462946FCF72CFC78
:1039F00002460B4640464946FCF726FC02460B466B
:103A000000205E49FCF720FC41EC100B03B0BDEC3C
:103A1000028BBDE8F08F10EE102A3B46FCF7C8FD84
:103A200045A3D3E9002304460D46FCF7C1FD44A39A
:103A3000D3E90023FCF70AFC22462B46FCF7B8FD2D
:103A400041A3D3E90023FCF7FFFB22462B46FCF7FA
:103A5000AFFD3FA3D3E90023FCF7F8FB22462B463A
:103A6000FCF7A6FD3CA3D3E90023FCF7EDFB2246BF
:103A70002B46FCF79DFD3AA3D3E90023FCF7E6FBB8
:103A80002B462246FCF794FD3D4B994582468B46DA
:103A900092DD3C4B99453DDC0022A9F50013002046
:103AA000364990469946FCF7CFFBCDE90001204608
:103AB00029460022304BFCF77BFD42464B46FCF783
:103AC000C3FB5246804689465B4620462946FCF7A2
:103AD0006FFD53EC182B04460D4630463946FCF773
:103AE00067FD02460B4620462946FCF7ADFB024621
:103AF0000B4640464946FCF7A7FB02460B46DDE96C
:103B00000001FCF7A1FB41EC100B03B0BDEC028BF4
:103B1000BDE8F08F9FED147B4FF000088DED007B2A
:103B2000DFF86490C3E79FED120B03B0BDEC028B8E
:103B3000BDE8F08FAFF30080D43888BEE9FAA8BDA5
:103B4000C4B1B4BD9EEE213EAD529C804F7E923EEC
:103B50009015CB19A001FA3E7751C1166CC1563FA2
:103B60004C5555555555A53F000000000000E73F56
:103B7000000000000000F03F0000E03F0000F03FC8
:103B80003233D33F0000E93F0000D23FAFF3008063
:103B90002DE9F04FADF51B7D7B4CA49E7B4D54F879
:103BA000264007942646D41E85FB0475E417C4EB13
:103BB000A50424EAE4741D460A93E34303EB43039C
:103BC000013D02EBC30306932B460B940095651B46
:103BD0009C190390089116D42C44013422AEA59F61
:103BE00008E057F82500FCF77DFC0135A542E6E822
:103BF000020108D0002DF4DA013500200021A54291
:103C0000E6E80201F6D1079B002B2ADB079B03F1B4
:103C1000010A0A9B22AF07EBCA0A0DF5E4784FEAC6
:103C2000C30B3D46009B002BC0F28781DDF80C9052
:103C300005EB0B040026002774E90223F9E80201D2
:103C4000FCF7B6FC02460B4630463946FCF7FEFA56
:103C5000A54206460F46EFD108355545E8E802670C
:103C6000E0D1079D0A9A05F18043013B9B000EA815
:103C7000191DC2EB4272034401440C93D3000D9111
:103C80000593EC009AAB2344002D53E9286728DD07
:103C90000DF5E47B5C440DF1340A00223C4B3046C8
:103CA0003946FCF785FCFCF723FFFCF71BFC0022E0
:103CB000384B80468946FCF77BFC02460B46304673
:103CC0003946FCF7C1FAFCF713FF74E902234AF8FE
:103CD000040F49464046FCF7B9FA5C4506460F46D4
:103CE000DBD1069C47EC106B204600F0A1FE57ECA0
:103CF000106B00224FF07F5310EE100A3946FCF78C
:103D000057FC41EC100B00F0CBFD002251EC100BE6
:103D1000214BFCF74DFC02460B4630463946FCF77A
:103D200093FA0F460646FCF7E3FE8046FCF7DAFB03
:103D300002460B4630463946FCF786FA002C06460A
:103D40000F4640F3E180691E0EABC4F1180253F830
:103D5000213043FA02F000FA02F9C4F117020EAC66
:103D6000C9EB030344F82130804443FA02F9B9F166
:103D7000000F3DDD002D08F1010840F3788200229C
:103D800014460DA912E000BF304F0008ABAAAA2AC2
:103D90000000703E0000704100002040C3F18070C0
:103DA0000BB108600124013295420DDD51F8043F4A
:103DB000002CF3D0C3F1FF13013203F57F4395428A
:103DC0000B604FF00104F1DC069B002B0DDD012B95
:103DD00000F0A280022B08D16A1E0EAB0EA953F888
:103DE0002230C3F3150341F82230B9F1020F73D02A
:103DF0003046394600220023FCF748FE002800F038
:103E0000B880079B05F1FF3A53450DDC0EAB0D98CA
:103E100003EB8503002253F8041D834242EA0102AA
:103E2000F9D1002A40F00882079B0EAA013B52F804
:103E30002330002B40F019820C9A012352F8041D04
:103E400001330029FAD0EB1805F1010A9A450993CC
:103E500040DC0B9B0A9A0AEB0309099B09F1804994
:103E60001946A59B09F1FF39154401EB020B03EB41
:103E7000890922AB03EBC50803EBCB03049372ABB8
:103E800003EBCA0A59F8040FFCF72CFB009B002B2C
:103E9000E8E802014FF000064FF0000715DB059B34
:103EA000DDF80CB008EB0305444674E90223FBE897
:103EB0000201FCF77DFB02460B4630463946FCF713
:103EC000C5F9AC4206460F46EFD1049B9845EAE897
:103ED0000267D7D1099DD4E632463B460020BE4951
:103EE000FCF7B2F906460F46002C81D006989FEDEC
:103EF000B80B00F09DFD3046394653EC102BFCF713
:103F0000A3F906460F4673E710D16B1E0EAA52F8AE
:103F100023304FEAE3592AE76A1E0EAB0EA953F885
:103F20002230C3F3160341F822305EE70022AB4B88
:103F3000FCF7CAFD50B981465AE70835002600272C
:103F40005545E8E802677FF46DAE8AE6002D08F17A
:103F50000108C8BF4FF002093FF711AF32463B4698
:103F600000209D49FCF770F94FF0020906460F4604
:103F70003EE7069BCDF80C90584247EC106BCDF80D
:103F8000148000F055FD57EC106B10EE100A394606
:103F90000022934BFCF798FD002800F0EA810022F4
:103FA000904B30463946FCF703FBFCF7A1FD044675
:103FB000FCF798FA00228A4BFCF7FAFA0B46024605
:103FC00039463046FCF740F9FCF792FD069B183362
:103FD00005F1010A06930EAB43F8250043F82A4089
:103FE00006989FED7B0B00F023FDBAF1000F55EC16
:103FF000104BC0F2C1800AF101034FEAC30872AF4F
:104000000EAA009302EB830907EB080659F8040D8A
:10401000FCF768FA22462B46FCF7CAFA002266E94A
:104020000201704B20462946FCF7C2FABE42044604
:104030000D46EBD1A8F1080806EB08030DF59479BD
:10404000CDF818A0DDF81CA0CDF810904FF00008B6
:104050009B46BAF1000FC0F28C80B8F1000FC0F29D
:104060008880DFF884915D4600260027002401E067
:10407000444510DCF5E80223F9E80201FCF798FA60
:1040800002460B4630463946FCF7E0F80134A245BB
:1040900006460F46ECDA049B03EBC803C3E900674E
:1040A000009B08F101089845ABF1080BD1D1A49B06
:1040B000DDF818A0DDF81090032B35D8DFE813F0F9
:1040C0003B0004000400D900009B002009EBC3045E
:1040D000002174E90223FCF7B9F84C45F9D1039BA0
:1040E000002B00F08B80089D024601F1004385E81B
:1040F0000C0002460B46D9E90001FCF7A5F8BAF11D
:10410000000F0BDD4CAD01240134F5E80223FCF770
:104110009DF8A245F8DA039B002B7CD001F1004307
:1041200008990246C1E90223059B03F007000DF53B
:104130001B7DBDE8F08F009B0020002109EBC30927
:104140000AF1FF3A79E90223FCF780F8BAF1FF3F60
:10415000F6D1039B0246002B69D001F10043089978
:10416000C1E90023059B03F007000DF51B7DBDE8A9
:10417000F08F002600278EE7A49B032BD4D8DFE81E
:1041800003F0503535020DF59479039B0020002192
:10419000002B00F0DC80D9F80C30089FD9F80420FF
:1041A000D9F80050D9F80840386103F10043FB60AA
:1041B000059B3D6002F1004201F1004103F0070060
:1041C0007A60BC6079610DF51B7DBDE8F08F00BFA2
:1041D000000000000000F03F0000F03F0000E03F62
:1041E000000070410000703E404F0008039B00201B
:1041F00000210DF59479002B7FF475AF089B0246E2
:10420000C3E900010B46D9E90001FCF71DF8BAF13A
:10421000000F3FF777AF0B4608990246C1E902232A
:1042200082E7039B002000210246002B95D10B461C
:104230000899C1E9002395E70EAB069A53F82A3096
:10424000CDF80C90183ACDF814800692002B7FF42C
:10425000C7AE0EAB03EB8A0353F8041D0AF1FF3A15
:10426000183A0029F8D00692BAE60123EBE50024BB
:10427000AAE5BAF1000F88DD4FEACA0809EB080B7E
:1042800008F1080CDBE90067CC44CDF81080E0466B
:104290003BED027B304653EC172B39468DED007B0E
:1042A000FBF7D4FF04460D4622462B46DDE900010C
:1042B000FBF7CAFF02460B4630463946FBF7C6FFFE
:1042C000CB4568E9020126462F46CBE90045DFD100
:1042D000BAF1010FDDF810807FF757AF09EB080541
:1042E00008F10804D5E900AB4C44A0460DF5987CD4
:1042F00035ED027B52465B4651EC170BCDF810C0F2
:104300008DED007BFBF7A2FF06460F4632463B468B
:10431000DDE90001FBF798FF52465B46FBF796FF8D
:10432000DDF810C0654568E90201B246BB46C5E943
:104330000067DDD1002000214EAD74E90223FBF7B8
:1043400085FFAC42F9D1039B002B7FF424AFD9E960
:104350000223089FD9E90045C7E90223059BC7E965
:10436000040103F00700C7E900450DF51B7DBDE81A
:10437000F08F30463946FCF7BBFB0EABAA4643F83C
:1043800025002DE6AFF300800000000000000000D3
:104390002DE9F04F55EC104B2DED028BB0EE418A1C
:1043A000F0EE618A25F00043B3F1795F83B0824675
:1043B00007DA10EE100A2946FCF79AFB002800F0F5
:1043C0008C8022462B4620462946FCF7F1F82246EF
:1043D0002B4606460F46FCF7EBF846A3D3E900232D
:1043E0008046894630463946FCF7E2F843A3D3E9D4
:1043F0000023FBF729FF32463B46FCF7D9F841A3DF
:10440000D3E90023FBF722FF32463B46FCF7D0F806
:104410003EA3D3E90023FBF717FF32463B46FCF7E8
:10442000C7F83CA3D3E90023FBF710FFCDE9000157
:10443000BAF1000F37D051EC180B00222C4BFCF7CF
:10444000B7F8DDE9002382468B4640464946FCF733
:10445000AFF802460B4650465946FBF7F5FE32468A
:104460003B46FCF7A5F853EC182BFBF7EDFE1EA31B
:10447000D3E9002306460F4640464946FCF798F824
:1044800002460B4630463946FBF7E0FE02460B4635
:1044900020462946FBF7D8FE41EC100B03B0BDECDB
:1044A000028BBDE8F08FDDE9002330463946FCF78A
:1044B0007FF80DA3D3E90023FBF7C6FE42464B4627
:1044C000FCF776F822462B46FBF7C0FE41EC100BBA
:1044D00003B0BDEC028BBDE8F08F45EC104B03B090
:1044E000BDEC028BBDE8F08F495555555555C53F7C
:1044F0000000E03F7CD5CF5A3AD9E53DEB9C2B8AB2
:10450000E6E55A3E7DFEB157E31DC73ED561C119B0
:10451000A0012A3FA6F810111111813FAFF30080CE
:104520002DE9F84F55EC104BCD4B25F000469E423F
:10453000AB4610DDCB4B9E4200F3B28000F0AD8065
:10454000BBF1000F40F3F680A9A5D5E9004545EC85
:10455000104BBDE8F88FC44B9E4200F3C080A3F11E
:10456000DE739E4240F3A8804FF0FF3A22462B466E
:1045700020462946FCF71CF802460B468046894631
:10458000FCF716F89CA3D3E9002306460F46FCF778
:104590000FF89BA3D3E90023FBF758FE32463B46B6
:1045A000FCF706F898A3D3E90023FBF74FFE324649
:1045B0003B46FBF7FDFF96A3D3E90023FBF746FE3E
:1045C00032463B46FBF7F4FF93A3D3E90023FBF706
:1045D0003DFE32463B46FBF7EBFF91A3D3E90023B8
:1045E000FBF734FE42464B46FBF7E2FF8EA3D3E9CE
:1045F00000238046894630463946FBF7D9FF8CA315
:10460000D3E90023FBF720FE32463B46FBF7D0FF01
:1046100089A3D3E90023FBF717FE32463B46FBF79D
:10462000C7FF87A3D3E90023FBF70EFE32463B46C4
:10463000FBF7BEFF84A3D3E90023FBF705FE324658
:104640003B46FBF7B5FFBAF1FF3F02460B4679D078
:1046500040464946FBF7FAFD22462B46FBF7A8FFEA
:10466000824E834B4FEACA0A56449A44DAE9002341
:10467000FBF7EAFD22462B46FBF7E6FD02460B461A
:10468000D6E90001FBF7E0FDBBF1000F56DB044665
:104690000D4645EC104BBDE8F88F002C3FF450AFB1
:1046A0002046294622462B46FBF7D0FD04460D4600
:1046B00045EC104BBDE8F88F65A3D3E9002310EE5D
:1046C000100A2946FBF7C2FD00226A4BFCF706FAE6
:1046D00000283FF449AF45EC104BBDE8F88F00F0DF
:1046E000D7F8654B9E4255EC104B3CDCA3F55023AC
:1046F0009E4210EE100A294662DC10EE102A2B466C
:10470000FBF7A4FD00225B4BFBF79EFD0022064653
:104710000F46204629464FF08043FBF797FD02469F
:104720000B4630463946FCF76DF84FF0000A044658
:104730000D461BE748A5D5E90045B9E7044601F158
:104740000045B5E740464946FBF780FD22462B462B
:10475000FBF72EFF02460B4620462946FBF774FD69
:1047600004460D46A4E7454B9E421DDC10EE100AA0
:1047700029460022424BFBF767FD002206460F4602
:10478000204629463E4BFBF713FF0022394BFBF72F
:104790005DFD02460B4630463946FCF733F84FF0D4
:1047A000020A04460D46E1E62B4610EE102A0020D0
:1047B0003449FCF727F84FF0030A04460D46D5E6C6
:1047C00000222C4BFBF740FD002206460F462046F8
:1047D0002946284BFBF73AFD02460B463046394640
:1047E000FCF710F84FF0010A04460D46BEE600BF84
:1047F000182D4454FB21F93F11DA22E33AAD903FE2
:10480000EB0D76244B7BA93F513DD0A0660DB13F07
:104810006E204CC5CD45B73FFF8300922449C23F6F
:104820000D5555555555D53F2F6C6A2C44B4A2BF34
:104830009AFDDE522DDEAD3F6D9A74AFF2B0B33FFC
:10484000711623FEC671BC3FC4EB98999999C93F74
:104850009C7500883CE4377E182D4454FB21F9BF39
:10486000FFFF0F440000F07FFFFFDB3FA04F000879
:10487000804F00080000F03FFFFFF23FFF7F034042
:104880000000F83F0000F0BF000000000000000042
:1048900053EC102B23F0004343EC102B704700BF68
:1048A00051EC100B2DE9F843C1F30A57A7F2FF357D
:1048B000132D0C4610EE103A884606461CDC002DDF
:1048C00042DB3D4F2F4107EA0102134319D038A3C1
:1048D000D3E90023FBF7BAFC00220023FCF7FEF823
:1048E00020B1002C49DB28EA070400262346324683
:1048F00043EC102BBDE8F883332D06DDB5F5806F52
:1049000032D041EC100BBDE8F883A7F213434FF00F
:10491000FF3929FA03F919EA000FF2D024A3D3E9E9
:104920000023FBF793FC00220023FCF7D7F80028B4
:10493000DCD0002C26DB444626EA09062346324614
:1049400043EC102BBDE8F88319A3D3E90023FBF750
:104950007DFC00220023FCF7C1F80028C6D0002C03
:104960001CDB00263446C1E710EE102A0B46FBF78D
:104970006DFC41EC100BBDE8F8834FF480132B4124
:104980009844B0E7142D06D0C7F586670337012396
:10499000BB409E19CFD308F10108CCE724F00042B8
:1049A000064B324318BF1C4600269FE7AFF300803A
:1049B0009C7500883CE4377EFFFF0F000000F0BFCD
:1049C00053EC102B10B433F0004408D01149A3F578
:1049D0008010884208D804205DF8044B70471AB94B
:1049E00002205DF8044B704703F1FF43094903F5CA
:1049F000E0038B42EFD9B4F5801F01D20320EBE72F
:104A0000054B9C4201D00020E6E7B2FA82F0400953
:104A1000E2E700BFFFFFDF7F0000F07F0000000043
:104A200000207047000000000000000000000000AF
:104A300053EC102B70B5C3F30A54194605463CBB22
:104A400023F00041114337D019460022364B374E30
:104A500010EE100AFBF7ACFDB54202460B463BDBFD
:104A6000C1F30A54363C2C4440F2FE70844218DDF7
:104A700043EC112B9FED280B00F062F826A3D3E93D
:104A8000002351EC100BFBF793FD41EC100B70BDB4
:104A900040F2FF70844227D02C4440F2FE708442E2
:104AA000E6DC002C09DD21F0FF4121F4E00141EAC0
:104AB000045343EC102B70BD70BD14F1350F1BDA9D
:104AC0004CF250318D42D3DC9FED150B43EC112B92
:104AD00000F036F851EC100B11A3D3E90023FBF7DB
:104AE00067FD41EC100B70BD10EE100A1946FBF784
:104AF000ADFB41EC100B70BD21F0FF4121F4E00152
:104B0000363441EA0453104619460022084BFBF79D
:104B10004FFD41EC100B70BD9C7500883CE4377E66
:104B200059F3F8C21F6EA50100005043B03CFFFFCF
:104B30000000903CAFF30080000000000000000087
:104B400053EC102B11EE900A23F0004100F00040CE
:104B500040EA010343EC102B704700BF0000000047
:104B6000014B1868704700BF680C0020000000006F
:104B700069646C6500000000000000000000000097
:104B80006D61696E00168711040448080C10141832
:104B9000001C1D1E1F20000000000000000000007F
:104BA00051190008311900089119000871190008FD
:104BB000811900086119000841190008211900082D
:104BC000106002400860024000000B0028600240B4
:104BD0000860024006010C0040600240086002408C
:104BE00010020D00586002400860024016030E00DB
:104BF000706002400C60024000040F0088600240B8
:104C00000C60024006051000A06002400C600240EB
:104C100010061100B86002400C60024016072F0019
:104C20001064024008640240000838002864024012
:104C300008640240060939004064024008640240EA
:104C4000100A3A005864024008640240160B3B0008
:104C5000706402400C640240000C3C008864024016
:104C60000C640240060D4400A06402400C64024043
:104C7000100E4500B86402400C640240160F460056
:104C800000AAAAAA00000000FFABFFFF54001540D5
:104C9000FFFF00000000565511A10A1080200A00F5
:104CA00040000000FFFFFAFF15455555FFFF0000CB
:104CB000000000049900000001A02A02000000008A
:104CC000FFFFFFFF54554554FFFF00000000003375
:104CD000330606000001005500000000FFFFFFFF43
:104CE00055505500FF0F00000000000000000000BC
:104CF0004000000000000000FFFFFFFF0000000078
:104D0000FFFF0000000000000000000000000000A5
:104D100000000000FFFFFFFF00000000FFFF000099
:104D20000000000000000000000000000000000083
:104D3000FFFFFFFF00000000FFFF00000000000079
:104D4000000000000000000000000000FFFFFFFF67
:104D500000000000FFFF0000000000000000000055
:104D60000000000000000000FFFFFFFF0000000047
:104D7000FFFF000000000000000000000000000035
:104D800064000000060018000000000000000000A1
:104D90007371727400000000000000000000000049
:104DA000FB21F93FFB2109407CD91240FB2119402E
:104DB0007A6A1F407CD92240BBFD2540FB21294057
:104DC0003A462C407A6A2F405C4731407CD93240C9
:104DD0009C6B3440BBFD3540DB8F3740FB213940B5
:104DE0001BB43A403A463C405AD83D407A6A3F406C
:104DF0004C7E40405C4741406C1042407CD9424070
:104E00008CA243409C6B4440AC344540BBFD4540C4
:104E1000CBC64640DB8F4740EB584840FB2149401A
:104E200083F9A200444E6E00FC291500D1572700DB
:104E3000DD34F50062DBC0003C99950041904300F1
:104E40006351FE00BBDEAB00B761C5003A6E2400C3
:104E5000D24D42004906E00009EA2E001C92D10022
:104E6000EB1DFE0029B11C00E83EA700F5358200CD
:104E700044BB2E009CE98400B4267000417E5F0094
:104E8000D6913900538339009CF439008B5F84003C
:104E900028F9BD00F81F3B00DEFF97000F980500C2
:104EA000112FEF000A5A8B006D1F6D00CF7E360068
:104EB00009CB2700464FB7009E663F002DEA5F00F2
:104EC000BA277500E5EBC7003D7BF100F739070015
:104ED00092528A00FB6BEA001FB15F00085D8D00F3
:104EE000300356007BFC4600F0AB6B0020BCCF00CB
:104EF00036F49A00E3A91D005E619100081BE600EC
:104F000085996500A0145F008D40680080D8FF007F
:104F100027734D0006063100CA561500C9A8730054
:104F20007BE260006B8CC00000000000000000000D
:104F30000200000003000000040000000600000062
:104F400000000040FB21F93F000000002D44743EAA
:104F5000000000809846F83C0000006051CC783B8F
:104F600000000080831BF0390000004020257A38C3
:104F7000000000802282E336000000001DF3693546
:104F8000E2652F227F2B7A3C075C143326A6813CF6
:104F9000BDCBF07A8807703C075C143326A6913CA1
:104FA0004FBB610567ACDD3F182D4454FB21E93F41
:104FB0009BF681D20B73EF3F182D4454FB21F93F30
:044FC00043000000AA
:104FC80040420F00204E00000000000001000000D9
:104FD80000000000010000000000000001000000C7
:104FE80000000000010000000000000000000000B8
:104FF80000000000000000000100000000000000A8
:10500800000000002C0B0020940B0020FC0B00205B
:105018000000000000000000000000000000000088
:105028000000000000000000000000000000000078
:1050380000000000C04F0008000000000000000051
:105048000000000000000000000000000000000058
:105058000000000000000000000000000000000048
:105068000000000000000000000000000000000038
:105078000000000000000000000000000000000028
:105088000000000000000000000000000000000018
:105098000000000000000000000000000000000008
:1050A80000000000000000000100000000000000F7
:1050B8000E33CDAB34126DE6ECDE05000B000000BC
:1050C80000000000000000000000000000000000D8
:1050D80000000000000000000000000000000000C8
:1050E80000000000000000000000000000000000B8
:1050F80000000000000000000000000000000000A8
:0C54280000000000000000004008002010
:0400000508000B6183
:00000001FF
