:020000040800F2
:1000000000040020B1020008B1030008B103000899
:10001000B1030008B1030008B1030008B1030008F0
:10002000B1030008B1030008B1030008D1030008C0
:10003000B1030008B1030008B1030008A1040008DF
:10004000B1030008B1030008B1030008B1030008C0
:10005000B1030008B1030008B1030008B1030008B0
:10006000B1030008B1030008B103000861110008E2
:1000700091110008C1110008F111000821120008B7
:10008000511200088112000891160008311800086A
:1000900081180008F118000861190008B103000870
:1000A000B1030008D11E0008B1030008011F0008B9
:1000B000611F0008B1030008811F0008B103000898
:1000C000B1030008B1030008B1030008B103000840
:1000D000B1030008B103000871220008B103000851
:1000E000B1030008B1030008B1030008B103000820
:1000F000A11F0008B1030008D11F0008B1120008B9
:10010000B1030008B1030008B1030008B1030008FF
:10011000B1030008B1030008B1030008B1030008EF
:10012000E1120008111300084113000871130008C0
:10013000A1130008B1030008B1030008B1030008CF
:10014000B1030008B1030008B1030008B1030008BF
:10015000D11300080114000831140008B10300088D
:10016000B1030008B1030008B1030008B10300089F
:10017000B1030008B1030008B1030008B10300088F
:10018000B1030008B1030008B1030008B10300087F
:10019000B1030008B1030008B1030008B10300086F
:0C01A000B1030008B1030008B10300081F
:1001B00000B583B000F064FE00F0E2F927484FF488
:1001C000807140F2824201F0D3FD40F28242234826
:1001D0004FF4007101F0CCFD2149224800F0A8FE47
:1001E000642000F005FC2048204900F001FF204871
:1001F000204900F0FDFE2048204900F0F9FE20488B
:100200001E4900F0F5FE1F484FF480514FF48172F3
:1002100001F0AEFD1B484FF400514FF4817201F024
:10022000A7FD18484FF480414FF4817201F0A0FD02
:1002300014484FF400414FF4817201F099FD0023FE
:1002400000931148114B4FF4E871412200F088FBF4
:1002500042F2107000F0CCFBFAE700BF000402404D
:10026000C0260008D80A0020440B002034080020D3
:10027000580B002068080020800B00200008002098
:100280006C0B0020000C0240100C0020C123000861
:10029000704700BFAFF30080AFF30080AFF3008082
:1002A000FEE700BFAFF30080AFF30080AFF3008044
:1002B00072B6314880F30988022383F31488BFF3B0
:1002C0006F8F2E4B2E4A93420BD2D9430A4422F011
:1002D000030204321A444FF0553143F8041B934291
:1002E000FBD1284B83420CD2274A191D521A22F007
:1002F000030204321A444FF0553143F8041B934271
:10030000FBD102F04DF8214A214B9A420CD2D04346
:10031000184420F003001F4B0430184453F8041B0A
:1003200042F8041B8342F9D11B4B1C4A93420AD268
:10033000D9430A4422F0030204321A44002143F84C
:10034000041B9342FBD1164D164CFFF7A1FFAC42A4
:1003500004D254F8043B9847AC42FAD3124D134CE4
:10036000FFF726FFAC4204D254F8043B9847AC4256
:10037000FAD3FFF795FF00BF00080020000000201F
:1003800000040020000400200308002000080020D2
:100390009C080020C82600089C080020E00D0020D2
:1003A000AC010008AC010008AC010008AC01000879
:1003B000FEE700BFAFF30080AFF30080AFF3008033
:1003C00000F096FA00DF00BFAFF30080AFF30080CB
:1003D000EFF30983203383F30988002383F3118823
:1003E000704700BFAFF30080AFF30080AFF3008031
:1003F00008B5094B094A002199600720DA601021ED
:1004000000F096F80A20202100F092F80B208021BD
:10041000BDE8084000F08CB800ED00E00003FA05EC
:10042000202383F31188174B5B6813F4006319D002
:10043000EFF309834FF0807243F8042CA3F12002FC
:1004400082F3098810498A69D07F70B10868916881
:1004500082688A4294BF002201227AB10B4A43F893
:10046000082C704783F31188704708689168826888
:100470008A4234BF00220122002AEFD1044A43F805
:10048000082C704700ED00E0D8090020C1030008E7
:10049000C4030008AFF30080AFF30080AFF3008027
:1004A00008B5202383F3118800F09AF8002383F322
:1004B0001188BDE80840FFF7B3BF00BFAFF300806D
:1004C0002DE9F04FC1F80CD0D0F80CD0BDE8F08F7A
:1004D000002383F311882846A04700F0B9FA70473B
:1004E00020F0030202F1604202F5614270B4430958
:1004F00000F00304D2F80053E400FF269B00A6405E
:1005000003F16043A14025EA060503F56143012498
:1005100000F01F0004FA00F02943C2F8001370BC79
:10052000C3F8800118607047AFF30080AFF300801C
:1005300020F0030303F1604303F56D4300F0030073
:1005400010B4C0009A69FF24844022EA040281406A
:10055000114399615DF8044B704700BFAFF3008011
:10056000024B034A9B699A61FEE700BFD80900204D
:10057000B0240008AFF30080AFF30080AFF3008039
:1005800000B583B0FFF734FF00F0DAF800F058F858
:1005900000F02EFC00F064FC40210B4800F0B8F99C
:1005A0000A49012288610277002383F3118862B629
:1005B0008969074888610093E021064B064800F0EE
:1005C000CFF903B05DF804FB9C080020D809002097
:1005D000C024000861050008E8080020AFF300808F
:1005E00070B5134B9B69DA7F0AB1013ADA771A6A60
:1005F000104C01321A62E36822680133A242E360C0
:1006000014D09668013E966086B91168D56821605D
:10061000D66000234C6083F311881069A84720231B
:1006200083F3118822689368002BEED070BD00BF61
:10063000D8090020C8090020AFF30080AFF3008084
:10064000044B4FF0FF3100225B601B609960DA6061
:10065000704700BFC8090020AFF30080AFF30080EF
:1006600070B40C4E3468A5680361A942C26004D915
:100670002468491BA5688D42FAD363684360B4427D
:10068000046060601860816002D0A368591AA1609C
:1006900070BC7047C8090020AFF30080AFF3008042
:1006A000074A0368934203D0996882680A449A60B3
:1006B00042681360016800234A60C360704700BF4E
:1006C000C8090020AFF30080AFF30080AFF30080D3
:1006D00010B4202383F31188037F0D2B11D8DFE89A
:1006E00003F026101007100B101010101010100B34
:1006F000426A93680133936090E80C001A600268C4
:1007000053604FF0FF34002381680C4A4462037742
:10071000126893688B42FBD25168416002600023EB
:100720005060086083F311885DF8044B7047002324
:1007300083F311885DF8044B704700BFD80900208F
:10074000034B00225B601B605B611B619A6070471A
:10075000D8090020AFF30080AFF30080AFF3008032
:1007600000228168084B10B4044602771B689A681F
:100770008A42FBD25A686260236020465C60146043
:100780005DF8044B704700BFD8090020AFF300802C
:10079000084B30B41A689969146808770125142049
:1007A000C877636015771C60104630BC9A61FFF70C
:1007B00087BE00BFD8090020AFF30080AFF30080F0
:1007C00030B54B1C87B012D00C4C0D4AA3690546BE
:1007D00001A8FFF745FF2846FFF7DAFF049B13B196
:1007E00001A8FFF75DFFA369586A07B030BD034C4D
:1007F000FFF7CEFFA369586A07B030BDD8090020C3
:10080000D1060008AFF30080AFF30080AFF30080A3
:10081000144BF0B49F698468BD684162AC420646DF
:100820004FF000020BD802771B689A689442FBD9FC
:100830005A68726033605E601660F0BC70473A7749
:100840001A4612689468A542FBD954687C60012559
:100850003A60576027603577394630469E61F0BC74
:10086000FFF72EBED8090020AFF30080AFF3008061
:100870000E4A1068F0B403689569136001271426C6
:100880000021AC685A60077703469061EE772977BC
:1008900000E01B689A68A242FBD25A686A602B602B
:1008A00029465D601560F0BCFFF70ABED80900203C
:1008B0000D4A106870B40368956913600126002121
:1008C000AC685A60067703469061297700E01B68A0
:1008D0009A68A242FBD85A686A602B6029465D601C
:1008E000156070BCFFF7ECBDD8090020AFF30080A5
:1008F000034B9B69DB7F0BB1FFF7DABFFFF7B8BF94
:10090000D8090020AFF30080AFF30080AFF3008080
:100910002DE9F041114C016466694661002200F145
:100920002C054FF002084FF0140C4FF0010E00F1AF
:1009300028078160046180F81C80606180F81FC016
:1009400080F81EE04277C263826302628261306196
:1009500087620563C562BDE8F08100BFD809002049
:100960002DE9F84F1D4696460446202383F311884F
:100970001B4EDFF870B0726924394718C76000F168
:100980002C03455000F1280C00250A9979604FF09E
:10099000020A4FF014094FF00108C7F820B02946A9
:1009A000C0F808E006614261C0F840E080F81CA091
:1009B00080F81F9080F81E8045777061C56385635D
:1009C0000562856110610363C362C0F828C0FFF748
:1009D0001FFF2B4683F311882046BDE8F88F00BF28
:1009E000D8090020D1040008AFF30080AFF30080E5
:1009F00008B50146202383F311880620FFF7E0FEA7
:100A0000002383F3118808BDAFF30080AFF30080AB
:100A100038B50E4B9C692546606255F8280FA842F0
:100A200006D00368A362FFF79BFEA06AA842F8D134
:100A3000637F9B0704D1636922691A61226953614C
:100A40000E20BDE83840FFF7A3BE00BFD809002044
:100A5000202383F31188FFF7DBBF00BFAFF30080D3
:100A60004060006081607047AFF30080AFF30080AA
:100A700003468068421E002A9A6001DB002070470E
:100A800010B461B1094A926953625C68032082E83C
:100A900018005A6022605DF8044BFFF791BE986021
:100AA0005DF8044B4FF0FF30704700BFD8090020BD
:100AB00083680133002B836000DD704703681A6888
:100AC00002600021506018465962FFF749BE00BF1E
:100AD0000023406000608360704700BFAFF3008078
:100AE00008B5836B027F1943082A81630BD0092A5A
:100AF00000D008BD436A19408B42FAD1FFF730FE9F
:100B00000023436208BD436A1942F7D108BD00BF04
:100B100070B50468A04205460E4608D0201D0BC8DB
:100B20003343E360FFF7DCFF2468A542F6D170BDD4
:100B300071B1094B9B6910B458624468024683E85E
:100B400014000D20536023605DF8044BFFF738BE9E
:100B50004FF0FF30704700BFD8090020AFF300808E
:100B600030B4029C046200250A4485600261406042
:100B7000006041618161C160C36130BC704700BFEA
:100B8000034640699A69904210B59A681BD00132B9
:100B9000441C9A605C61017059691A6991420BD2D8
:100BA000186898420DD002681A605360FFF7D8FDAC
:100BB00000234362184610BD1868DA685A619842EB
:100BC000F1D1002010BD002AE1D06FF0030010BD6C
:100BD00070B520230E46044683F31188C3692BB1F8
:100BE000984703E0FFF7A4FF002815DBA56820461F
:100BF0003146002DF6D0A2692169531C8B4205F1C4
:100C0000FF35A361A56028BFE368107828BFA36102
:100C1000002383F3118870BD2B4683F3118870BDC8
:100C20002DE9F0471E46044689469246D0F81C80BE
:100C3000202383F311880027B8F1000F05D0204648
:100C4000C04702E0FFF774FFE0B9A56820463146CF
:100C5000002DF7D0A369013D5A1CA261A5601B7845
:100C600009F8013B2369A2699A4224BFE368A361A2
:100C7000002383F311880137BA4506D0202383F37C
:100C80001188D9E72B4683F311883846BDE8F087F1
:100C900030B4029C04628D1805614060006082607F
:100CA00041618161C160C36130BC7047AFF30080B6
:100CB000F8B504460F461646202383F3118803E057
:100CC000FFF736FF002819DBA56820463146002DC6
:100CD000F6D06369013D5A1C6261A5601F702369EB
:100CE00062699A4224BFE3686361E3690BB12046FD
:100CF0009847002383F311881846F8BD2B4683F3E9
:100D00001188F8BDAFF30080AFF30080AFF300802F
:100D100038B5826943699342836818D00569511CCC
:100D2000013383608161A94214780DD20268824246
:100D300008D01168016003464B601046FFF710FDB4
:100D400000234362204638BDC3688361EEE7002B71
:100D5000E4D06FF0020038BDAFF30080AFF3008045
:100D60002DE9F84F9A4604460E461746D0F81C90D7
:100D7000202383F311884FF00008A56806F1010BCA
:100D80006B1E20460DB36269A360531C6361337808
:100D90001370236962699A4224BFE3686361B9F101
:100DA000000F00D0C847002383F31188013F08F1EA
:100DB000010813D0202383F31188A5685E466B1EBB
:100DC00006F1010B2046002DDDD120465146FFF7EC
:100DD000AFFE0028D1D02B4683F311884046BDE8F2
:100DE000F88F00BFAFF30080AFF30080AFF3008057
:100DF000054A064B0648074922F0070223F007037D
:100E000002600B60704700BFE70D002000C00120AA
:100E1000F8090020F4090020AFF30080AFF3008050
:100E200010B4202383F31188094C0A4B22681968F7
:100E3000C31D23F00703891A8B429DBF9B182360B3
:100E400010460020002383F311885DF8044B70479F
:100E5000F8090020F4090020AFF30080AFF3008010
:100E6000044B054A1A6003F1100000229A60DA6010
:100E7000FFF72EBE000A0020210E0008AFF300800D
:100E800008B500F015FB084800F08AFE00F010F8E5
:100E900000F026F800F09CF800F00AF900F050F994
:100EA000BDE8084001F084BAC0250008AFF3008017
:100EB00000F0B6BBAFF30080AFF30080AFF300806B
:100EC00000230122027043608360C36003614361B9
:100ED0001830FFF7FDBD00BFAFF30080AFF3008017
:100EE00000F07EBDAFF30080AFF30080AFF3008071
:100EF00038B50123002504460370456029460830B3
:100F0000FFF7AEFD294604F11400FFF7A9FD04F137
:100F1000200504F1240004F1280104F12C0204F15D
:100F2000300325626062A162E262236338BD00BFC4
:100F300038B504460D46202383F311880378022B2D
:100F400006D106200121FFF73BFC2378022BF8D0C5
:100F5000012B03D0002383F3118838BD6560204640
:100F600000F056FD03232370002383F3118838BD5E
:100F70002DE9F843984604460E469146202383F314
:100F8000118800F114072578042D3146204602D03F
:100F900000F07EFD50B938464146FFF769FD002854
:100FA000F1D0002383F31188BDE8F8832046314651
:100FB0004A4600F08DFD002383F311881846BDE8F2
:100FC000F88300BFAFF30080AFF30080AFF3008081
:100FD00001F02EB8AFF30080AFF30080AFF30080D4
:100FE0000122002302704360704700BFAFF300800E
:100FF00010B52023044683F311888B880381416058
:1010000001F046F802232370002383F3118810BDFA
:1010100008B5202383F3118801F002F9002383F33C
:10102000118808BDAFF30080AFF30080AFF30080FC
:101030000C30FFF7F5BD00BFAFF30080AFF30080C9
:101040000C304FF0FF33FFF7EBBD00BFAFF3008074
:101050003030FFF785BE00BFAFF30080AFF30080F4
:1010600030304FF0FF33FFF77BBE00BFAFF300809F
:101070000C30FFF7ADBD00BFAFF30080AFF30080D1
:101080000C304FF0FF31FFF7A3BD00BFAFF300807E
:101090003030FFF70DBE00BFAFF30080AFF300802C
:1010A00030304FF0FF32FFF703BE00BFAFF30080D8
:1010B00001F066B9AFF30080AFF30080AFF30080BA
:1010C00070B50E4B044682B040F8043B01260094F4
:1010D0000B461546606004F1540104F10C002672C1
:1010E0001022FFF73DFD00942B4604F1300004F17F
:1010F00064011022FFF7CCFD02B070BDE0240008AF
:1011000038B5436904460D463BB1294604F10C004D
:10111000FFF736FD00280BDB38BD04300421FFF754
:10112000F7FC294604F10C00FFF72AFD0028F3DA4A
:10113000201D8021BDE83840FFF7EABCAFF30080F6
:1011400000F06EBEAFF30080AFF30080AFF300801D
:10115000002301220270436083600C30FFF7B8BCAB
:1011600008B5074B074A196801F03D0199601368FB
:101170000BB150689847BDE80840FFF751B900BF70
:1011800000600240200A0020AFF30080AFF300802F
:10119000084B094819688268890901F03D0110B5BA
:1011A0008C019C600AB1C0689047BDE81040FFF711
:1011B00037B900BF00600240200A0020AFF3008072
:1011C000084B094819680269090C01F03D0110B586
:1011D0000C049C600AB140699047BDE81040FFF7DD
:1011E0001FB900BF00600240200A0020AFF300805A
:1011F000084B094819688269890D01F03D0110B555
:101200008C059C600AB1C0699047BDE81040FFF7AB
:1012100007B900BF00600240200A0020AFF3008041
:1012200008B5074B07485968026A01F03D01D960CB
:101230000AB1406A9047BDE80840FFF7F1B800BF27
:1012400000600240200A0020AFF30080AFF300806E
:10125000084B09485968826A890901F03D0110B5B7
:101260008C01DC600AB1C06A9047BDE81040FFF70E
:10127000D7B800BF00600240200A0020AFF3008012
:10128000084B09485968026B090C01F03D0110B583
:101290000C04DC600AB1406B9047BDE81040FFF7DA
:1012A000BFB800BF00600240200A0020AFF30080FA
:1012B000084B09485968826B890D01F03D0110B552
:1012C0008C05DC600AB1C06B9047BDE81040FFF7A9
:1012D000A7B800BF00600240200A0020AFF30080E2
:1012E00008B5074B07481968026C01F03D01996089
:1012F0000AB1406C9047BDE80840FFF791B800BFC5
:1013000000640240200A0020AFF30080AFF30080A9
:10131000084B09481968826C890901F03D0110B534
:101320008C019C600AB1C06C9047BDE81040FFF78B
:1013300077B800BF00640240200A0020AFF30080AD
:10134000084B09481968026D090C01F03D0110B500
:101350000C049C600AB1406D9047BDE81040FFF757
:101360005FB800BF00640240200A0020AFF3008095
:10137000084B09481968826D890D01F03D0110B5CF
:101380008C059C600AB1C06D9047BDE81040FFF726
:1013900047B800BF00640240200A0020AFF300807D
:1013A00008B5074B07485968026E01F03D01D96046
:1013B0000AB1406E9047BDE80840FFF731B800BF62
:1013C00000640240200A0020AFF30080AFF30080E9
:1013D000084B09485968826E890901F03D0110B532
:1013E0008C01DC600AB1C06E9047BDE81040FFF789
:1013F00017B800BF00640240200A0020AFF300804D
:10140000084B09485968026F090C01F03D0110B5FD
:101410000C04DC600AB1406F9047BDE81040FEF755
:10142000FFBF00BF00640240200A0020AFF300802D
:10143000084B09485968826F890D01F03D0110B5CC
:101440008C05DC600AB1C06F9047BDE81040FEF724
:10145000E7BF00BF00640240200A0020AFF3008015
:101460000D4B30B400220D4D0D4C1A601146134641
:10147000A858016044F833100133102B02F10C021C
:10148000F6D10849084A4FF0FF338B6030BCCB607F
:101490009360D360704700BFA00A002000250008B9
:1014A000200A00200060024000640240AFF3008088
:1014B000204B21491A694FF0FF300022F0B5186126
:1014C0001A615C6958615A611C6A1C4FDFF878E048
:1014D0001B4E1C4D64F080541C621A620724D3F822
:1014E00024C058625A62C1F804E08A600C60F9684E
:1014F00041F08071F960316841F001013160196C8F
:1015000041F080511964296841F480712960196F94
:1015100001F44071B1F5007F03D04FF480311967B9
:101520001A67084A536823F400735360BDE8F0401B
:10153000FFF796BF0038024010E000E0F0ED00E059
:10154000001000E0007000403F900200AFF3008008
:101550002C492D4B4FF080504FF4404208641A60E4
:101560000B6843F001030B600A68264B9007FBD51C
:101570009A6822F003029A609A689A6019468B680A
:10158000204A13F00C03FAD1116801F0F90111603F
:101590009360136843F4803313601168194B890317
:1015A000FBD55A6F42F001025A675A6F15499007EE
:1015B000FBD5164B4B600B68134A43F080730B60EE
:1015C00053685904FCD50F490A680E4B9201FBD5AC
:1015D0000F4A1049996040F2057111609A6842F013
:1015E00002029A601A469368064903F00C03082B1E
:1015F000F9D14B6C43F480434B644B6E43F480430E
:101600004B667047003802400070004008544007A5
:10161000003C024000940838AFF30080AFF3008034
:1016200010B5084C2046FFF74BFC0749074A084B0A
:10163000A162E262236312206021BDE81040FEF740
:101640004FBF00BFA40A00200020014090250008E1
:10165000162C0200AFF30080AFF30080AFF30080E0
:10166000C16A0A68136823F01F031360136813F03C
:101670000103FBD130B40D7A4C68826A3D21A94048
:1016800001202160536030BC93609060704700BFC0
:101690001A4B1A680021196093062CD510B5184C06
:1016A000E36A1B685B6813B3236903B32046FFF743
:1016B000D7FF23699B684BB1052222702046012188
:1016C00098472378052B04BF022323700022226150
:1016D0000B49202383F31188606928B14FF0FF3351
:1016E00043624A61FFF73CF8002383F31188BDE8A9
:1016F0001040FEF795BEFEF793BE00BF00200140EC
:10170000A40A0020AFF30080AFF30080AFF30080A5
:10171000F0B5434C434D236C43F000732364D5F87C
:1017200000321B0C1B0443F0010343EA0023C5F8FD
:10173000003200294ED00023C5F81C321846C5F8E7
:1017400004321C46C5F80C32C5F81432C30003F14C
:10175000804303F5C84301301C28C3F84042C3F856
:101760004442F3D12F480026012715681479EB0075
:1017700003F1804314F0010F03F5C84306F101069D
:1017800007FA05F505D0D0F804E245EA0E0EC0F8D8
:1017900004E214F0020F05D0D0F80CE245EA0E0E78
:1017A000C0F80CE2640704D5D0F814422C43C0F80A
:1017B00014429468C3F84042D468C3F84442D0F855
:1017C0001C328E4243EA050302F11002C0F81C32BB
:1017D000CBD118E0C20002F18042012302F5C842D9
:1017E000834043F00103C5F84012C5F84412C2F823
:1017F0004012C2F84412C5F80412C5F81412C5F814
:101800000C32C5F81C320749054AD1F8003223F0E2
:101810000103C1F80032136C23F000731364F0BDB0
:101820000038024000640040AFF30080AFF3008056
:1018300010B50D4C0D49626B2023916083F3118824
:101840002369002B05DA0A48FFF732F92369002BD8
:10185000F9DB08480121FFF75BF9002383F31188C6
:10186000BDE81040FEF7DCBDD80A002001010100F0
:10187000E00A0020FC0A0020AFF30080AFF30080F4
:1018800038B5174C636BDD68AA0716D05A6922F089
:1018900002025A61202383F31188E369002B05DAE1
:1018A0001048FFF705F9E369002BF9DB0E48012129
:1018B000FFF72EF9002383F31188EB060BD5636B3A
:1018C0001021D960202383F311880848FFF720F9FD
:1018D000002383F31188BDE83840FEF7A1BD00BFA7
:1018E000D80A0020EC0A0020F80A0020000B002093
:1018F00038B5174C636B1D69AA0716D05A6922F0D8
:1019000010025A61202383F31188E369002B05DA62
:101910001048FFF7CDF8E369002BF9DB0E480221F0
:10192000FFF7F6F8002383F31188EB060BD5636B02
:1019300010211961202383F311880848FFF7E8F884
:10194000002383F31188BDE83840FEF769BD00BF6E
:10195000D80A0020EC0A0020F80A0020000B002022
:1019600038B51B4D6A6B54681C23210753601DD486
:10197000630717D56B6B9A69996921F070019961BA
:1019800012F0700F02F0070118BF41F00801202388
:1019900083F311880F4841EA0241FFF7B9F80023A9
:1019A00083F31188BDE83840FEF73ABD1168284638
:1019B00021F00201032300F8303B2023116083F360
:1019C00011880021FFF7A4F8002383F31188CFE7E3
:1019D000D80A0020000B0020AFF30080AFF3008096
:1019E00010B5064C2046FFF783FA0021044B6363D1
:1019F0000A460E20BDE81040FFF78ABED80A002034
:101A000000640040AFF30080AFF30080AFF30080CC
:101A1000194B984210B5044617D0636B022101227E
:101A200021701A605A68D10707D406200121FEF7F9
:101A3000C7FE636B5A68D207F7D562680F495068D2
:101A40001268D8611A60596110BD1320B021FEF7E9
:101A500047FD1420B021FEF743FD1520B021FEF70D
:101A60003FFD1620B021FEF73BFD054A136C43F005
:101A700000731364D1E700BFD80A00205B8F010018
:101A800000380240AFF30080AFF30080AFF3008076
:101A9000012911D00AD3022906D1436B186910F02D
:101AA000030018BF0120704700207047436BDA68BD
:101AB0009207F3D001207047436BD86810F0030001
:101AC00018BF0120704700BFAFF30080AFF3008064
:101AD00010B4002930D1436BD968890733D0D3F8CB
:101AE000B041D3F8B411D3F8B831D360436BD3F815
:101AF000BC311361436B2020D860D868800741D087
:101B00001379C4F3400060F30413C4F3800060F35E
:101B1000451313719B062FD59368E40864F31C03E7
:101B2000936013795DF8044B080A61F30303090C11
:101B30001371107051807047012928D0022928D0D4
:101B40005DF8044B704719698C07F9D0D3F8C04190
:101B5000D3F8C411D3F8C831D360436BD3F8CC3178
:101B60001361436B2020186118698007C8D1586938
:101B700040F010005861C3E71389640D64F30A0351
:101B80001381CEE7586940F002005861B8E7436B13
:101B9000A5E7436BDAE700BFAFF30080AFF3008047
:101BA0002DE9F04FDFF8B481DFF8B4C1D8F830A0E8
:101BB000DFF8B0E1634F644E644D654C6549664A99
:101BC000DFF8A4B140F2FF194AEA090AC8F830A0C8
:101BD000D8F850A04AEA0909C8F850904368CCF8F0
:101BE00004308368CCF80830C368CCF80C30036943
:101BF000CCF814304369CCF820308369CCF8243019
:101C00000368CCF80030036ACEF80430436ACEF89B
:101C10000830836ACEF80C30C36ACEF81430036BF8
:101C2000CEF82030436BCEF82430C369CEF80030B4
:101C3000C36B7B60036CBB60436CFB60836C7B613C
:101C4000C36C3B62036D7B62836B3B60876D776027
:101C5000C76DB760076EF760476E7761876E376252
:101C6000C76E7762476D3760466F6E60866FAE6095
:101C7000C66FEE60D0F880606E61D0F884602E622E
:101C8000D0F888606E62066F2E60D0F89050656064
:101C9000D0F89450A560D0F89850E560D0F89C50EA
:101CA0006561D0F8A0502562D0F8A4506562D0F8E4
:101CB0008C502560D0F8AC404C60D0F8B0408C60BF
:101CC000D0F8B440CC60D0F8B8404C61D0F8BC40FB
:101CD0000C62D0F8C0404C62D0F8A8400C60D0F83C
:101CE000C8105160D0F8CC109160D0F8D010D160FD
:101CF000D0F8D4105161D0F8D8101162D0F8DC10AF
:101D00005162D0F8C4101160D0F8E420CBF8042060
:101D1000D0F8E820CBF80820D0F8EC20CBF80C2045
:101D2000D0F8F020CBF81420D0F8F420CBF8202005
:101D3000D0F8F820CBF82420D0F8E020CBF8002011
:101D4000BDE8F08F00080240000C02400010024085
:101D50000014024000180240001C024000380240FB
:101D6000000002400004024000200240AFF3008067
:101D70002DE9F04F4FF00F0C02F0030EC2F3800775
:101D8000C2F3C106C2F341150024C2F3C3124FF0DF
:101D900001094FF003082BE0D0F820B02BEA030331
:101DA00043EA0A030362436809FA04FA23EA0A03CE
:101DB0003B4343604FEA440A836808FA0AFA6FEA31
:101DC0000A0A0AEA030333438360C3680AEA030387
:101DD0002B43C36003680AEA030343EA0E0303606C
:101DE000490819D07F00B600AD004FEA8E0E0134CD
:101DF00004F007039B0011F0010F02FA03FA0CFA3A
:101E000003F3EDD0072CC7D9D0F824B02BEA030395
:101E100043EA0A034362C6E7BDE8F08FAFF30080F0
:101E200010B50A4C0A4B4FF6FF7220461A80FFF796
:101E30008FF9084B08480949094AE06103F10C0091
:101E400023626062A162E26210BD00BF140B002039
:101E5000100B002024250008003800401600010067
:101E600046000100AFF30080AFF30080AFF30080C5
:101E7000026970B51469D368DBB21C40E343A6075E
:101E8000054613611DD4600716D421070FD4E2065E
:101E900008D4E30700D470BD6B6828469B68BDE892
:101EA000704018476B6828469B6A9847F1E76B6853
:101EB00028461B6A9847EAE76B6828469B6998475B
:101EC000E3E743681B699847DDE700BFAFF3008095
:101ED00008B50648064A43686FF001019B68116126
:101EE0009847BDE80840FEF79BBA00BF440B0020AE
:101EF00000000140AFF30080AFF30080AFF300803B
:101F0000134B10B51A69DC681440A4B2E2B2D24394
:101F1000A0071A6117D4610710D4220709D4E30679
:101F200003D50C4843689B6A9847BDE81040FEF70C
:101F300077BA084843681B6A9847F0E70548436842
:101F40009B699847E9E7034843681B699847E2E7BC
:101F500000000140440B0020AFF30080AFF300808D
:101F600008B50348FFF784FFBDE80840FEF758BAFC
:101F7000580B0020AFF30080AFF30080AFF3008078
:101F800008B50348FFF774FFBDE80840FEF748BAFC
:101F90006C0B0020AFF30080AFF30080AFF3008044
:101FA00008B50648064A43686FF001019B68116155
:101FB0009847BDE80840FEF733BA00BF800B002009
:101FC00000040140AFF30080AFF30080AFF3008066
:101FD000134B10B51A69DC681440A4B2E2B2D243C4
:101FE000A0071A6117D4610710D4220709D4E306A9
:101FF00003D50C4843689B6A9847BDE81040FEF73C
:102000000FBA084843681B6A9847F0E705484368D9
:102010009B699847E9E7034843681B699847E2E7EB
:1020200000040140800B0020AFF30080AFF300807C
:10203000F8B50D4F0D4E0E4D0E4C3846FEF7D0FF45
:102040000D4B3B613046FEF7CBFF4FF080432846F7
:102050003361FEF7C5FF094B2B612046FEF7C0FF39
:10206000074B2361F8BD00BF440B0020580B002034
:102070006C0B0020800B0020000001400008004095
:1020800000040140AFF30080AFF30080AFF30080A5
:102090000378012B70B5044655D0036900221A60FD
:1020A0005A639A63DA631A645A6261682589CA6856
:1020B000E0680E68B0FBF6F06C1E013802F00F020B
:1020C000CD6A80B2A4B2012A9862DC625D6003D05E
:1020D000022A0CBF03220022486900F00F000128E9
:1020E0002ED002282AD0C86900F00F00012822D083
:1020F00002281ED0486A00F00F00012803D00228F1
:1021000003D142F4005242F48052086B89681A628B
:1021100020F0FF02002918BF42F00102012500242F
:102120004FF4004085215D611C61DA6058641960DC
:1021300070BD42F4007242F48072DBE742F020028C
:1021400042F01002CFE72E4B98420ED02D4B984212
:1021500021D02D4B984230D02C4B984239D0236956
:1021600046F668029A61DA619FE7294B5A6C42F0A1
:1021700001025A645A6A002142F001025A6219208F
:1021800059627021FEF7ACF91B207021FEF7A8F907
:10219000204BE360E3E71E4B1A6C42F001021A6425
:1021A0001A6A42F0010200211A621C201962702191
:1021B000FEF796F9184BE360D1E7154B1A6C42F025
:1021C00004021A641A6A42F0040200211A621E20F4
:1021D000ECE70F4B5A6C42F002025A645A6A002133
:1021E00042F002025A622C2059627021FEF778F9FF
:1021F0002E207021FEF774F9064BE360AFE700BFB5
:10220000440B0020580B00206C0B0020800B00209A
:1022100000380240007A030A00BD0105AFF30080D8
:10222000436810B4046903EBC10001F10C030069B9
:1022300004EB83035A6040B10223E2688B401342EF
:1022400003D11A43DB43E26023615DF8044B70471E
:10225000034A93899BB243F080039381704700BF88
:1022600000440040AFF30080AFF30080AFF3008084
:10227000F8B53E4E756FAB892C88A4B29FB2E305CA
:1022800045D4202383F31188A00621D508E0A9882E
:102290003648C9B2FEF734FF2C88A4B2A00617D581
:1022A0002207F4D014F0080F14BF8021002114F08D
:1022B000010F18BF41F02001A30748BF41F04001C2
:1022C00064072B4848BF41F48071FEF721FCDEE72C
:1022D000002383F31188390601D5220626D463062C
:1022E00011D5202383F31188726CB36C1F489A4276
:1022F0002AD027F040039BB24FF6BF72AB81002378
:102300002A8083F31188BDE8F840FEF789B82023BE
:1023100083F311884FF40071301DFEF7F9FB0023A1
:1023200083F311884FF6FF632B80AAE7202383F302
:1023300011881048FEF7ECFC00280DDB80B2A88065
:10234000002383F31188CAE7836B002BD1D00430BC
:102350001021FEF7DDFBCCE705480821FEF7D8FB8E
:1023600027F0C00343F04003AB81E9E7940B002062
:10237000980B0020C40B0020AFF30080AFF3008067
:1023800010B5044C044A20460021FEF799FE034B89
:10239000636710BD940B00205122000800440040E8
:1023A000FFF7D6B8AFF30080AFF30080AFF3008043
:1023B000704700BFAFF30080AFF30080AFF3008041
:1023C0002DE9F047354E364F364D86B000210B468D
:1023D00001AA3548FEF7CCFD7B6983F480537B610D
:1023E0009DF810A09DF811409DF812809DF8139063
:1023F0000AEB8A0A0120CAEBCA0AFEF7F9FA4FEA89
:102400004A0A338929481FFA8AFA0AFB03F385FB33
:102410000312DB17C3EB223209EB8909002192B2C8
:10242000C9EBC909FEF7F4FD4FEA490933891F4892
:102430001FFA89F909FB03F385FB0312DB17C3EBD2
:10244000223208EB8808012192B2C8EBC808FEF7D7
:10245000DFFD4FEA4808338914481FFA88F808FB63
:1024600003F385FB0312DB17C3EB223204EB840476
:10247000022192B2C4EBC404FEF7CAFD64003389A2
:102480000A48A4B204FB03F385FB0312DB17C3EB7A
:10249000223292B20321FEF7BBFD97E7800B0020AA
:1024A000000C0240AD8BDB68D80A00206C0B0020CA
:1024B00069646C650000000000000000000000007E
:1024C0006D61696E00168711040448080C10141819
:1024D000001C1D1E1F200000000000000000000066
:1024E0006110000841100008A110000881100008C8
:1024F00091100008711000085110000831100008F8
:10250000106002400860024000000B00286002409A
:102510000860024006010C00406002400860024072
:1025200010020D00586002400860024016030E00C1
:10253000706002400C60024000040F00886002409E
:102540000C60024006051000A06002400C600240D2
:1025500010061100B86002400C60024016072F0000
:1025600010640240086402400008380028640240F9
:1025700008640240060939004064024008640240D1
:10258000100A3A005864024008640240160B3B00EF
:10259000706402400C640240000C3C0088640240FD
:1025A0000C640240060D4400A06402400C6402402A
:1025B000100E4500B86402400C640240160F46003D
:1025C00000AAAAAA00000000FFABFFFF54001540BC
:1025D000FFFF00000000565511A10A1080200A00DC
:1025E00040000000FFFFFAFF15455555FFFF0000B2
:1025F000000000049900000001A02A020000000071
:10260000FFFFFFFF54554554FFFF0000000000335B
:10261000330606000001005500000000FFFFFFFF29
:1026200055505500FF0F00000000000000000000A2
:102630004000000000000000FFFFFFFF000000005E
:10264000FFFF00000000000000000000000000008C
:1026500000000000FFFFFFFF00000000FFFF000080
:10266000000000000000000000000000000000006A
:10267000FFFFFFFF00000000FFFF00000000000060
:10268000000000000000000000000000FFFFFFFF4E
:1026900000000000FFFF000000000000000000003C
:1026A0000000000000000000FFFFFFFF000000002E
:1026B000FFFF00000000000000000000000000001C
:0826C000640000000600180090
:1026C80010270000C8000000000000000100000002
:1026D80000000000010000000000000001000000F0
:1026E80000000000010000000000000000000000E1
:1026F8000000000010270000C800000000000000D3
:1027080001000000000000000100000000000000BF
:1027180001000000000000000000000000000000B0
:10272800000000000000000010270000C8000000A2
:102738000000000000000000000000000100000090
:102748000000000000000000000000000000000081
:0C27580000000000000000000000000075
:04000005080002B13C
:00000001FF
