:020000040800F2
:100000000004002081020008810300088103000829
:1000100081030008810300088103000881030008B0
:10002000810300088103000881030008A103000880
:10003000810300088103000881030008710400089F
:100040008103000881030008810300088103000880
:100050008103000881030008810300088103000870
:1000600081030008810300088103000811110008C2
:100070004111000871110008A1110008D1110008F8
:10008000011200083112000841160008E1170008AB
:1000900031180008A1180008111900088103000890
:1000A00081030008211E000881030008511E00087A
:1000B000B11E0008810300088103000881030008C5
:1000C0008103000881030008810300088103000800
:1000D0008103000881030008012200088103000851
:1000E00081030008810300088103000881030008E0
:1000F000211F000881030008511F00086112000839
:1001000081030008810300088103000881030008BF
:1001100081030008810300088103000881030008AF
:1001200091120008C1120008F11200082113000802
:1001300051130008810300088103000881030008AF
:10014000810300088103000881030008810300087F
:1001500081130008B1130008E113000881030008AF
:10016000810300088103000881030008810300085F
:10017000810300088103000881030008810300084F
:10018000810300088103000881030008810300083F
:10019000810300088103000881030008810300082F
:0C01A000810300088103000881030008AF
:1001B00000B583B000F04CFE00F0CAF91E484FF4C1
:1001C000807140F2824201F0ABFD40F282421A4857
:1001D0004FF4007101F0A4FD1849194800F090FE99
:1001E0004FF47A7000F0ECFB1648174900F0E8FE77
:1001F0001648154900F0E4FE1548134900F0E0FEEA
:1002000014484FF480514FF4817201F089FD114878
:100210004FF400414FF4817201F082FD00230093FE
:100220000D480E4B4FF4E871412200F081FB42F281
:10023000107000F0C5FBFAE70004024090250008AA
:10024000700A0020DC0A002000080020F00A0020CC
:10025000040B0020000C0240900B002051230008EA
:10026000704700BFAFF30080AFF30080AFF30080B2
:10027000FEE700BFAFF30080AFF30080AFF3008074
:1002800072B6314880F30988022383F31488BFF3E0
:100290006F8F2E4B2E4A93420BD2D9430A4422F041
:1002A000030204321A444FF0553143F8041B9342C1
:1002B000FBD1284B83420CD2274A191D521A22F037
:1002C000030204321A444FF0553143F8041B9342A1
:1002D000FBD102F02DF8214A214B9A420CD2D04397
:1002E000184420F003001F4B0430184453F8041B3B
:1002F00042F8041B8342F9D11B4B1C4A93420AD299
:10030000D9430A4422F0030204321A44002143F87C
:10031000041B9342FBD1164D164CFFF7A1FFAC42D4
:1003200004D254F8043B9847AC42FAD3124D134C14
:10033000FFF73EFFAC4204D254F8043B9847AC426E
:10034000FAD3FFF795FF00BF00080020000000204F
:100350000004002000040020030800200008002002
:10036000380800209825000838080020600D00207B
:10037000AC010008AC010008AC010008AC010008A9
:10038000FEE700BFAFF30080AFF30080AFF3008063
:1003900000F096FA00DF00BFAFF30080AFF30080FB
:1003A000EFF30983203383F30988002383F3118853
:1003B000704700BFAFF30080AFF30080AFF3008061
:1003C00008B5094B094A002199600720DA6010211D
:1003D00000F096F80A20202100F092F80B208021EE
:1003E000BDE8084000F08CB800ED00E00003FA051D
:1003F000202383F31188174B5B6813F4006319D033
:10040000EFF309834FF0807243F8042CA3F120022C
:1004100082F3098810498A69D07F70B108689168B1
:1004200082688A4294BF002201227AB10B4A43F8C3
:10043000082C704783F311887047086891688268B8
:100440008A4234BF00220122002AEFD1044A43F835
:10045000082C704700ED00E07009002091030008AF
:1004600094030008AFF30080AFF30080AFF3008087
:1004700008B5202383F3118800F09AF8002383F352
:100480001188BDE80840FFF7B3BF00BFAFF300809D
:100490002DE9F04FC1F80CD0D0F80CD0BDE8F08FAA
:1004A000002383F311882846A04700F0B9FA70476B
:1004B00020F0030202F1604202F5614270B4430988
:1004C00000F00304D2F80053E400FF269B00A6408E
:1004D00003F16043A14025EA060503F561430124C9
:1004E00000F01F0004FA00F02943C2F8001370BCAA
:1004F000C3F8800118607047AFF30080AFF300804D
:1005000020F0030303F1604303F56D4300F00300A3
:1005100010B4C0009A69FF24844022EA040281409A
:10052000114399615DF8044B704700BFAFF3008041
:10053000024B034A9B699A61FEE700BF70090020E5
:1005400080230008AFF30080AFF30080AFF300809A
:1005500000B583B0FFF734FF00F0DAF800F058F888
:1005600000F02EFC00F064FC40210B4800F0B8F9CC
:100570000A49012288610277002383F3118862B659
:100580008969074888610093E021064B064800F01E
:10059000CFF903B05DF804FB380800207009002093
:1005A000902300083105000880080020AFF3008088
:1005B00070B5134B9B69DA7F0AB1013ADA771A6A90
:1005C000104C01321A62E36822680133A242E360F0
:1005D00014D09668013E966086B91168D56821608E
:1005E000D66000234C6083F311881069A84720234C
:1005F00083F3118822689368002BEED070BD00BF92
:100600007009002060090020AFF30080AFF3008084
:10061000044B4FF0FF3100225B601B609960DA6091
:10062000704700BF60090020AFF30080AFF3008087
:1006300070B40C4E3468A5680361A942C26004D945
:100640002468491BA5688D42FAD363684360B442AD
:10065000046060601860816002D0A368591AA160CC
:1006600070BC704760090020AFF30080AFF30080DA
:10067000074A0368934203D0996882680A449A60E3
:1006800042681360016800234A60C360704700BF7E
:1006900060090020AFF30080AFF30080AFF300806B
:1006A00010B4202383F31188037F0D2B11D8DFE8CA
:1006B00003F026101007100B101010101010100B64
:1006C000426A93680133936090E80C001A600268F4
:1006D00053604FF0FF34002381680C4A4462037773
:1006E000126893688B42FBD251684160026000231C
:1006F0005060086083F311885DF8044B7047002355
:1007000083F311885DF8044B704700BF7009002027
:10071000034B00225B601B605B611B619A6070474A
:1007200070090020AFF30080AFF30080AFF30080CA
:1007300000228168084B10B4044602771B689A684F
:100740008A42FBD25A686260236020465C60146073
:100750005DF8044B704700BF70090020AFF30080C4
:10076000084B30B41A689969146808770125142079
:10077000C877636015771C60104630BC9A61FFF73C
:1007800087BE00BF70090020AFF30080AFF3008088
:1007900030B54B1C87B012D00C4C0D4AA3690546EE
:1007A00001A8FFF745FF2846FFF7DAFF049B13B1C6
:1007B00001A8FFF75DFFA369586A07B030BD034C7D
:1007C000FFF7CEFFA369586A07B030BD700900205B
:1007D000A1060008AFF30080AFF30080AFF3008004
:1007E000144BF0B49F698468BD684162AC42064610
:1007F0004FF000020BD802771B689A689442FBD92D
:100800005A68726033605E601660F0BC70473A7779
:100810001A4612689468A542FBD954687C60012589
:100820003A60576027603577394630469E61F0BCA4
:10083000FFF72EBE70090020AFF30080AFF30080F9
:100840000E4A1068F0B403689569136001271426F6
:100850000021AC685A60077703469061EE772977EC
:1008600000E01B689A68A242FBD25A686A602B605B
:1008700029465D601560F0BCFFF70ABE70090020D4
:100880000D4A106870B40368956913600126002151
:10089000AC685A60067703469061297700E01B68D0
:1008A0009A68A242FBD85A686A602B6029465D604C
:1008B000156070BCFFF7ECBD70090020AFF300803D
:1008C000034B9B69DB7F0BB1FFF7DABFFFF7B8BFC4
:1008D00070090020AFF30080AFF30080AFF3008019
:1008E0002DE9F041114C016466694661002200F176
:1008F0002C054FF002084FF0140C4FF0010E00F1E0
:1009000028078160046180F81C80606180F81FC046
:1009100080F81EE04277C2638263026282613061C6
:1009200087620563C562BDE8F08100BF70090020E1
:100930002DE9F84F1D4696460446202383F311887F
:100940001B4EDFF870B0726924394718C76000F198
:100950002C03455000F1280C00250A9979604FF0CE
:10096000020A4FF014094FF00108C7F820B02946D9
:10097000C0F808E006614261C0F840E080F81CA0C1
:1009800080F81F9080F81E8045777061C56385638D
:100990000562856110610363C362C0F828C0FFF778
:1009A0001FFF2B4683F311882046BDE8F88F00BF58
:1009B00070090020A1040008AFF30080AFF30080AD
:1009C00008B50146202383F311880620FFF7E0FED7
:1009D000002383F3118808BDAFF30080AFF30080DC
:1009E00038B50E4B9C692546606255F8280FA84221
:1009F00006D00368A362FFF79BFEA06AA842F8D165
:100A0000637F9B0704D1636922691A61226953617C
:100A10000E20BDE83840FFF7A3BE00BF70090020DC
:100A2000202383F31188FFF7DBBF00BFAFF3008003
:100A30004060006081607047AFF30080AFF30080DA
:100A400003468068421E002A9A6001DB002070473E
:100A500010B461B1094A926953625C68032082E86C
:100A600018005A6022605DF8044BFFF791BE986051
:100A70005DF8044B4FF0FF30704700BF7009002055
:100A800083680133002B836000DD704703681A68B8
:100A900002600021506018465962FFF749BE00BF4E
:100AA0000023406000608360704700BFAFF30080A8
:100AB00008B5836B027F1943082A81630BD0092A8A
:100AC00000D008BD436A19408B42FAD1FFF730FECF
:100AD0000023436208BD436A1942F7D108BD00BF35
:100AE00070B50468A04205460E4608D0201D0BC80C
:100AF0003343E360FFF7DCFF2468A542F6D170BD05
:100B000071B1094B9B6910B458624468024683E88E
:100B100014000D20536023605DF8044BFFF738BECE
:100B20004FF0FF30704700BF70090020AFF3008026
:100B300030B4029C046200250A4485600261406072
:100B4000006041618161C160C36130BC704700BF1A
:100B5000034640699A69904210B59A681BD00132E9
:100B6000441C9A605C61017059691A6991420BD208
:100B7000186898420DD002681A605360FFF7D8FDDC
:100B800000234362184610BD1868DA685A6198421B
:100B9000F1D1002010BD002AE1D06FF0030010BD9C
:100BA00070B520230E46044683F31188C3692BB128
:100BB000984703E0FFF7A4FF002815DBA56820464F
:100BC0003146002DF6D0A2692169531C8B4205F1F4
:100BD000FF35A361A56028BFE368107828BFA36133
:100BE000002383F3118870BD2B4683F3118870BDF9
:100BF0002DE9F0471E46044689469246D0F81C80EF
:100C0000202383F311880027B8F1000F05D0204678
:100C1000C04702E0FFF774FFE0B9A56820463146FF
:100C2000002DF7D0A369013D5A1CA261A5601B7875
:100C300009F8013B2369A2699A4224BFE368A361D2
:100C4000002383F311880137BA4506D0202383F3AC
:100C50001188D9E72B4683F311883846BDE8F08721
:100C600030B4029C04628D180561406000608260AF
:100C700041618161C160C36130BC7047AFF30080E6
:100C8000F8B504460F461646202383F3118803E087
:100C9000FFF736FF002819DBA56820463146002DF6
:100CA000F6D06369013D5A1C6261A5601F7023691B
:100CB00062699A4224BFE3686361E3690BB120462D
:100CC0009847002383F311881846F8BD2B4683F319
:100CD0001188F8BDAFF30080AFF30080AFF3008060
:100CE00038B5826943699342836818D00569511CFD
:100CF000013383608161A94214780DD20268824277
:100D000008D01168016003464B601046FFF710FDE4
:100D100000234362204638BDC3688361EEE7002BA1
:100D2000E4D06FF0020038BDAFF30080AFF3008075
:100D30002DE9F84F9A4604460E461746D0F81C9007
:100D4000202383F311884FF00008A56806F1010BFA
:100D50006B1E20460DB36269A360531C6361337838
:100D60001370236962699A4224BFE3686361B9F131
:100D7000000F00D0C847002383F31188013F08F11A
:100D8000010813D0202383F31188A5685E466B1EEB
:100D900006F1010B2046002DDDD120465146FFF71C
:100DA000AFFE0028D1D02B4683F311884046BDE822
:100DB000F88F00BFAFF30080AFF30080AFF3008087
:100DC000054A064B0648074922F0070223F00703AD
:100DD00002600B60704700BF670D002000C001205B
:100DE000900900208C090020AFF30080AFF3008051
:100DF00010B4202383F31188094C0A4B2268196828
:100E0000C31D23F00703891A8B429DBF9B182360E3
:100E100010460020002383F311885DF8044B7047CF
:100E2000900900208C090020AFF30080AFF3008010
:100E3000044B054A1A6003F1100000229A60DA6040
:100E4000FFF72EBE98090020F10D0008AFF30080D7
:100E500008B500F005FB084800F07AFE00F010F835
:100E600000F026F800F09CF800F0FAF800F040F9E5
:100E7000BDE8084001F064BA90240008AFF3008098
:100E800000F0A6BBAFF30080AFF30080AFF30080AB
:100E900000230122027043608360C36003614361E9
:100EA0001830FFF7FDBD00BFAFF30080AFF3008047
:100EB00000F06EBDAFF30080AFF30080AFF30080B1
:100EC00038B50123002504460370456029460830E3
:100ED000FFF7AEFD294604F11400FFF7A9FD04F168
:100EE000200504F1240004F1280104F12C0204F18E
:100EF000300325626062A162E262236338BD00BFF5
:100F000038B504460D46202383F311880378022B5D
:100F100006D106200121FFF73BFC2378022BF8D0F5
:100F2000012B03D0002383F3118838BD6560204670
:100F300000F046FD03232370002383F3118838BD9E
:100F40002DE9F843984604460E469146202383F344
:100F5000118800F114072578042D3146204602D06F
:100F600000F06EFD50B938464146FFF769FD002894
:100F7000F1D0002383F31188BDE8F8832046314681
:100F80004A4600F07DFD002383F311881846BDE832
:100F9000F88300BFAFF30080AFF30080AFF30080B1
:100FA00001F006B8AFF30080AFF30080AFF300802C
:100FB0000122002302704360704700BFAFF300803E
:100FC00010B52023044683F311888B880381416088
:100FD00001F00EF802232370002383F3118810BD63
:100FE0000C30FFF705BE00BFAFF30080AFF3008009
:100FF0000C304FF0FF33FFF7FBBD00BFAFF30080B5
:101000003030FFF795BE00BFAFF30080AFF3008034
:1010100030304FF0FF33FFF78BBE00BFAFF30080DF
:101020000C30FFF7BDBD00BFAFF30080AFF3008011
:101030000C304FF0FF31FFF7B3BD00BFAFF30080BE
:101040003030FFF71DBE00BFAFF30080AFF300806C
:1010500030304FF0FF32FFF713BE00BFAFF3008018
:1010600001F056B9AFF30080AFF30080AFF300801A
:1010700070B50E4B044682B040F8043B0126009444
:101080000B461546606004F1540104F10C00267211
:101090001022FFF74DFD00942B4604F1300004F1BF
:1010A00064011022FFF7DCFD02B070BDB023000820
:1010B00038B5436904460D463BB1294604F10C009E
:1010C000FFF746FD00280BDB38BD04300421FFF795
:1010D00007FD294604F10C00FFF73AFD0028F3DA7A
:1010E000201D8021BDE83840FFF7FABCAFF3008037
:1010F00000F06EBEAFF30080AFF30080AFF300806E
:10110000002301220270436083600C30FFF7C8BCEB
:1011100008B5074B074A196801F03D01996013684B
:101120000BB150689847BDE80840FFF761B900BFB0
:1011300000600240B8090020AFF30080AFF30080E8
:10114000084B094819688268890901F03D0110B50A
:101150008C019C600AB1C0689047BDE81040FFF761
:1011600047B900BF00600240B8090020AFF300801B
:10117000084B094819680269090C01F03D0110B5D6
:101180000C049C600AB140699047BDE81040FFF72D
:101190002FB900BF00600240B8090020AFF3008003
:1011A000084B094819688269890D01F03D0110B5A5
:1011B0008C059C600AB1C0699047BDE81040FFF7FC
:1011C00017B900BF00600240B8090020AFF30080EB
:1011D00008B5074B07485968026A01F03D01D9601C
:1011E0000AB1406A9047BDE80840FFF701B900BF67
:1011F00000600240B8090020AFF30080AFF3008028
:10120000084B09485968826A890901F03D0110B507
:101210008C01DC600AB1C06A9047BDE81040FFF75E
:10122000E7B800BF00600240B8090020AFF30080BB
:10123000084B09485968026B090C01F03D0110B5D3
:101240000C04DC600AB1406B9047BDE81040FFF72A
:10125000CFB800BF00600240B8090020AFF30080A3
:10126000084B09485968826B890D01F03D0110B5A2
:101270008C05DC600AB1C06B9047BDE81040FFF7F9
:10128000B7B800BF00600240B8090020AFF300808B
:1012900008B5074B07481968026C01F03D019960D9
:1012A0000AB1406C9047BDE80840FFF7A1B800BF05
:1012B00000640240B8090020AFF30080AFF3008063
:1012C000084B09481968826C890901F03D0110B585
:1012D0008C019C600AB1C06C9047BDE81040FFF7DC
:1012E00087B800BF00640240B8090020AFF3008057
:1012F000084B09481968026D090C01F03D0110B551
:101300000C049C600AB1406D9047BDE81040FFF7A7
:101310006FB800BF00640240B8090020AFF300803E
:10132000084B09481968826D890D01F03D0110B51F
:101330008C059C600AB1C06D9047BDE81040FFF776
:1013400057B800BF00640240B8090020AFF3008026
:1013500008B5074B07485968026E01F03D01D96096
:101360000AB1406E9047BDE80840FFF741B800BFA2
:1013700000640240B8090020AFF30080AFF30080A2
:10138000084B09485968826E890901F03D0110B582
:101390008C01DC600AB1C06E9047BDE81040FFF7D9
:1013A00027B800BF00640240B8090020AFF30080F6
:1013B000084B09485968026F090C01F03D0110B54E
:1013C0000C04DC600AB1406F9047BDE81040FFF7A5
:1013D0000FB800BF00640240B8090020AFF30080DE
:1013E000084B09485968826F890D01F03D0110B51D
:1013F0008C05DC600AB1C06F9047BDE81040FEF775
:10140000F7BF00BF00640240B8090020AFF30080BE
:101410000D4B30B400220D4D0D4C1A601146134691
:10142000A858016044F833100133102B02F10C026C
:10143000F6D10849084A4FF0FF338B6030BCCB60CF
:101440009360D360704700BF380A0020D0230008A3
:10145000B80900200060024000640240AFF3008041
:10146000204B21491A694FF0FF300022F0B5186176
:101470001A615C6958615A611C6A1C4FDFF878E098
:101480001B4E1C4D64F080541C621A620724D3F872
:1014900024C058625A62C1F804E08A600C60F9689E
:1014A00041F08071F960316841F001013160196CDF
:1014B00041F080511964296841F480712960196FE5
:1014C00001F44071B1F5007F03D04FF4803119670A
:1014D0001A67084A536823F400735360BDE8F0406C
:1014E000FFF796BF0038024010E000E0F0ED00E0AA
:1014F000001000E0007000403F900200AFF3008059
:101500002C492D4B4FF080504FF4404208641A6034
:101510000B6843F001030B600A68264B9007FBD56C
:101520009A6822F003029A609A689A6019468B685A
:10153000204A13F00C03FAD1116801F0F90111608F
:101540009360136843F4803313601168194B890367
:10155000FBD55A6F42F001025A675A6F154990073E
:10156000FBD5164B4B600B68134A43F080730B603E
:1015700053685904FCD50F490A680E4B9201FBD5FC
:101580000F4A1049996040F2057111609A6842F063
:1015900002029A601A469368064903F00C03082B6E
:1015A000F9D14B6C43F480434B644B6E43F480435E
:1015B0004B667047003802400070004008544007F6
:1015C000003C024000940838AFF30080AFF3008085
:1015D00010B5084C2046FFF75BFC0749074A084B4B
:1015E000A162E262236312206021BDE81040FEF791
:1015F0005FBF00BF3C0A00200020014060240008BB
:10160000162C0200AFF30080AFF30080AFF3008030
:10161000C16A0A68136823F01F031360136813F08C
:101620000103FBD130B40D7A4C68826A3D21A94098
:1016300001202160536030BC93609060704700BF10
:101640001A4B1A680021196093062CD510B5184C56
:10165000E36A1B685B6813B3236903B32046FFF793
:10166000D7FF23699B684BB10522227020460121D8
:1016700098472378052B04BF0223237000222261A0
:101680000B49202383F31188606928B14FF0FF33A1
:1016900043624A61FFF74CF8002383F31188BDE8E9
:1016A0001040FEF7A5BEFEF7A3BE00BF002001401C
:1016B0003C0A0020AFF30080AFF30080AFF300805E
:1016C000F0B5434C434D236C43F000732364D5F8CD
:1016D00000321B0C1B0443F0010343EA0023C5F84E
:1016E000003200294ED00023C5F81C321846C5F838
:1016F00004321C46C5F80C32C5F81432C30003F19D
:10170000804303F5C84301301C28C3F84042C3F8A6
:101710004442F3D12F480026012715681479EB00C5
:1017200003F1804314F0010F03F5C84306F10106ED
:1017300007FA05F505D0D0F804E245EA0E0EC0F828
:1017400004E214F0020F05D0D0F80CE245EA0E0EC8
:10175000C0F80CE2640704D5D0F814422C43C0F85A
:1017600014429468C3F84042D468C3F84442D0F8A5
:101770001C328E4243EA050302F11002C0F81C320B
:10178000CBD118E0C20002F18042012302F5C84229
:10179000834043F00103C5F84012C5F84412C2F873
:1017A0004012C2F84412C5F80412C5F81412C5F864
:1017B0000C32C5F81C320749054AD1F8003223F033
:1017C0000103C1F80032136C23F000731364F0BD01
:1017D0000038024000640040AFF30080AFF30080A7
:1017E00010B50D4C0D49626B2023916083F3118875
:1017F0002369002B05DA0A48FFF742F92369002B19
:10180000F9DB08480121FFF76BF9002383F3118806
:10181000BDE81040FEF7ECBD700A00200101010098
:10182000780A0020940A0020AFF30080AFF3008014
:1018300038B5174C636BDD68AA0716D05A6922F0D9
:1018400002025A61202383F31188E369002B05DA31
:101850001048FFF715F9E369002BF9DB0E48012169
:10186000FFF73EF9002383F31188EB060BD5636B7A
:101870001021D960202383F311880848FFF730F93D
:10188000002383F31188BDE83840FEF7B1BD00BFE7
:10189000700A0020840A0020900A0020980A002084
:1018A00038B5174C636B1D69AA0716D05A6922F028
:1018B00010025A61202383F31188E369002B05DAB3
:1018C0001048FFF7DDF8E369002BF9DB0E48022131
:1018D000FFF706F9002383F31188EB060BD5636B42
:1018E00010211961202383F311880848FFF7F8F8C5
:1018F000002383F31188BDE83840FEF779BD00BFAF
:10190000700A0020840A0020900A0020980A002013
:1019100038B51B4D6A6B54681C23210753601DD4D6
:10192000630717D56B6B9A69996921F0700199610A
:1019300012F0700F02F0070118BF41F008012023D8
:1019400083F311880F4841EA0241FFF7C9F80023E9
:1019500083F31188BDE83840FEF74ABD1168284678
:1019600021F00201032300F8303B2023116083F3B0
:1019700011880021FFF7B4F8002383F31188CFE723
:10198000700A0020980A0020AFF30080AFF30080B7
:1019900010B5064C2046FFF793FA0021044B636311
:1019A0000A460E20BDE81040FFF78ABE700A0020EC
:1019B00000640040AFF30080AFF30080AFF300801D
:1019C000194B984210B5044617D0636B02210122CF
:1019D00021701A605A68D10707D406200121FEF74A
:1019E000D7FE636B5A68D207F7D562680F49506813
:1019F0001268D8611A60596110BD1320B021FEF73A
:101A000057FD1420B021FEF753FD1520B021FEF73D
:101A10004FFD1620B021FEF74BFD054A136C43F035
:101A200000731364D1E700BF700A00205B8F0100D0
:101A300000380240AFF30080AFF30080AFF30080C6
:101A4000012911D00AD3022906D1436B186910F07D
:101A5000030018BF0120704700207047436BDA680D
:101A60009207F3D001207047436BD86810F0030051
:101A700018BF0120704700BFAFF30080AFF30080B4
:101A800010B4002930D1436BD968890733D0D3F81B
:101A9000B041D3F8B411D3F8B831D360436BD3F865
:101AA000BC311361436B2020D860D868800741D0D7
:101AB0001379C4F3400060F30413C4F3800060F3AF
:101AC000451313719B062FD59368E40864F31C0338
:101AD000936013795DF8044B080A61F30303090C62
:101AE0001371107051807047012928D0022928D025
:101AF0005DF8044B704719698C07F9D0D3F8C041E1
:101B0000D3F8C411D3F8C831D360436BD3F8CC31C8
:101B10001361436B2020186118698007C8D1586988
:101B200040F010005861C3E71389640D64F30A03A1
:101B30001381CEE7586940F002005861B8E7436B63
:101B4000A5E7436BDAE700BFAFF30080AFF3008097
:101B50002DE9F04FDFF8B481DFF8B4C1D8F830A038
:101B6000DFF8B0E1634F644E644D654C6549664AE9
:101B7000DFF8A4B140F2FF194AEA090AC8F830A018
:101B8000D8F850A04AEA0909C8F850904368CCF840
:101B900004308368CCF80830C368CCF80C30036993
:101BA000CCF814304369CCF820308369CCF8243069
:101BB0000368CCF80030036ACEF80430436ACEF8EC
:101BC0000830836ACEF80C30C36ACEF81430036B49
:101BD000CEF82030436BCEF82430C369CEF8003005
:101BE000C36B7B60036CBB60436CFB60836C7B618D
:101BF000C36C3B62036D7B62836B3B60876D776078
:101C0000C76DB760076EF760476E7761876E3762A2
:101C1000C76E7762476D3760466F6E60866FAE60E5
:101C2000C66FEE60D0F880606E61D0F884602E627E
:101C3000D0F888606E62066F2E60D0F890506560B4
:101C4000D0F89450A560D0F89850E560D0F89C503A
:101C50006561D0F8A0502562D0F8A4506562D0F834
:101C60008C502560D0F8AC404C60D0F8B0408C600F
:101C7000D0F8B440CC60D0F8B8404C61D0F8BC404B
:101C80000C62D0F8C0404C62D0F8A8400C60D0F88C
:101C9000C8105160D0F8CC109160D0F8D010D1604D
:101CA000D0F8D4105161D0F8D8101162D0F8DC10FF
:101CB0005162D0F8C4101160D0F8E420CBF80420B1
:101CC000D0F8E820CBF80820D0F8EC20CBF80C2096
:101CD000D0F8F020CBF81420D0F8F420CBF8202056
:101CE000D0F8F820CBF82420D0F8E020CBF8002062
:101CF000BDE8F08F00080240000C024000100240D6
:101D00000014024000180240001C0240003802404B
:101D1000000002400004024000200240AFF30080B7
:101D20002DE9F04F4FF00F0C02F0030EC2F38007C5
:101D3000C2F3C106C2F341150024C2F3C3124FF02F
:101D400001094FF003082BE0D0F820B02BEA030381
:101D500043EA0A030362436809FA04FA23EA0A031E
:101D60003B4343604FEA440A836808FA0AFA6FEA81
:101D70000A0A0AEA030333438360C3680AEA0303D7
:101D80002B43C36003680AEA030343EA0E030360BC
:101D9000490819D07F00B600AD004FEA8E0E01341D
:101DA00004F007039B0011F0010F02FA03FA0CFA8A
:101DB00003F3EDD0072CC7D9D0F824B02BEA0303E6
:101DC00043EA0A034362C6E7BDE8F08FAFF3008041
:101DD00010B50A4C0A4B4FF6FF7220461A80FFF7E7
:101DE0008FF9084B08480949094AE06103F10C00E2
:101DF00023626062A162E26210BD00BFAC0A0020F3
:101E0000A80A0020F4230008003800401600010052
:101E100046000100AFF30080AFF30080AFF3008015
:101E200008B50648064A43686FF001019B681161D6
:101E30009847BDE80840FEF7DBBA00BFDC0A002087
:101E400000000140AFF30080AFF30080AFF30080EB
:101E5000134B10B51A69DC681440A4B2E2B2D24345
:101E6000A0071A6117D4610710D4220709D4E3062A
:101E700003D50C4843689B6A9847BDE81040FEF7BD
:101E8000B7BA084843681B6A9847F0E705484368B3
:101E90009B699847E9E7034843681B699847E2E76D
:101EA00000000140DC0A0020AFF30080AFF30080A7
:101EB00038B5174D2A691469D368DBB21C40E34377
:101EC0001361A3071ED4600717D4210710D4E206BC
:101ED00009D4E30703D56B680D489B689847BDE8B4
:101EE0003840FEF785BA6B6809489B6A9847F0E767
:101EF0006B6807481B6A9847E9E76B6804489B6969
:101F00009847E2E76B6828461B699847DBE700BF04
:101F1000F00A0020AFF30080AFF30080AFF3008041
:101F200008B50648064A43686FF001019B681161D5
:101F30009847BDE80840FEF75BBA00BF040B0020DD
:101F400000040140AFF30080AFF30080AFF30080E6
:101F5000134B10B51A69DC681440A4B2E2B2D24344
:101F6000A0071A6117D4610710D4220709D4E30629
:101F700003D50C4843689B6A9847BDE81040FEF7BC
:101F800037BA084843681B6A9847F0E70548436832
:101F90009B699847E9E7034843681B699847E2E76C
:101FA00000040140040B0020AFF30080AFF3008079
:101FB00070B50A4E0A4D0B4C3046FEF7F9FF0A4B3E
:101FC00033612846FEF7F4FF4FF0804320462B6133
:101FD000FEF7EEFF054B236170BD00BFDC0A002059
:101FE000F00A0020040B0020000001400004014022
:101FF000F8B50378012B044600F0828003696F4E28
:1020000000221A605A639A63DA631A645A6261683A
:102010002589CF68E2680868B2FBF0F0013D01381D
:1020200007F00F02D1F82CE080B2ADB2012A98621D
:10203000DD62C3F804E003D0022A0CBF03220022B1
:10204000D1F814E00EF00F00012851D002284DD035
:10205000CD6905F00F00012824D0022820D0486A5D
:1020600000F00F00012824D0022844D0B44224D02C
:102070005348844221D0486B8C68096B1A6220F067
:10208000FF02002C18BF42F0010241F4004101257B
:10209000002485205D611C61DA6059641860F8BD18
:1020A00042F40072486A00F00F00012842F4807286
:1020B000DAD142F48052B442DAD107F0F007102F9F
:1020C0002FD0202F2BD00EF0F00EBEF1100F2FD0FE
:1020D000BEF1200F2FD005F0F005102D03D0202DDC
:1020E000C9D142F4006242F48062C4E742F02002A7
:1020F00042F01002ACE742F4005242F48052DAE7B8
:102100002E4EB04232D02F4B984245D02C4B9842A5
:1021100016D0236946F668029A61DA6177E742F0E1
:1021200008020EF0F00EBEF1100F42F00402CFD103
:1021300042F04002CFE742F0800242F04002CAE79C
:10214000214B5A6C42F002025A645A6A002142F052
:1021500002025A622C2059627021FEF7A9F92E2042
:102160007021FEF7A5F9194BE360D2E7164B5A6CC4
:1021700042F001025A645A6A002142F001025A6296
:10218000192059627021FEF793F91B207021FEF788
:102190008FF90E4BE360BCE70B4B1A6C42F0010267
:1021A0001A641A6A002142F001021A621C201962A4
:1021B0007021FEF77DF9064BE360AAE7DC0A0020F8
:1021C000040B0020F00A002000380240007A030AC5
:1021D00000BD0105AFF30080AFF30080AFF30080D6
:1021E000034A93899BB243F080039381704700BFF9
:1021F00000440040AFF30080AFF30080AFF30080F5
:10220000F8B53E4E756FAB892C88A4B29FB2E3053A
:1022100045D4202383F31188A00621D508E0A9889E
:102220003648C9B2FEF744FF2C88A4B2A00617D5E1
:102230002207F4D014F0080F14BF8021002114F0FD
:10224000010F18BF41F02001A30748BF41F0400132
:1022500064072B4848BF41F48071FEF741FCDEE77C
:10226000002383F31188390601D5220626D463069C
:1022700011D5202383F31188726CB36C1F489A42E6
:102280002AD027F040039BB24FF6BF72AB810023E8
:102290002A8083F31188BDE8F840FEF7A9B820230F
:1022A00083F311884FF40071301DFEF719FC0023F1
:1022B00083F311884FF6FF632B80AAE7202383F373
:1022C00011881048FEF70CFD00280DDB80B2A880B5
:1022D000002383F31188CAE7836B002BD1D004302D
:1022E0001021FEF7FDFBCCE705480821FEF7F8FBBF
:1022F00027F0C00343F04003AB81E9E7180B00204F
:102300001C0B0020480B0020AFF30080AFF30080CF
:1023100010B5044C044A20460021FEF7A9FE034BE9
:10232000636710BD180B0020E12100080044004045
:10233000FFF7E6B8AFF30080AFF30080AFF30080A3
:10234000704700BFAFF30080AFF30080AFF30080B1
:1023500010B5064C86B000210B46054801AAFEF7D1
:10236000EFFD636983F480536361F4E7000C02407E
:10237000700A0020AFF30080AFF30080AFF300805D
:1023800069646C65000000000000000000000000AF
:102390006D61696E00168711040448080C1014184A
:1023A000001C1D1E1F200000000000000000000097
:1023B00011100008F10F000851100008311000083A
:1023C000411000082110000801100008E10F00086A
:1023D000106002400860024000000B0028600240CC
:1023E0000860024006010C004060024008600240A4
:1023F00010020D00586002400860024016030E00F3
:10240000706002400C60024000040F0088600240CF
:102410000C60024006051000A06002400C60024003
:1024200010061100B86002400C60024016072F0031
:10243000106402400864024000083800286402402A
:102440000864024006093900406402400864024002
:10245000100A3A005864024008640240160B3B0020
:10246000706402400C640240000C3C00886402402E
:102470000C640240060D4400A06402400C6402405B
:10248000100E4500B86402400C640240160F46006E
:1024900000AAAAAA00000000FFABFFFF54001540ED
:1024A000FFFF00000000565511A10A1080200A000D
:1024B00040000000FFFFFAFF15455555FFFF0000E3
:1024C000000000049900000001A02A0200000000A2
:1024D000FFFFFFFF54554554FFFF0000000000338D
:1024E000330606000001005500000000FFFFFFFF5B
:1024F00055505500FF0F00000000000000000000D4
:102500004000000000000000FFFFFFFF000000008F
:10251000FFFF0000000000000000000000000000BD
:1025200000000000FFFFFFFF00000000FFFF0000B1
:10253000000000000000000000000000000000009B
:10254000FFFFFFFF00000000FFFF00000000000091
:10255000000000000000000000000000FFFFFFFF7F
:1025600000000000FFFF000000000000000000006D
:102570000000000000000000FFFFFFFF000000005F
:10258000FFFF00000000000000000000000000004D
:082590006400000006001800C1
:1025980010270000C8000000000000000100000033
:1025A8000000000001000000000000000100000021
:1025B8000000000001000000000000000000000012
:0825C80000000000000000000B
:04000005080002816C
:00000001FF
