:020000040800F2
:100000000004002091020008D1030008D103000879
:10001000D1030008D1030008D1030008D103000870
:10002000D1030008D1030008D1030008F103000840
:10003000D1030008D1030008D1030008D10400084F
:10004000D1030008D1030008D1030008D103000840
:10005000D1030008D1030008D1030008D103000830
:10006000D1030008D1030008D103000811120008D1
:100070004112000871120008A1120008D1120008F4
:100080000113000831130008B117000871190008A6
:10009000D1190008511A0008D11A0008D10300082C
:1000A000D1030008D1030008D1030008D1030008E0
:1000B000D1030008D1030008E11F0008D1030008A4
:1000C000D1030008D1030008D1030008D1030008C0
:1000D000D1030008D1030008E1210008D103000882
:1000E000D1030008D1030008D1030008D1030008A0
:1000F000D1030008D1030008D103000861130008F0
:10010000D1030008D1030008D1030008D10300087F
:10011000D1030008D1030008D1030008D10300086F
:1001200091130008C1130008F113000821140008FE
:1001300051140008D1030008D1030008D1030008BE
:10014000D1030008D1030008D1030008D10300083F
:1001500081140008B1140008E1140008D10300085C
:10016000D1030008D1030008D1030008D10300081F
:10017000D1030008D1030008D1030008D10300080F
:10018000D1030008D1030008D1030008D1030008FF
:10019000D1030008D1030008D1030008D1030008EF
:0C01A000D1030008D1030008D1030008BF
:1001B00000B583B000F0B4FE00F0FAF94FF48060AF
:1001C000C4F202004FF4807140F2824201F078FEE6
:1001D0004FF4806040F28242C4F202004FF400719A
:1001E00001F06EFE40F6702042F20061C0F60001A0
:1001F000C2F2000000F0ECFE4FF47A7000F038FC20
:1002000040F6DC2040F60001C2F20000C2F200011C
:1002100000F03EFF4FF44060C4F202004FF4805102
:100220004FF4817201F04CFE4FF44060C4F20200C2
:100230004FF400414FF4817201F042FE002240F67B
:10024000683042F251330092C2F20000C0F600035F
:100250004FF4A871412200F0C3FB4FF4FA7000F094
:1002600007FCFAE7AFF30080AFF30080AFF3008044
:10027000704700BFAFF30080AFF30080AFF30080A2
:10028000FEE700BFAFF30080AFF30080AFF3008064
:1002900072B640F60000C2F2000080F30988022323
:1002A00083F31488BFF36F8F40F2000340F20042E3
:1002B000C2F20003C2F2000293420BD2D9431144AE
:1002C00021F0030119444FF05532043B43F8042F49
:1002D0008B42FBD140F20043C2F2000383420CD2B6
:1002E00037491A1D891A21F0030119444FF055327C
:1002F000043B43F8042F8B42FBD102F019F840F67F
:10030000000140F63403C2F20001C2F20003994238
:100310000ED2CC431C4424F0030442F2086004349F
:10032000C0F600000023C258CA500433A342FAD1D9
:1003300040F6340340F6B842C2F20003C2F20002B3
:1003400093420AD2D943114421F0030119440022F7
:10035000043B43F8042F8B42FBD1FFF789FF40F2A7
:10036000AC1540F2AC13C0F60005C0F600039D4288
:100370000BD2EE431E44B6080136043D002401347E
:1003800055F8043F9847B442F9D1FFF711FF40F206
:10039000AC1540F2AC13C0F60005C0F600039D4258
:1003A0000BD2EE431E44B6080136043D002401344E
:1003B00055F8043F9847B442F9D1FFF761FF00BFF9
:1003C00003080020AFF30080AFF30080AFF300809C
:1003D000FEE700BFAFF30080AFF30080AFF3008013
:1003E00000F0BEFA00DF00BFAFF30080AFF3008083
:1003F000EFF30983203383F30988002383F3118803
:10040000704700BFAFF30080AFF30080AFF3008010
:1004100008B54FF46D43CEF200034FF44072C0F2C2
:10042000FA52002199600720DA60102100F098F854
:100430000A20202100F094F80B208021BDE808401C
:1004400000F08EB8AFF30080AFF30080AFF3008010
:10045000202383F311884FF46D43CEF200035B68D1
:1004600013F400631FD0EFF309824FF0807342F85A
:10047000043CA2F1200383F3098840F67013C2F212
:1004800000039969C87F88B118688B6881689942B0
:1004900094BF0023012393B140F2E133C0F600037F
:1004A00042F8083C704783F31188704718688B68DE
:1004B0008168994234BF00230123002BECD140F224
:1004C000E433C0F6000342F8083C7047AFF3008005
:1004D00008B5202383F3118800F0A2F8002383F3EA
:1004E0001188BDE80840FFF7B3BF00BFAFF300803D
:1004F0002DE9F04FC1F80CD0D0F80CD0BDE8F08F4A
:10050000002383F311882846A04700F0E1FA7047E2
:1005100020F0030303F1604303F56143F0B400F0FE
:1005200003024409D3F80053D200FF26A4009640EA
:1005300004F1604404F5614425EA06050127914071
:1005400000F01F0007FA00F045EA0102C3F800239B
:10055000C4F880012060F0BC704700BFAFF300809A
:1005600020F0030303F1604303F56D4300F0030043
:1005700010B4C0009A69FF24844022EA040281403A
:100580000A439A615DF8044B704700BFAFF30080E7
:1005900040F67012C2F2000242F2F0339269C0F6E5
:1005A00000039361FEE700BFAFF30080AFF300806C
:1005B00010B582B0FFF72CFF00F0EAF800F068F801
:1005C00000F066FC00F09CFC40F634004021C2F2D2
:1005D000000000F0D5F940F67013C2F200030122CA
:1005E00098610277002383F3118862B640F6701396
:1005F000C2F2000342F200429C69C0F600020021F0
:1006000040F6800040F29153A261C0F600030091D1
:100610000122E021C2F2000000F0E2F902B010BDB8
:1006200070B540F67013C2F200039B69DA7F0AB11D
:10063000013ADA771A6A40F66011C2F2000101321B
:100640001A62CB680A6801338A42CB6019D0966877
:10065000013E9660AEB90D461068D4680860D66059
:100660000023416083F311881069A047202383F39E
:1006700011882A68936840F66011C2F20001002BCD
:10068000EAD070BDAFF30080AFF30080AFF300801D
:1006900040F66013C2F200034FF0FF3100225B60AE
:1006A0001B609960DA607047AFF30080AFF30080A1
:1006B00030B440F66015C2F2000503612C68A368EF
:1006C000C260994204D92468C91AA3688B42FAD33C
:1006D000636804604360AC426060186081601EBF64
:1006E000A368C1EB0301A16030BC7047AFF3008089
:1006F000036840F66012C2F2000293421FBF99687D
:10070000826852189A6042681360036800215A6038
:10071000C1607047AFF30080AFF30080AFF300809B
:1007200010B4202383F31188037F0D2B11D8DFE849
:1007300003F029101007100B101010101010100BE0
:10074000436A9A6801329A6090E80C001A60026865
:1007500053604FF0FF34002340F67012816844620A
:100760000377C2F20002126893688B42FBD2516891
:100770000260416000235060086083F311885DF8D7
:10078000044B7047002383F311885DF8044B7047D6
:1007900040F67013C2F2000300225B601B605B61D5
:1007A0001B619A60704700BFAFF30080AFF3008019
:1007B000002310B48168037740F670130446C2F238
:1007C00000031B689A688A42FBD25A682360626001
:1007D00020465C6014605DF8044B7047AFF3008006
:1007E00040F67013C2F2000370B41A689969146875
:1007F000087714260125CE77636015771C601046B4
:1008000070BC9A61FFF774BEAFF30080AFF3008055
:1008100030B54B1C87B0054617D040F67014C2F2B5
:10082000000440F22172A36901A8C0F60002FFF79C
:100830003FFF2846FFF7D4FF049B13B101A8FFF741
:1008400057FFA369586A07B030BD40F67014C2F272
:100850000004FFF7C5FFA369586A07B030BD00BFA9
:10086000F0B440F67017C2F200078568D7F818C0D8
:10087000DCF808404162A54206460DD800223B46FE
:1008800002771B689A689542FBD95A683360726098
:100890005E601660F0BC704700238CF81C303B464D
:1008A0001B689A689442FBD95A68CCF8003001243E
:1008B000CCF80420C3F804C0C2F800C03477304636
:1008C000BE616146F0BCFFF713BE00BFAFF300800E
:1008D00040F67012C2F20002F0B410689569036825
:1008E000AC6813600127142600215A60077703467D
:1008F0009061EE77297700E01B689A68A242FBD2EC
:100900005A682B606A6029465D601560F0BCFFF78D
:10091000EFBD00BFAFF30080AFF30080AFF3008006
:1009200040F67012C2F2000270B410689569036854
:10093000AC681360012600215A6006770346906177
:10094000297700E01B689A68A242FBD85A682B609E
:100950006A6029465D60156070BCFFF7C9BD00BFC5
:1009600040F67013C2F200039B69DB7F0BB1FFF707
:10097000D7BFFFF7ADBF00BFAFF30080AFF300807C
:100980002DE9F00340F67012C2F20002002455690E
:10099000447700F12C064FF002094FF0140800F1E3
:1009A00028074FF0010C45610261816080F81C90BE
:1009B00080F81F80C46384630462846101645061B1
:1009C00080F81EC0286187620663C662BDE8F00336
:1009D000704700BFAFF30080AFF30080AFF300803B
:1009E0002DE9F0479E460446202383F3118840F604
:1009F0007016C2F20006A1F1240318447769E06082
:100A000040F2015144F803E0089B002504F12C0E4C
:100A100004F1280CC0F600014FF0020A4FF014094F
:100A20004FF0010843600162A260266167612264A1
:100A300084F81CA084F81F9084F81E806577746188
:100A4000E563A5632562A56120463C612946C4F89B
:100A500028C0C4F830E0C4F82CE0FFF701FF2B46B3
:100A600083F311882046BDE8F08700BFAFF3008014
:100A700008B50146202383F311880620FFF7C8FE3E
:100A8000002383F3118808BDAFF30080AFF300802B
:100A900038B540F67013C2F200039C6925466062C7
:100AA00055F8280FA84206D00368A362FFF780FE1E
:100AB000A06AA842F8D1637F9B0704D122696369C9
:100AC0001A61226953610E20BDE83840FFF788BEE5
:100AD000202383F31188FFF7DBBF00BFAFF3008053
:100AE0004060006081607047AFF30080AFF300802A
:100AF00003468068421E002A10B4A8BF00209A60F6
:100B000002DB5DF8044B704779B140F67012C2F217
:100B100000020320926953625C6882E818005A6000
:100B200022605DF8044BFFF773BE98604FF0FF3012
:100B3000E7E700BFAFF30080AFF30080AFF30080C2
:100B400082680132002A10B40346826002DD5DF83B
:100B5000044B704702681168002401604B605462C6
:100B600010465DF8044BFFF723BE00BFAFF30080D3
:100B70000023406000608360704700BFAFF30080D7
:100B800008B5826B037F1143082B81630BD0092BBF
:100B900000D008BD436A19408B42FAD1FFF708FE26
:100BA0000023436208BD436A1942F7D108BD00BF64
:100BB00070B50468A04205460E4608D0201D0BC83B
:100BC0003343E360FFF7DCFF2468A542F6D170BD34
:100BD00010B4024679B140F67013C2F200030D2042
:100BE0009B695A62546883E81400536023605DF87F
:100BF000044BFFF70DBE4FF0FF305DF8044B70471C
:100C000030B4029C406000250A44856004620261A1
:100C1000006041618161C160C36130BC704700BF49
:100C2000034642698069824210B59C681BD0501C03
:100C3000013458619C60117059691A6991420BD254
:100C4000186898420DD002681A605360FFF7B0FD33
:100C500000234362184610BD1868DA6898425A614A
:100C6000F1D1002010BD002CE1D06FF0030010BDC9
:100C700070B5202304460E4683F31188C3692BB157
:100C8000984703E0FFF7A4FF002815DBA56820467E
:100C90003146002DF6D0A2692169531C8B42A36115
:100CA00005F1FF3528BFE368A560107828BFA36170
:100CB000002383F3118870BD2B4683F3118870BD28
:100CC0002DE9F0471E460446D0F81C80202383F30C
:100CD00011884FF0000901EB020A4F1CB8F1000F18
:100CE00005D02046C04702E0FFF772FFF0B9A568C3
:100CF00020463146002DF7D0A369013D5A1CA26160
:100D0000A5601B7807F8013C2369A2699A4224BFB9
:100D1000E368A361002383F31188574509F10109B2
:100D200007D0202383F311880137D7E72B4683F3BD
:100D300011884846BDE8F087AFF30080AFF300802C
:100D400030B4029C40608D180561046200608260CE
:100D500041618161C160C36130BC7047AFF3008005
:100D6000F8B504460F461646202383F3118803E0A6
:100D7000FFF72EFF002819DBA56820463146002D1D
:100D8000F6D06369013D5A1C6261A5601F7023693A
:100D900062699A4224BFE3686361E3690BB120464C
:100DA0009847002383F311880020F8BD2B4683F376
:100DB0001188F8BDAFF30080AFF30080AFF300807F
:100DC00082694169914210B50346846816D018695A
:100DD0000134511C9C609961814214780BD21868CF
:100DE000984206D002681A605360FFF7E1FC0023C6
:100DF0004362204610BDDA689A61F0E7002CE6D025
:100E00006FF0020010BD00BFAFF30080AFF30080B1
:100E10002DE9F84F9A4604460E461746D0F81C9026
:100E2000202383F311884FF00008A56806F1010B19
:100E300020466B1EDDB16269A360531C6361337889
:100E40001370236962699A4224BFE3686361B9F150
:100E5000000F00D0C847002383F31188013F08F139
:100E600001080DD0202383F311885E46DDE720467C
:100E70005146FFF7ADFE0028D7D02B4683F31188EB
:100E80004046BDE8F88F00BFAFF30080AFF30080AD
:100E90004CF2000140F68C1240F690130648C2F264
:100EA0000101C2F20002C2F2000321F0070120F0AA
:100EB0000700116018607047BF0C0020AFF300807E
:100EC000202383F3118840F6901340F68C12C2F26F
:100ED0000003C2F2000219681268073020F0070010
:100EE000521A90429BBF4018186000200846002309
:100EF00083F31188704700BFAFF30080AFF3008029
:100F000040F69813C2F2000340F6C1620021C0F619
:100F1000000203F110001A609960D960FFF728BE43
:100F200008B500F025FB42F20050C0F6000000F0CA
:100F3000EFFE00F00DF800F023F800F099F800F053
:100F400007F900F055F9BDE8084001F0F9B900BF14
:100F500000F0EEBBAFF30080AFF30080AFF3008092
:100F600000230122027043608360C3600361436118
:100F70001830FFF7FDBD00BFAFF30080AFF3008076
:100F800000F0E6BDAFF30080AFF30080AFF3008068
:100F900038B5012300250446037045602946083012
:100FA000FFF79EFD294604F11400FFF799FD04F1B7
:100FB000200504F1240004F1280104F12C0204F1BD
:100FC000300325626062A162E262236338BD00BF24
:100FD00038B504460D46202383F311880378022B8D
:100FE00006D106200121FFF713FC2378022BF8D04D
:100FF000012B03D0002383F3118838BD65602046A0
:1010000000F0BEFD03232370002383F3118838BD55
:101010002DE9F843984604460E469146202383F373
:10102000118800F114072578042D3146204602D09E
:1010300000F0E6FD50B938464146FFF759FD00285B
:10104000F1D0002383F31188BDE8F88320463146B0
:101050004A4600F0F5FD002383F311880020BDE827
:10106000F88300BFAFF30080AFF30080AFF30080E0
:1010700000F0F6BFAFF30080AFF30080AFF3008065
:101080000122002302704360704700BFAFF300806D
:1010900010B52023044683F311888B8841600381B7
:1010A00000F0EEFF02232370002383F3118810BDAC
:1010B00008B5202383F3118801F062F8002383F33D
:1010C000118808BDAFF30080AFF30080AFF300805C
:1010D0000C30FFF7F5BD00BFAFF30080AFF3008029
:1010E0000C304FF0FF33FFF7EBBD00BFAFF30080D4
:1010F0003030FFF78DBE00BFAFF30080AFF300804C
:1011000030304FF0FF33FFF783BE00BFAFF30080F6
:101110000C30FFF7ADBD00BFAFF30080AFF3008030
:101120000C304FF0FF31FFF7A3BD00BFAFF30080DD
:101130003030FFF715BE00BFAFF30080AFF3008083
:1011400030304FF0FF32FFF70BBE00BFAFF300802F
:1011500001F0D6B8AFF30080AFF30080AFF30080AA
:1011600070B542F22043C0F60003044682B040F856
:10117000043B012600940B461546606004F15401BF
:1011800004F10C0026721022FFF73AFD00942B4662
:1011900004F1300004F164011022FFF7D1FD02B028
:1011A00070BD00BFAFF30080AFF30080AFF30080ED
:1011B00038B5436904460D463BB1294604F10C009D
:1011C000FFF72EFD00280BDB38BD04300421FFF7AC
:1011D000EFFC294604F10C00FFF722FD0028F3DAAA
:1011E000201D8021BDE83840FFF7E2BCAFF300804E
:1011F00000F0CEBEAFF30080AFF30080AFF300800D
:10120000002301220270436083600C30FFF7B0BC02
:101210004FF4C042C4F2020240F6B813C2F2000317
:10122000116810B51C6801F03D0191600CB158685F
:10123000A047BDE81040FFF70BB900BFAFF3008037
:101240004FF4C042C4F2020240F6B8131168C2F271
:101250000003890910B501F03D019C688801906088
:101260000CB1D868A047BDE81040FFF7F1B800BF47
:101270004FF4C042C4F2020240F6B8131168C2F241
:101280000003090C10B501F03D011C6908049060D1
:101290000CB15869A047BDE81040FFF7D9B800BFAE
:1012A0004FF4C042C4F2020240F6B8131168C2F211
:1012B0000003890D10B501F03D019C69880590601F
:1012C0000CB1D869A047BDE81040FFF7C1B800BF16
:1012D0004FF4C042C4F2020240F6B813C2F2000357
:1012E000516810B51C6A01F03D01D1600CB1586A1B
:1012F000A047BDE81040FFF7ABB800BFAFF30080D8
:101300004FF4C042C4F2020240F6B8135168C2F270
:101310000003890910B501F03D019C6A8801D06085
:101320000CB1D86AA047BDE81040FFF791B800BFE4
:101330004FF4C042C4F2020240F6B8135168C2F240
:101340000003090C10B501F03D011C6B0804D060CE
:101350000CB1586BA047BDE81040FFF779B800BF4B
:101360004FF4C042C4F2020240F6B8135168C2F210
:101370000003890D10B501F03D019C6B8805D0601C
:101380000CB1D86BA047BDE81040FFF761B800BFB3
:101390004FF4C842C4F2020240F6B813C2F200038E
:1013A000116810B51C6C01F03D0191600CB1586CD6
:1013B000A047BDE81040FFF74BB800BFAFF3008077
:1013C0004FF4C842C4F2020240F6B8131168C2F2E8
:1013D0000003890910B501F03D019C6C8801906003
:1013E0000CB1D86CA047BDE81040FFF731B800BF82
:1013F0004FF4C842C4F2020240F6B8131168C2F2B8
:101400000003090C10B501F03D011C6D080490604B
:101410000CB1586DA047BDE81040FFF719B800BFE8
:101420004FF4C842C4F2020240F6B8131168C2F287
:101430000003890D10B501F03D019C6D8805906099
:101440000CB1D86DA047BDE81040FFF701B800BF50
:101450004FF4C842C4F2020240F6B813C2F20003CD
:10146000516810B51C6E01F03D01D1600CB1586E91
:10147000A047BDE81040FEF7EBBF00BFAFF3008010
:101480004FF4C842C4F2020240F6B8135168C2F2E7
:101490000003890910B501F03D019C6E8801D06000
:1014A0000CB1D86EA047BDE81040FEF7D1BF00BF19
:1014B0004FF4C842C4F2020240F6B8135168C2F2B7
:1014C0000003090C10B501F03D011C6F0804D06049
:1014D0000CB1586FA047BDE81040FEF7B9BF00BF80
:1014E0004FF4C842C4F2020240F6B8135168C2F287
:1014F0000003890D10B501F03D019C6F8805D06097
:101500000CB1D86FA047BDE81040FEF7A1BF00BFE7
:1015100040F63823C2F2000330B4002142F24045C5
:1015200040F6B81419600A460B46C0F60005C2F230
:101530000004E8580C33C02B0160A15002F10802EE
:10154000F7D14FF4C0414FF4C842C4F20201C4F2D3
:1015500002024FF0FF338B6030BCCB609360D360EE
:10156000704700BFAFF30080AFF30080AFF300809F
:101570004FF46053C4F20203F0B400224FF0FF3482
:1015800019691C611A6159695C615A611E6A4EF2DF
:101590001001CEF2000166F0805649F23F054EF68A
:1015A000F0501E62CEF200001A62C0F20205072659
:1015B0005F6A5C625A624D608A600E60C4684FF474
:1015C0008051CEF2000144F08074C460086840F09D
:1015D00001000860186C4FF4E041C4F2000140F0D3
:1015E00080501864086840F480700860196F01F436
:1015F0004071B1F5007F1EBF4FF4803119671A6743
:101600004FF4E043C4F20003F0BC5A6822F40072C5
:101610005A60FFF77DBF00BFAFF30080AFF30080DB
:101620004FF460514FF4E043C4F20201C4F20003EE
:101630004FF080504FF4404208641A600B6843F04A
:1016400001030B600A684FF460539007C4F2020371
:10165000F8D59A6822F003029A609A6819469A604F
:101660008B684FF4605213F00C03C4F20202F7D1FE
:10167000116801F0F90111609360136843F480333D
:10168000136011684FF460538903C4F20203F8D564
:101690005A6F42F001025A6719464A6F4FF460537D
:1016A0009007C4F20203F8D545F20842C0F2407236
:1016B0005A6019684FF4E04241F080711960C4F239
:1016C000000253685904FCD54FF46051C4F2020182
:1016D0000A684FF460539201C4F20203F8D54FF444
:1016E0007052C4F202024FF41441C3F6080140F2F2
:1016F0000570996010609A6842F002029A6019467B
:101700008A6802F00C024FF46053082AC4F2020304
:10171000F6D15A6C42F480425A645A6E42F48042C6
:101720005A667047AFF30080AFF30080AFF30080DC
:1017300038B540F63C24C2F200042046FFF710FC06
:10174000084D4FF4005242F61643C0F20203C4F2B1
:101750000102A262E562236312206021BDE83840E5
:10176000FEF7D6BED0240008AFF30080AFF30080B0
:10177000C16A0A68136823F01F0310B4136013686A
:1017800013F00103FBD10C7A826A48683D2101FA0B
:1017900004F40121046053605DF8044B9360916090
:1017A000704700BFAFF30080AFF30080AFF300805D
:1017B0004FF40053C4F2010300211A68900610B5DB
:1017C00019602ED540F63C24C2F20004E36A1B687F
:1017D0005B6833B3236923B32046FFF7C9FF23694E
:1017E0009B684BB10522227020460121984723783F
:1017F000052B04BF0223237000232361202383F3DE
:10180000118840F63C23C2F20003586930B14FF012
:10181000FF32426200225A61FEF7CAFF002383F3BF
:101820001188BDE81040FEF713BE00BFAFF3008083
:101830004FF46053C4F20203F0B41C6C4FF4C8457B
:10184000C4F2000544F000741C64D5F800321B0C8F
:101850001B0443F0010343EA0023C5F800320029CA
:1018600065D00020C5F81C020346C5F804020446F2
:10187000C5F80C02C5F81402D80000F1804000F54C
:10188000C84001331C2BC0F84042C0F84442F3D199
:101890004FF4C843C4F200030025012710791468EF
:1018A00010F0010F18BFD3F804024FEAC40607FA7C
:1018B00004F41EBF2043C3F80402107910F0020F95
:1018C0001FBFD3F80C022043C3F80C021079400765
:1018D00042BFD3F814022043C3F8140206F1804635
:1018E000906806F5C8460135C6F84002D068C6F8CB
:1018F0004402D3F81C028D4244EA000402F11002B3
:10190000C3F81C42CAD14FF4C842C4F200024FF4DB
:101910006053D2F80012C4F2020321F00101C2F8B0
:1019200000121A6C22F000721A64F0BC7047C300F7
:10193000012203F1804303F5C84302FA00F010438B
:10194000C5F84012C5F84412C3F84012C3F8441257
:10195000C5F80412C5F81412C5F80C02C5F81C022B
:10196000D1E700BFAFF30080AFF30080AFF300809A
:1019700040F67023C2F2000340F201125B6BC0F22A
:10198000010210B59A60202383F3118840F6702479
:10199000C2F200042369002B05DA0848FFF7D0F8EB
:1019A0002369002BF9DB06480121FFF701F9002329
:1019B00083F31188BDE81040FEF74ABD780A002085
:1019C000940A0020AFF30080AFF30080AFF30080F3
:1019D00038B540F67024C2F20004636BDD68AA07D4
:1019E00016D05A6922F002025A61202383F311882B
:1019F000E369002B05DA1048FFF7A2F8E369002B32
:101A0000F9DB0E480121FFF7D3F8002383F3118897
:101A1000EB060CD5636B1022DA60202383F3118868
:101A200007481021FFF7C4F8002383F31188BDE8AD
:101A30003840FEF70DBD00BF840A0020900A002048
:101A4000980A0020AFF30080AFF30080AFF300806E
:101A500038B540F67024C2F20004636B1D69A80714
:101A600016D05A6922F010025A61202383F311889C
:101A7000E369002B05DA1048FFF762F8E369002BF1
:101A8000F9DB0E480221FFF793F8002383F3118856
:101A9000E9060CD5636B10221A61202383F31188A9
:101AA00007481021FFF784F8002383F31188BDE86D
:101AB0003840FEF7CDBC00BF840A0020900A002009
:101AC000980A0020AFF30080AFF30080AFF30080EE
:101AD00038B540F67024C2F200041C23626B5568CE
:101AE00053602B071DD46D0717D5636B9A699969ED
:101AF00021F07001996112F0700F02F0070118BF18
:101B000041F00801202383F311880F4841EA024184
:101B1000FFF74EF8002383F31188BDE83840FEF745
:101B200097BC1168032321F0020123702023116068
:101B300083F31188002104F13000FFF739F8002306
:101B400083F31188CFE700BF980A0020AFF300802D
:101B500010B540F67024C2F200042046FFF718FAD0
:101B60004FF4C8430021C4F2000363630A460E2009
:101B7000BDE81040FFF75CBEAFF30080AFF300801C
:101B800040F67023C2F20003984210B504461AD002
:101B9000636B0221012221701A605A68D10707D4B1
:101BA00006200121FEF734FE636B5A68D207F7D591
:101BB000616848F65B7248680968D861C0F2010242
:101BC00019605A6110BD1320B021FEF7A1FC14204A
:101BD000B021FEF79DFC1520B021FEF799FC1620E0
:101BE000B021FEF795FC4FF46053C4F202031A6C67
:101BF00042F000721A64CBE7AFF30080AFF30080CD
:101C0000012911D00AD3022906D1436B186910F0BB
:101C1000030018BF0120704700207047436BDA684B
:101C20009207F3D001207047436BD86810F003008F
:101C300018BF0120704700BFAFF30080AFF30080F2
:101C400010B4002930D1436BD968890735D0D3F857
:101C5000B041D3F8B411D3F8B831D360436BD3F8A3
:101C6000BC311361436B2020D860D868800743D013
:101C70001079C4F3400363F30410C4F3800363F3E7
:101C800045101071002B31D09368E40864F31C03F5
:101C9000936013795DF8044B080A61F30303090CA0
:101CA000137110705180704701292AD0022908BF92
:101CB000436B05D05DF8044B704719698C07F9D068
:101CC000D3F8C041D3F8C411D3F8C831D360436B03
:101CD000D3F8CC311361436B202018611869800759
:101CE00002BF586940F010005861C1E71389640DC4
:101CF00064F30A031381CCE7586940F0020058618D
:101D0000B6E7436BA3E700BFAFF30080AFF30080FB
:101D10004FF46053C4F202031A6B6FEA52226FEA67
:101D200042221A631A6D6FEA52226FEA42221A6542
:101D300000234168C4F202034FF480625960816855
:101D40009960C168D9600169596141691962816905
:101D5000596201681960016AC4F202024FF400631B
:101D60005160416A9160816AD160C16A5161016BC1
:101D70001162416B5162C1691160C4F20203C16B0F
:101D80005960016C9960416CD960816C5961C16C7A
:101D90001962016D5962816B4FF440621960816D67
:101DA000C4F202024FF480535160C16D9160016E24
:101DB000D160416E5161816E1162C16E5162416D9F
:101DC0001160C4F20203416F5960816F9960C16F65
:101DD000D960D0F880105961D0F884101962D0F819
:101DE00088105962016F4FF4A0521960D0F890101A
:101DF000C4F202024FF4C0535160D0F894109160C5
:101E0000D0F89810D160D0F89C105161D0F8A01093
:101E10001162D0F8A4105162D0F88C101160D0F883
:101E2000AC10C4F202034FF4E0525960D0F8B01085
:101E30009960D0F8B410D960D0F8B8105961D0F8D2
:101E4000BC101962D0F8C0105962D0F8A810C4F2C2
:101E500002021960D0F8C8305360D0F8CC309360DB
:101E6000D0F8D030D360D0F8D4305361D0F8D83027
:101E70001362D0F8DC305362D0F8C4104FF4005332
:101E80001160D0F8E420C4F202035A60D0F8E820D0
:101E90009A60D0F8EC20DA60D0F8F0205A61D0F8DF
:101EA000F4201A62D0F8F8205A62D0F8E0201A60C4
:101EB000704700BFAFF30080AFF30080AFF3008046
:101EC0002DE9F00F002302F00307C2F38006C2F3EE
:101ED000C105C2F341144FF00F09C2F3C3124FF012
:101EE000010A04E07600AD00A400BF00013303F056
:101EF000070C4FEA8C0C11F0010F02FA0CF809FAEA
:101F00000CFC3CD0072B95BFD0F820B0D0F824B003
:101F10002BEA0C0C2BEA0C0C95BF4CEA08084CEA97
:101F20000808C0F82080C0F82480D0F804C00AFA5D
:101F300003F82CEA080C4CEA060CC0F804C04FF079
:101F4000030B4FEA430CD0F808800BFA0CFC6FEA45
:101F50000C0C0CEA080848EA0508C0F80880D0F81C
:101F60000C800CEA080848EA0408C0F80C80D0F895
:101F700000800CEA080C4CEA070CC0F800C04908C5
:101F8000B0D1BDE8F00F7047AFF30080AFF3008031
:101F900038B540F6A82340F6AC24C2F20004C2F2E1
:101FA00000034FF6FF7220461A80FFF729F909490E
:101FB0004FF4605016224623C4F2000001F10C05D4
:101FC000C0F20102C0F20103E06121626562A26217
:101FD000E36238BD64240008AFF30080AFF30080F3
:101FE00038B540F6DC25C2F200052B691A69DC68B9
:101FF0001440A4B2E2B2D2431A61A3072AD4600704
:1020000020D4210716D4E2060CD4E30706D56B686A
:1020100040F6DC209B68C2F200009847BDE83840DB
:10202000FEF716BA6B6840F6DC209B6AC2F200002D
:102030009847EAE76B6840F6DC201B6AC2F20000B2
:102040009847E0E76B6840F6DC209B69C2F200002D
:102050009847D6E76B6828461B699847CFE700BFCB
:1020600010B540F6DC24C2F200042046FFF708F861
:102070004FF40063C4F20003236110BDAFF300808E
:102080000378012B70B5044652D0036900221A6010
:102090005A639A63DA631A645A626268E66810687F
:1020A0002589D168D46AB6FBF0F00138013D01F012
:1020B0000F0180B2ADB201299862DD625C6003D08D
:1020C00002290CBF03210021506900F00F000128F4
:1020D0002BD0022827D0D06900F00F0001281FD094
:1020E00002281BD0506A00F00F00012803D00228FC
:1020F00003D141F4005141F48051106B9268196290
:1021000020F0FF01002A18BF41F001010124002046
:1021100085225C611861D9601A6070BD41F400715C
:1021200041F48071DEE741F0200141F01001D2E777
:1021300040F6DC23C2F20003984205D0236946F63C
:1021400068029A61DA61A8E74FF46053C4F20203AF
:102150000022196C41F004011964196A41F004016C
:1021600019621E201A627021FEF7D2F94FF43D4326
:10217000C0F20153E360E1E7AFF30080AFF300800A
:1021800010B44468036904EBC10001F10C04006958
:1021900003EB8404626048B1DA68022000FA01F1BE
:1021A000114201BF0A43C943DA6019615DF8044B6B
:1021B000704700BFAFF30080AFF30080AFF3008043
:1021C0004FF48843C4F200039A8992B242F080022D
:1021D0009A817047AFF30080AFF30080AFF30080C7
:1021E000F8B540F6F026C2F20006756FAF892C886C
:1021F000A4B2E005BFB24BD4202383F31188A1061B
:1022000024D50BE0A98840F6F020C2F20000C9B244
:10221000FEF7CEFF2C88A4B2A00617D52207F1D076
:1022200014F0080F14BF8021002114F0010F18BF13
:1022300041F02001A30748BF41F0400164072C484A
:1022400048BF41F48071FEF7B3FCDBE7002383F362
:102250001188390601D5220629D4630614D5202316
:1022600083F31188726CB36C40F6F0209A42C2F28C
:1022700000002BD04FF6BF733B404FF6BF72AB81CF
:1022800000232A8083F31188BDE8F840FEF7E0B808
:10229000202383F311884FF40071301DFEF788FC72
:1022A000002383F311884FF6FF632B80A4E72023DC
:1022B00083F311880F48FEF783FD0028A4BF80B286
:1022C000A8800BDB002383F31188C6E7836B002B08
:1022D000D0D004301021FEF76BFCCBE70448082176
:1022E000FEF766FC27F0C00343F04003AB81E9E74B
:1022F000F40A0020200B0020AFF30080AFF3008031
:1023000010B540F6F024C2F2000442F2C112204699
:10231000C0F600020021FEF723FF4FF48843C4F209
:102320000003636710BD00BFAFF30080AFF3008010
:10233000FFF776B9AFF30080AFF30080AFF3008012
:10234000704700BFAFF30080AFF30080AFF30080B1
:102350002DE9F04140F670184FF4406540F6DC2658
:1023600046F2676786B0C2F20008C4F20205C2F204
:102370000006C6F2666716E0FEF77AFB40F67020AC
:1023800001AA2346C2F200002146FEF741FE6B6916
:1023900083F480536B619DF810204FF44063012A51
:1023A000C4F202030DD0D8F818305A7F02F00402AC
:1023B0000A2002F0FF04002ADED0002006B0BDE8AB
:1023C000F0815969328981F4804187FB020240F62D
:1023D000DC2059615208C2F200000321FEF768FEBA
:1023E0008DF81040DFE700BFAFF30080AFF300804F
:1023F00069646C650000000000000000000000003F
:102400006D61696E00168711040448080C101418D9
:10241000001C1D1E1F200000000000000000000026
:1024200001110008E1100008411100082111000805
:102430003111000811110008F1100008D110000836
:10244000106002400860024000000B00286002405B
:102450000860024006010C00406002400860024033
:1024600010020D00586002400860024016030E0082
:10247000706002400C60024000040F00886002405F
:102480000C60024006051000A06002400C60024093
:1024900010061100B86002400C60024016072F00C1
:1024A00010640240086402400008380028640240BA
:1024B0000864024006093900406402400864024092
:1024C000100A3A005864024008640240160B3B00B0
:1024D000706402400C640240000C3C0088640240BE
:1024E0000C640240060D4400A06402400C640240EB
:1024F000100E4500B86402400C640240160F4600FE
:1025000000AAA02A00000000FFABFFFF540001401A
:10251000FFFF00000000565500AA0A0080200A00B4
:1025200040000000FFFFFAFF15455555FFFF000072
:10253000000000049900000001802002000000005B
:10254000FFFFFFFF54154554FFFF0000000000602F
:10255000000606000001005500000000FFFFFFFF1D
:1025600055505500FF0F0000000000000000000063
:102570004000000000000000FFFFFFFF000000001F
:10258000FFFF00000000000000000000000000004D
:1025900000000000FFFFFFFF00000000FFFF000041
:1025A000000000000000000000000000000000002B
:1025B000FFFFFFFF00000000FFFF00000000000021
:1025C000000000000000000000000000FFFFFFFF0F
:1025D00000000000FFFF00000000000000000000FD
:1025E0000000000000000000FFFFFFFF00000000EF
:1025F000FFFF0000000000000000000000000000DD
:08260000640000000600180050
:102608001027000008000000000000000100000082
:1026180000000000000000000000000000000000B2
:1026280000000000010000000000000000000000A1
:04263800000000009E
:04000005080002915C
:00000001FF
